:020000040800F2
:10000000C002052099030008375000089D400008F1
:1000100035500008F10D00082962000800000000BA
:10002000000000000000000000000000B90200080D
:10003000250F00080000000015030008C95A000839
:10004000B3030008B3030008B3030008B3030008B8
:10005000B3030008B3030008B3030008B3030008A8
:10006000B3030008B3030008B3030008B303000898
:10007000B3030008B3030008B3030008B303000888
:10008000B3030008B3030008B3030008B303000878
:10009000B3030008B3030008B3030008B303000868
:1000A000B3030008715B0008B3030008B303000842
:1000B0007D5B0008895B0008B3030008AD400008C1
:1000C000A1400008B3030008B3030008B30300080D
:1000D000B30300081D620008B3030008B30300085F
:1000E000B3030008B3030008B3030008B303000818
:1000F000B3030008B3030008B303000800000000C6
:10010000B3030008B3030008B3030008B3030008F7
:10011000B3030008B3030008B3030008B3030008E7
:10012000B3030008B3030008B3030008B3030008D7
:10013000B3030008B3030008B3030008B3030008C7
:10014000B3030008B3030008B3030008B3030008B7
:10015000B3030008B3030008B30300083D500008D0
:10016000C5400008B9400008B3030008B303000805
:1001700049500008B3030008000000000000000020
:10018000B30300082B0F0008B3030008B3030008F3
:10019000B3030008B30300080000000000000000E3
:1001A0000000000000000000F50E0008554900089E
:1001B000494900082D0F0008B303000800F002F8B9
:1001C00000F06AF80AA090E8000C82448344AAF187
:1001D0000107DA4501D100F05FF8AFF2090EBAE885
:1001E0000F0013F0010F18BFFB1A43F0010318476B
:1001F000582F0D00782F0D000A444FF0000C10F816
:10020000013B13F0070408BF10F8014B1D1108BF94
:1002100010F8015B641E05D010F8016B641E01F834
:10022000016BF9D113F0080F1EBF10F8014BAD1C84
:100230000C1B09D16D1E58BF01F801CBFAD505E0A2
:1002400014F8016B01F8016B6D1EF9D59142D6D3FC
:10025000704700000023002400250026103A28BF24
:1002600078C1FBD8520728BF30C148BF0B60704728
:10027000752900F06581002070471FB516F0EAF877
:100280009DE8030000F0B0FC00F044FB1FBD10B57A
:10029000002000F032FC10BD00F012FD1146FFF707
:1002A000ECFF13F0B5FD00F04AFD03B4FFF7EFFFDC
:1002B00003BC00F041FB00002C4B1968086800F0FB
:1002C0005AB880F30988BFF36F8F4FF0000080F3B6
:1002D000118870470000000008480068006880F33B
:1002E00008884FF0000080F3148862B661B6BFF34F
:1002F0004F8FBFF36F8F00DF00BF00BF08ED00E03E
:10030000DFF80C00016841F470010160704700BF24
:1003100088ED00E0EFF30980BFF36F8F134B1A688D
:100320001EF0100F08BF20ED108A20E9F04F10607A
:1003300009B44FF0500080F31188BFF34F8FBFF323
:100340006F8F14F087FE4FF0000080F3118809BC16
:100350001968086800F014B81EF0100F08BF00F00C
:1003600014B880F30988BFF36F8F7047340F0020F3
:10037000EFF30580704730C8B0E8C04FFFF7A1BF6A
:1003800030C8B0E8C04FFFF7E7BFB0EC088AB0EC68
:1003900008CAFFF7E6BF0000094880470948004740
:1003A000FEE7FEE7FEE7FEE7FEE7FEE7FEE7FEE725
:1003B000FEE7FEE704480549054A064B7047000082
:1003C000615B0008BD010008C0FC0420C0020520DC
:1003D000C0FE0420C0FE042053EA020C00F0698035
:1003E0002DE9F04B4FF00006002B1FBFB3FA83F549
:1003F00003FA05F424FA05F65E4012BF1643B2FA7A
:1004000082F502FA05F4C5F120051EBF22FA05FCAB
:1004100044EA0C04203556EA044C4FEA144418BF51
:10042000641C4FF000084FF00009904271EB030C80
:1004300039D3002919BFB1FA81F701FA07F6B0FAEA
:1004400080F700FA07F6C7F120071EBF20FA07FC65
:1004500046EA0C062037B6FBF4FCA7EB0507103F75
:1004600007F01F0BCBF120060CFA0BFB2CFA06F65B
:1004700044BFB3460026202FA4BF5E464FF0000BBA
:100480005BEA060C08BF4FF0010B19EB0B09ABFB45
:10049000027C48EB0608C01B06FB02CC0BFB03CC1E
:1004A00071EB0C01C1E70B46024641464846BDE8E8
:1004B000F08B13B54FF000004FF00001AFF3008058
:1004C000BDE81C40704700000FB41CB5074B06AADE
:1004D0007B4469460090059800F0F7FA00206946D1
:1004E00000F006FB1CBC5DF814FB00001D060000BC
:1004F00070B5044685690068C10601D5302600E064
:100500002026C00707D070BDD4E9012130469047AE
:10051000206A401C20626D1EF6D570BD70B5044681
:1005200085690078C00707D170BDD4E9012120207A
:100530009047206A401C20626D1EF6D570BD0000F9
:100540002DE9F0410646002410687529314616A5AC
:1005500010D0AFF30080002802DA404213A507E074
:1005600031688A0701D512A502E0490704D511A513
:10057000012401E0AFF3008000210A2206F12407E4
:1005800009E0B0FBF2FCB0FBF2F302FB1C003030E0
:1005900078541846491C0028F3D123462A46304691
:1005A000BDE8F04100F033BA000000002D0000006B
:1005B0002B000000200000002DE9F05F8946044672
:1005C0004FF0000ADFF824B1FB44C0F820A0204619
:1005D000E168884700287DD0252806D0D4E901218C
:1005E0009047206A401C2062F1E700255F462046C4
:1005F000E16888472028064607DB312E05D2B81966
:1006000010F8200C08B10543F1E7A80701D525F043
:100610000405C4F81CA00027C4F818A02A2E09D08D
:10062000304613F0EDFB38B304EB8708303EC8F8D2
:10063000186019E059F8041B204604EB8702916109
:10064000E1688847012F064618D1E069002820DAC2
:1006500025F020051DE0D8F8180000EB800006EB1F
:1006600040003038C8F818002046E1688847064640
:1006700013F0C6FB0028EED1012F0AD02E2E08D190
:100680002046E16888477F1C0646022F45F020057A
:10069000C4DBA069002803DA404245F00105A061EF
:1006A000E80701D025F01005A6B1A6F141001928F0
:1006B00002D8203645F400654A463146204625607A
:1006C0004D46FFF7D5FD60B1012807D0ED1D25F09F
:1006D000070000E007E000F1080978E705F10409E8
:1006E00075E730467AE7206A00F002B8585F0100EB
:1006F00030BCBDE8C09F10B5002000F01FFAFFF726
:10070000C6FDBDE81040012000F016B92DE9F0410A
:10071000074615460E46102000F018F904000AD0CE
:100720006760C4E9026500F00DF9016821600460AA
:100730000020BDE8F0810120FBE740EA010302460A
:1007400030B59B0710D14FF0013400E008C208C952
:100750001D1B9D4315EAC41FF8D013F0FF0102F8DA
:10076000011B0DD01B0AF8E711F8013B002B02F822
:10077000013B05D011F8013B002B02F8013BF3D1FE
:1007800030BD10B5431C02E010F8011B71B18107A8
:10079000FAD14FF0013202C88C1A8C4314EAC2110C
:1007A000F9D0C01A0A0603D0C01E10BDC01A10BD71
:1007B0000A0401D0801E10BD0902FCD0401E10BDED
:1007C000032A40F2308010F0030C00F0158011F87D
:1007D000013BBCF1020F624498BF11F801CB00F855
:1007E000013B38BF11F8013BA2F1040298BF00F8A9
:1007F00001CB38BF00F8013B11F0030300F0258066
:10080000083AC0F0088051F8043B083A51F804CB8C
:10081000A0E80810F5E7121D5CBF51F8043B40F852
:10082000043BAFF30080D20724BF11F8013B11F85D
:1008300001CB48BF11F8012B24BF00F8013B00F8A1
:1008400001CB48BF00F8012B704710B5203AC0F02B
:100850000B80B1E81850203AA0E81850B1E81850C1
:10086000A0E81850BFF4F5AF5FEA027C24BFB1E8FE
:100870001850A0E8185044BF18C918C0BDE810406F
:100880005FEA827C24BF51F8043B40F8043B08BF78
:100890007047D20728BF31F8023B48BF11F8012B3F
:1008A00028BF20F8023B48BF00F8012B704702F038
:1008B000FF0343EA032242EA024200F04FB94FF03D
:1008C000000200B5134694469646203922BFA0E8A0
:1008D0000C50A0E80C50B1F12001BFF4F7AF0907AC
:1008E00028BFA0E80C5048BF0CC05DF804EB89009D
:1008F00028BF40F8042B08BF704748BF20F8022BE0
:1009000011F0804F18BF00F8012B704770477047F7
:100910007047000070B5064C7C44064D7D4403E0F2
:10092000206820448047241DAC42F9D170BD0000EE
:1009300068280D0074280D0001491820ABBEFEE7A1
:1009400026000200004870478CF9042070B5064666
:1009500000F02AF9056806F10B0020F00704B44204
:100960009CBF002070BD2B466A68BAB11068A042D7
:1009700010D304F1080188423CBF5068586007D387
:100980005168101941601168091B016058601460BA
:10099000101D70BD13465268002AE7D12146284633
:1009A00000F00EF90028DED170BD70B50446051FB9
:1009B00000F0FAF80068002C14BF446870BD002CE9
:1009C00018BFAC423CBF20466468F8D301680A18DF
:1009D000AA4218BF456003D12A6805461144016048
:1009E00028684119A1421CBF6C6070BD61686960D4
:1009F00021680844286070BD10B500F0D9F800687F
:100A000010BD10B5044600F0D3F8046010BD2DE908
:100A1000F0470D4699469246044600F124080168C5
:100A2000880604D5E06921F01001216000E0012072
:100A3000A84201DD471B00E00027A1697A1902EBFB
:100A40000900081AA0612078C00602D42046FFF7EA
:100A50004FFD002608E0D4E901211AF8060090476E
:100A6000206A401C761C20624E45F4DB2078C006CC
:100A70000AD52046FFF73CFD06E0D4E901213020ED
:100A80009047206A401C2062381EA7F10107F4DC61
:100A900007E0D4E9012118F805009047206A401CBE
:100AA0002062281EA5F10105F3DC2046FFF736FD84
:100AB0002078000602D50220BDE8F0870120FBE780
:100AC00001694A1C02610878704700B58FB0CDE912
:100AD00001310021059105497944CDE90310114602
:100AE0006846FFF769FD0FB000BD0000E5FFFFFF9E
:100AF0000A6802F8010B0A6070472DE9F0410646CA
:100B0000FFF720FF8046454613E016B1E068B0428B
:100B10000ED120682860D4E90101D8F80070884718
:100B20002046FFF742FFD8F80000B842EBD100E0C2
:100B300025462C68002CE8D1BDE8F08110B500F006
:100B40008FF8BDE8104000F085B810B500F0A0F8AF
:100B5000BDE8104000F07EB84FF000020429C0F05C
:100B6000128010F0030C3FF4ACAECCF1040CBCF1DD
:100B7000020F18BF00F8012BA8BF20F8022BA1EB31
:100B80000C01FFF79EBE5FEAC17C24BF00F8012B79
:100B900000F8012B48BF00F8012B70470048704750
:100BA00054F9042070470000004870475CF90420A5
:100BB0000048704754F904207047704770477047E9
:100BC00038B504460A4600206946AFF30080002885
:100BD00008BF38BD02460099204600F096F8012073
:100BE00038BD012000F0CDB8F8B5AFF30080054660
:100BF00000200C46102000BF0646A819A0420DD9BF
:100C0000324669460020AFF30080070008BF00F0BD
:100C1000B8F80098A04218BF0546C419FFF7C4FFF2
:100C200005600746F01D20F007004619284600F031
:100C30000AF8B44208BFF8BDA21B31463868BDE8C7
:100C4000F84000F062B800210160C0E9011070476F
:100C500010207047002801D0FFF76EBE70470000DB
:100C600010B5002102A000F073F8012010BD0000B3
:100C7000534947414252543A2041626E6F726D614E
:100C80006C207465726D696E6174696F6E0000002E
:100C900010B5002102A000F05BF8012010BD00009B
:100CA0005349475056464E3A205075726520766932
:100CB000727475616C20666E2063616C6C65640093
:100CC0007546FFF76BFFAE4605006946534620F0B8
:100CD0000700854618B020B5FFF76CFBBDE8204043
:100CE0004FF000064FF000074FF000084FF0000BE8
:100CF00021F00701AC46ACE8C009ACE8C009ACE89B
:100D0000C009ACE8C0098D467047034640688C4670
:100D1000002818BF88423CBF03464068F8D31868D3
:100D20001844884207D00CF1030020F00700001D92
:100D3000411A521A0146081D0A60FFF736BE10B567
:100D40000446AFF300802046BDE81040FFF7ADBA7F
:100D500070B505460C460A2000E06D1C00F018F83E
:100D600035B128780028F8D102E0641C00F010F8B2
:100D700014B120780028F8D1BDE870400A2000F0B6
:100D800007B810B500F00CF8BDE81040FFF762BFDF
:100D900008B569468DF800000320ABBE08BD000011
:100DA00010B5012805D0002103A0FFF7D1FF0120D5
:100DB00010BD09A1F8E7000053494752544D454D75
:100DC0003A204F7574206F662068656170206D65EC
:100DD0006D6F7279000000003A2048656170206DE7
:100DE000656D6F727920636F7272757074656400DF
:100DF000FEE70000354A30B413684FF0000C23F0D2
:100E000001031360324A1368C3F30B140123A4F5E2
:100E10004065243D0ED01468C4F30B14A4F540655E
:100E2000273D07D01268C2F30B12A2F55064223C92
:100E300032D01AE0274A1268BAB9274AD2F800C05D
:100E4000CCF30B0CBCF58A6F19D0D2F800C0CCF3F0
:100E50000B0CACF58064833C11D01268C2F30B021A
:100E6000A2F5806CBCF1850C09D01C4A9360936894
:100E7000002BFCD110601068884223D009E0184A8A
:100E800013601368002BFCD1164A1060106888426A
:100E900018D030BC00207047134A1268C2F30B020E
:100EA000A2F58064863C13BF6046104A136030BCD4
:100EB00018BF70471368002BFCD10D4A10601068F2
:100EC0008842E6D130BC012070470000002000E0DD
:100ED00000ED00E0002004E00010005C0030024063
:100EE000084C0258004C0258F08F0046084C02464D
:100EF000004C02460948416889070ED501688905FA
:100F00000BD5016821F40071016002218160044861
:100F100000684068016849690847704700B00240AE
:100F20001C110020704772B6FEE77047014800F0C0
:100F3000D2B90000C4C30420F0B504460020CB079A
:100F400011D01E235FF0010603F01F0706FA07F514
:100F50000D4201D15B1EF7D27AB1082A0BD0102ABC
:100F600006D0182A01D00120F0BD072BFBD204E0E7
:100F7000082BF8D201E0102BF5D2236859612168C3
:100F80008B6823F0180313438B60F0BD10B5040089
:100F900010D0607F20B900202077204600F030F884
:100FA00002206077207938B1D4E902122046FFF799
:100FB000C3FF48B1012010BD216810484861206876
:100FC000816821F0180181606079A0B120692168F1
:100FD000086120688168626921F0600111438160C5
:100FE00020688168A26921F080011143816001209D
:100FF0006077002010BD4FF0FF30E8E7B71DC10457
:1010000008B500680649884208D10648816C41F459
:1010100080518164806C00F48050009008BD000015
:101020000030024000100240F0B590F85820012A2C
:101030002CD0012680F85860022280F8592001EB5C
:10104000410200EBC202158F148ED36A978F2D05D3
:1010500043EA044445EA47552C431F4D28320A2BE6
:1010600016D0092B14D0137B44EA036300290168CE
:1010700013D0CC69AC431C43CC610368116819617F
:1010800051680A291BD0092919D01DE00220F0BDA2
:10109000D36803F07F432343E8E74C6AAC431C4327
:1010A0004C6203681168996151680A2901D00929C5
:1010B0000AD1D168026821F07F41916204E0D168D1
:1010C000026821F07F41116280F85960002180F8A8
:1010D00058100846F0BD00000F0033FF70B5040043
:1010E00004D094F85900002510B106E0012070BD2D
:1010F00084F85850204600F031F8022084F8590056
:101100006168E069014320680268134B1A4011438B
:101110000160A168A06901432068426B40F2071397
:101120009A43114341632068016CE2686FF30F0139
:1011300011430164208AA18A000540EA41512068D8
:10114000426B22F4401211434163E565012084F8AB
:101150005900002070BD0000BFFFF8FF08B500680F
:101160000649884208D10648816C41F40031816407
:10117000806C00F40030009008BD000000B0024018
:101180000010024010B590F825100023022905D068
:101190000421C16380F82430012010BD01680A6871
:1011A00022F00E020A60816C0A6822F480720A60E2
:1011B00001680A6822F001020A6090F84410046C89
:1011C00001F01C01012202FA01F16160D0E913145F
:1011D0004C60416D31B10C6824F480740C60D0E92E
:1011E00016144C6080F8252080F82430184610BD75
:1011F00010B590F825100024022903D00421C16302
:1012000001242BE001680A6822F00E020A600168DE
:101210000A6822F001020A60816C0A6822F4807276
:101220000A6090F84410036C01F01C01012202FADC
:1012300001F15960D0E913134B60416D31B10B6876
:1012400023F480730B60D0E916134B6080F82520DF
:10125000002180F82410816B01B18847204610BD21
:1012600090F825007047000070B5044600F0C2F900
:101270000546601C02D004480078044400F0BAF926
:10128000401BA042FAD370BD08000020F0B505460F
:10129000002095F82440012C03D18C18B4F5806F00
:1012A00001D90120F0BD2E684FF4805505EBC10532
:1012B00041F2040707EBC10100243544314406E044
:1012C00040CB45F8086B40CB41F8086B641C944256
:1012D000F6D3F0BD704710B502685168136803F08B
:1012E0001F03194005D09160826A0A438262FFF7AA
:1012F000F1FF10BD70B504004FF000050FD000F0F5
:101300002BF82068016821F05F0101602068016806
:10131000626811430160207F012802D006E00125A8
:1013200018E020680168226A114301602168A06802
:1013300008612168E06808622168206948622168C4
:10134000606988622168A069C8620020A0620120EB
:1013500084F82400284670BD08B500680B4988420F
:1013600012D10B48816C41F480218164806C002291
:1013700000F48020009005215D2000F069FDBDE8AB
:1013800008405D2000F056BD08BD000000C00240CE
:10139000001002402DE9F04FDFF8209200230126D3
:1013A0000325A9F1040B85B00F2709F1040AABF15D
:1013B000040EFBE006FA03FC12EA0C027ED00C7964
:1013C00004F00304012C01D0022C20D18468009485
:1013D0005C0005FA04F80494009C24EA08040094D4
:1013E000D1F80C80049C08FA04F8009C48EA040830
:1013F000C0F80880446824EA0C0491F804C0CCF3D7
:10140000001C0CFA03FC4CEA040CC0F804C00C7974
:10141000E443A4070ED0C4684FEA430805FA08FC69
:1014200024EA0C04D1F808C00CFA08FC4CEA040CBD
:10143000C0F80CC00C7904F00304022C15D1DC08B0
:1014400000EB84040294246A4FEA437C4FEADC6890
:1014500007FA08FC24EA0C04D1F810C00CFA08FCC6
:101460004CEA040C029CC4F820C004684FEA43080C
:1014700005FA08FC24EA0C0491F804C00CF0030CF3
:101480000CFA08FC4CEA040CC0F800C04C6814F4D8
:10149000403F13D04A4CD4F860C04CF0010CC4F863
:1014A00060C0246E23F0030C04F001040094454C4A
:1014B00064440294A4684FEA837C00E075E04FEA3C
:1014C0001C7807FA08FC24EA0C04B0F1904F06D00F
:1014D000DFF8F4C0604505D14FF0010C2EE04FF06D
:1014E000000C2BE0DFF8E4C0604502D14FF0020CA5
:1014F00024E0DFF8DCC0604502D14FF0030C1DE0B2
:10150000DFF8D0C0604502D14FF0040C16E0DFF8E0
:10151000C8C0604502D14FF0050C0FE0DFF8BCC039
:10152000604502D14FF0060C08E0DFF8B4C060451A
:1015300002D14FF0070C01E04FF0080C0CFA08FC48
:101540004CEA040C029CC4F808C0D9F80040CC4610
:10155000D1F8048094435FEAC82800D51443CCF83E
:101560000040DAF80040D446D1F8048094435FEAA2
:10157000882800D51443CCF80040DBF80040DC4656
:10158000D1F8048094435FEA883800D51443CCF83E
:101590000040DEF80040F446D1F8048094435FEA4E
:1015A000C83800D51443CCF800405B1C0A6832FAF6
:1015B00003F47FF4FFAE05B000F014B80804014056
:1015C00000100240000001400004004800080048EC
:1015D000000C0048001000480014004800180048A3
:1015E000001C004830BCBDE8C08F0AB18161704763
:1015F0008162704701488068704700000800002041
:1016000090F84120202A24D190F84020012A20D0AF
:10161000012280F84020242280F8412002681368CB
:1016200023F0010313600268136823F480531360EE
:10163000026813680B43136001680A6842F00102F4
:101640000A60202180F84110002180F840100846EF
:1016500070470220704790F84120202A22D190F84C
:101660004020012A1ED0012280F84020242280F848
:1016700041200268136823F00103136002681368B5
:1016800023F4706343EA0121116001680A6842F0A3
:1016900001020A60202180F84110002180F84010EA
:1016A00008467047022070477047704730B403689F
:1016B0009A691968D243D40509D4CC43240606D4C8
:1016C000446C44F0010444644FF48074DC615305BD
:1016D0000AD4CB431B0607D4436C43F0080343648E
:1016E00004684FF48063E36192050AD4C943090694
:1016F00007D4416C41F00201416402684FF400716B
:10170000D161416C11F00B0F02D030BC02F070BD02
:1017100030BC7047026891691268436B002B00D09F
:10172000184770477047000070B5040004D094F863
:101730004100002510B106E0012070BD84F8405042
:10174000204600F0FBF8242084F84100206801685E
:1017500021F0010101606068216820F0706008617B
:101760002068816821F400418160E0680128A06858
:1017700030D040F4044021688860E0680228206886
:1017800041682AD021F40061416020684168144A10
:10179000114341602068C16821F40041C160D4E96F
:1017A00004010843A16940EA01202168C860D4E926
:1017B00007010843216808602068016841F00101C1
:1017C00001606564202084F84100256384F842505C
:1017D000002070BD40F40040CDE741F40061D3E744
:1017E00000800002704700002DE9FF4F81B00446E1
:1017F00090F84100DDF838B01F46904620287BD194
:1018000094F84000012877D0012084F84000FFF7C9
:10181000F1FE0646012200901923D103204602F072
:10182000FEFF002853D1212084F84100102084F8C5
:10183000420000256564C4F8248067856563608D77
:101840003A49FF274FF080794FF0007AFF2802D9FC
:1018500027854B4605E0608D208500045346000C2B
:1018600010D0226898F800009062606A401C6062A4
:10187000608D401E6085208D401E2085401CC2B2B8
:10188000009101E0002200912046029902F09AFFA7
:1018900014E000BF03F02BF8C8B9606A2168007833
:1018A0008862606A401C6062608D401E6085208D89
:1018B000401E80B22085618D01B160B1608D3246DD
:1018C000002859462046E5D102F0E6FFE0B10120AC
:1018D00005B000F02FB85B4600228021204600961C
:1018E00002F09DFF0028F2D1608DFF2805D92785E1
:1018F0003A464B460095C7E716E0608D2085009577
:1019000094F828205346BFE721682020C861216849
:101910004A68074B1A404A6084F8410084F84250F4
:1019200084F840500020D3E70220D1E70020008057
:1019300000E800FE30BCBDE8C08F000030B5ADB09F
:101940000446142126A8FEF7BAFF98216846FEF740
:10195000B6FF1F492068884238D1402000250090FA
:101960001595684600F0D6FE08B1FFF7DCFA194C71
:10197000E06C40F00200E064E06C26A900F0020098
:101980002B904FF4407026901220CDE927050320BC
:10199000299004202A901048FFF7FCFCA06D40F429
:1019A0000010A065A06D002200F400102B9005210E
:1019B0001F2000F04DFA1F2000F03CFA0022052104
:1019C000202000F045FA202000F034FA2DB030BD80
:1019D0000054004000100240000400487047704767
:1019E0000248816802781144816070470800002035
:1019F00010B50024032000F04BFA0F2000F008F887
:101A000008B1012401E000F0E7F9204610BD000014
:101A100030B505461C4887B0016E41F4006101668F
:101A2000006E06A900F40060009001A801F07EF9A4
:101A300001F0AEF91549164AB0FBF1F11548491EFF
:101A40000260416040F2E7320021C0E90321816079
:101A5000816101F095FE040012D10E4801F0F2FE02
:101A600004000DD1192000F0E5F9102D07D2002255
:101A70002946192000F0ECF90748056000E0012430
:101A800007B0204630BD00000010024040420F0069
:101A9000002C01401CC704200C0000202DE9F0415F
:101AA000044690F8A00016460F4601281DD00125D7
:101AB00084F8A050022084F8A10006EB860000EB19
:101AC000C60004EB800034223830FEF7BEFE3246FA
:101AD0003946204602F044FF2068456284F8A15050
:101AE000002084F8A000BDE8F0810220FBE77047E9
:101AF0002DE9F04104460068856B466B69074FF09D
:101B000004084FF0000715D5710713D5416B21F07C
:101B1000040141632168C1F83C80D4F8A41041F06D
:101B20000101C4F8A41084F8A18084F8A0702046B4
:101B3000FFF7DDFFA80716D5B00714D52068416B65
:101B400021F00201416321680220C863D4F8A40097
:101B500040F00200C4F8A40084F8A18084F8A070CA
:101B60002046FFF7C4FF05EA0600C0074FF0010852
:101B70000ED02068416B21F0010141632168C1F85A
:101B80003C8084F8A18084F8A070204600F073F8AF
:101B9000280710D530070ED52068416B21F00801C9
:101BA000416321680820C86384F8A18084F8A0708C
:101BB000204600F00FF9BDE8F08170B5040004D0B4
:101BC00094F8A100002510B106E0012070BD84F852
:101BD000A050204600F052F8022084F8A1002068AE
:101BE000816921F070418161D4E901010843D4E9A0
:101BF00003121143084321688A6910438861A08A4F
:101C0000A16941EA004120688160A08B216A41EA14
:101C100000412068C160A08CA16A41EA00412068AF
:101C20000161A08D216B41EA00412068416194F877
:101C300035002168030294F83600CA6A02F07F4238
:101C4000CA622168CA6A94F8346043EA00403243A9
:101C50000243CA622068416B41F00601416320687B
:101C6000816941F001018161C4F8A450012084F828
:101C7000A100002070BD04F0C1BF0000F0B5ADB000
:101C80000446142126A8FEF71AFE98216846FEF79E
:101C900016FE4A49206888427ED100244FF4800015
:101CA0002394009003200890012009901B20022516
:101CB000CDE90A050420CDE90C5080050E90684658
:101CC00000F028FD08B1FFF72EF93D48016E41F004
:101CD00080610166016E01F080612B91C16C41F061
:101CE0002001C164C16C01F020012B91C16C41F055
:101CF0001001C164C16C01F010012B91C16C41F065
:101D00000801C164C16C01F008012B91C16C41F064
:101D10004001C164C06C00F040002B9000F096FCC4
:101D20004FF400602690CDE927540920CDE92940E1
:101D3000244F26A93846FFF72DFB4FF4704026901C
:101D4000CDE927540B26CDE9294626A93846FFF7C9
:101D500021FB4FF683702690CDE92754CDE9294623
:101D600026A91948FFF716FB4DF60B702690CDE912
:101D70002754CDE9294626A91448FFF70BFB4FF459
:101D8000C0402690CDE92754CDE9294626A9104820
:101D9000FFF700FB002200E00EE005215B2000F0D1
:101DA00057F85B2000F046F8002205215C2000F087
:101DB0004FF85C2000F03EF82DB0F0BD0068014007
:101DC000001002400014004800100048000C0048B9
:101DD00000180048704700003EB5002414480094E5
:101DE0000194016E41F001010166016E01F00101F3
:101DF0000291816D41F080518165806D224600F035
:101E0000805002900F21A01E00F022F80022052130
:101E1000512000F01DF8512000F00CF80E20CDE903
:101E20000004684600F02EFC00F06CFC3EBD000093
:101E300000100240002809DB00F01F020121914040
:101E40004009800000F1E020C0F800117047000058
:101E5000F0B40E4B1B680C46C3F30223C3F1070515
:101E6000042D00D90425191D072901D2002300E003
:101E7000DB1E012606FA05F1491E214099409E40CD
:101E8000761E16403143F0BC11F075BB0CED00E03E
:101E9000064900F0070208684FF6FF03184040EAC1
:101EA0000220034A10430860704700000CED00E078
:101EB0000000FA052DE9F04F0C4683460168A6485C
:101EC0004FF000098BB04E46814202D1002501201F
:101ED00001E00125002082460027E84607EB870144
:101EE0007F1C08EB8101F8B203F0B4F820B10820A0
:101EF0004FF00109CBF84800FFB2022FEED3B9F141
:101F0000000F7DD1944A1068C00705D0106820F0FA
:101F10000100106046F00106DFF840B2DBF8000077
:101F2000C00707D0DBF8001021F00101CBF800104A
:101F300046F0020605EB850C08EB8C03C646996853
:101F40008F0087490F44D7F8008C28F48078C7F8B1
:101F5000008C5EF82C70012067B301EB8707D7F87F
:101F600000CC2CF0010CC7F800CC5F683FB101EB4E
:101F70008707D7F800CC2CF0100CC7F800CCD3F8AA
:101F80000CC0BCF1000F09D020EA0C0701EB870759
:101F9000D7F804CC2CF4803CC7F804CC1F694FB1AF
:101FA00020EA070301EB8303D3F8047C27F0807752
:101FB000C3F8047C0AEB8A03F2465EF823E0D4F807
:101FC00000C0F4451BD00AEB8307D4F808C0D7F84B
:101FD0000880C44513D0D4F804C0D7F80480C445A1
:101FE00002D1BCF1000F0AD1D4F80CC0D7F80C8094
:101FF000C44504D0D4F810C03F69BC4536D100E0D8
:10200000A6E001EB8E07D7F800CC2CF0010CC7F846
:1020100000CC0AEB83035F683FB101EB8707D7F879
:1020200000CC2CF0100CC7F800CC9F6801EB8707A0
:10203000D7F800CC2CF4807CC7F800CCDF684FB117
:1020400020EA070C01EB8C07D7F804CC2CF4803C79
:10205000C7F804CC1F694FB120EA070301EB8303E3
:10206000D3F8047C27F08077C3F8047CA36801EBE5
:102070008303D3F8007C27F4407747EA452747F4E9
:102080008077C3F8007C236801EB8303D3F8007CDE
:1020900000EB450C27F0030747EA0C07C3F8007C68
:1020A00063685BB101EB8303D3F8007C27F0300752
:1020B00047EA451747F01007C3F8007CE368DF03E1
:1020C0000CD520EA030701EB8703D3F8047C27F43F
:1020D000E02747EA854747F480370CE06BB120EAF8
:1020E000030701EB8703D3F8047C27F0E06747EA96
:1020F000856747F08077C3F8047C2369DC030BD540
:10210000984301EB8000D0F8041C21F4E02141EA5F
:10211000854141F440310BE063B1984301EB80000D
:10212000D0F8041C21F0E06141EA856141F0407182
:10213000C0F8041CF00703D0106840F001001060E4
:10214000B00705D5DBF8001041F00101CBF8001015
:102150000BB0484600F006B8001000A0001400A024
:102160000010065030BCBDE8C08F70477047704704
:10217000704700002DE9F0410446006800F1500668
:10218000026A0368616C55071FD55D031DD51829C8
:1021900002D0282904D00CE0606B0078307002E097
:1021A0003078616B0870606B401C6063E06B401EB0
:1021B000E063E06B20B92068016821F480210160B0
:1021C0002046FFF7D5FFBDE8F08197074FF00205E5
:1021D00041D59F033FD5282910D045622068026869
:1021E00022F4E02202606564182924D0082926D050
:1021F000B1F5807FE7D1A06C28B328E0E16B61B135
:1022000012F47C5F09D03078616B0870606B401C01
:102210006063E06B401EE063D5E7E16B0029D2D13B
:1022200045622068016821F4E02101606564204670
:1022300000F0AAF9C7E7204600F0A9F9C3E7204655
:10224000FFF794FFBFE72046FFF78FFFBBE720466D
:10225000FFF78DFFB7E7110710D519030ED5082139
:10226000416220680168490204D5016821F4102107
:1022700001606564204600F088F9A4E7D1071BD00F
:10228000D90319D5012141622068016821F4F811B0
:102290000160A5642068016849070BD5016821F039
:1022A00004010160216C09488863206CFEF7A0FFDF
:1022B000002888D06564CAE7D10684D5D90282D5C2
:1022C00010214162204600F061F97CE721510008AD
:1022D000F8B504460025FFF78DF9064624B1002025
:1022E000A064606C10B161E001255FE0204600F061
:1022F00065F841F28830E064216BE0682D4A0843BC
:10230000218A636902EB01426FF0FF0101EB0323B5
:102310001A431043E269104322689368264D2B400C
:1023200018439060A08D2268000410612068026844
:10233000636822F4F85201EB03210A430260E06C67
:102340000090334600222021204602F00AFF0500BB
:102350002CD12068C168226A21F0FF01521E11436E
:10236000C16020680168A26821F04001114301604A
:10237000D4E9090108432168D1F8082122F0A042DC
:102380001043C1F808012068016841F001010160B3
:10239000A069022804D12068816841F002018160AF
:1023A000E068B0F1806F03D0022060642846F8BD79
:1023B0000120FAE70000FFFFF4F8E0F82DE9F04310
:1023C000ADB00446142126A8FEF779FA9821684694
:1023D000FEF775FA654A20681103654F0226DFF89B
:1023E00094910025644C4FF00308904269D16846EF
:1023F0002495009100F08EF908B1FEF794FD38683D
:10240000401C3860012807D1E06C40F48010E06483
:10241000E06C00F480102B90206D40F480702065FB
:10242000206D00F480702B90E06C40F02000E064A0
:10243000E06C00F020002B90E06C40F00400E064C1
:10244000E06C00F004002B90E06C40F00100E064D0
:10245000E06C444600F001002B904FF47070CDE921
:102460002606CDE928540A2726A9C8462A974846B1
:10247000FEF790FF4FF48060CDE92606CDE92854A1
:1024800026A92A944046FEF785FF1E20CDE92606A0
:10249000CDE9285426A92A973848FEF77BFF042067
:1024A000CDE92606CDE9285426A92A974FF0904079
:1024B000FEF770FF002205214720FFF7C9FC4720E7
:1024C0004EE02F4A90424DD168462495009100F08D
:1024D00021F908B1FEF727FD3868401C3860012853
:1024E00007D1E06C40F48010E064E06C00F48010F0
:1024F0002B90206D40F400702065206D00F400707A
:102500002B90E06C40F02000E064E06C00F02000D4
:102510002B90E06C40F04000E064E06C00F0400084
:102520002B9000F093F81F20CDE92606CDE928581E
:102530000527444626A92A974846FEF72BFF41F275
:102540000360CDE92606CDE9285426A92A970D482F
:10255000FEF720FF002205214C20FFF779FC4C20DC
:10256000FFF768FC2DB0BDE8F0830000001000A06C
:102570000400002000140048001002400008004839
:10258000001400A00018004870477047704770475B
:102590002B492C4B0A6832214A432B4940B1B0F5F4
:1025A000007F086829D020F4C06040F480602CE0EF
:1025B0000868C0F34120022804D051F8800F20F4AD
:1025C000807022E0D1F8800020F48070C1F8800093
:1025D000086820F4C06040F400700860B2FBF3F0BB
:1025E000401C00E0401E4A69520501D50028F9D17F
:1025F000486940050AD503207047C0F341200228EE
:1026000006D051F8800F40F48070086000207047B9
:10261000D1F8800040F48070C1F88000086820F490
:10262000C06040F400700860B2FBF3F0401C00E0B2
:10263000401E4A695205DBD50028F9D1D8E70000D1
:102640001400002040420F00007000400248416822
:1026500041F4007141607047007000400848016813
:10266000C1F34121022906D0D0F88000C00505D56C
:102670004FF4007070474FF480607047002070473F
:102680000070004030B51D494A68036822F00E0210
:102690001A434A601A490A6822F480320A600C1F01
:1026A000226822F480322260154A0832136823F42B
:1026B000803313600B1D1D6825F480351D6045684F
:1026C000ED0303D5256845F4803525604468A403EF
:1026D00003D50C6844F480340C600179C90703D039
:1026E000196841F4803119600079800703D51068BA
:1026F00040F480301060002030BD000000700040C9
:10270000040401400248416841F001014160704702
:10271000007000402DE9F84F044600260088FB4D6C
:102720003746010504F1200B1ED5E06E40280AD083
:1027300003DC68B1202804D10FE0602821D0802874
:102740001FD001260FE0E86840F48030E86018E010
:102750000021201D02F02AFD03E00021584602F06E
:10276000B9FD06000DD037462088C0042BD5206F58
:10277000B0F5007F16D00DDCC8B1B0F5807F0FD169
:102780001AE0D5F89C00E16E20F0E0000843C5F89F
:102790009C00E9E7B0F5407F13D0B0F5806F10D012
:1027A00001260FE0E86840F48030E86009E000218D
:1027B000201D02F0FBFC03E00021584602F08AFDD8
:1027C0000646F6B137462068800360D5A86D4FF005
:1027D0000008C00009D4A86D40F08050A865A86D1D
:1027E0004FF0010800F080500090DFF824A3DAF8E1
:1027F000001041F48071CAF80010FEF7FBFE81461C
:102800000EE0D5F89C00216F20F4E0600843C5F885
:102810009C00D8E7FEF7EEFEA0EB090002282DD8B9
:10282000DAF80000C005F5D54EBBD5F8900010F4DD
:10283000407015D0D4F89410814211D0D5F8900092
:10284000D5F8901020F4407041F48031C5F8901014
:10285000D5F8901021F48031C5F89010C5F890009B
:10286000C0077DD0FEF7C6FE814641F2883AACE053
:10287000FEF7C0FEA0EB0901514572D90326374689
:10288000B8F1000F03D0A86D20F08050A865207823
:10289000C00707D0D5F88800E16B20F0030008439B
:1028A000C5F888002078800707D5D5F88800216C06
:1028B00020F00C000843C5F888002078400707D5B1
:1028C000D5F88800616C20F030000843C5F8880016
:1028D0002078000707D5D5F88800A16C20F0C0004B
:1028E0000843C5F888002078C00607D5D5F88800C9
:1028F000E16C20F440700843C5F888002078800619
:1029000007D5D5F88800216D20F440600843C5F84C
:1029100088002088800507D5D5F88800616E20F4EE
:1029200040200843C5F888002088400507D5D5F821
:102930008800A16E20F440100843C5F88800207874
:10294000400607D5D5F88800616D20F44050084353
:10295000C5F88800207800060AD5D5F8880001E07F
:1029600038E032E0A16D20F440400843C5F888000B
:102970002088C00507D5D5F88800E16D20F44030E7
:102980000843C5F888002068C00207D5D5F89C0028
:10299000216E20F003000843C5F89C0020884FF00A
:1029A000006880044FF0806927D5D5F88800616FF2
:1029B00020F040600843C5F88800606F404513D19F
:1029C000E86840F48010E86017E0D5F890008007D0
:1029D0007FF54EAFD5F89000D4F8941020F44070F5
:1029E0000843C5F890004BE7484506D10121201D5A
:1029F00002F0DCFB060000D00746206800032ED55D
:102A0000A06F4FF480418842D5F89C0004D140F477
:102A10008040C5F89C000BE020F48040C5F89C0085
:102A2000D5F88800A26F20F040601043C5F88800F8
:102A3000A06F404503D1E86840F4801004E088426C
:102A400004D1E86840F48030E86008E0484506D1E9
:102A50000121201D02F0AAFB060000D007462068D5
:102A6000400318D5D5F88800E16F20F04060084396
:102A7000C5F88800E06F404504D1E86840F4801054
:102A8000E86008E0484506D10121201D02F08EFBD8
:102A9000060000D007462088400414D5D5F88800E9
:102AA000D4F8801020F040500843C5F88800D4F8CE
:102AB0008000B0F1805F06D10221201D02F076FB7C
:102AC000060000D007462068C00308D5D5F89C0052
:102AD000D4F8841020F004000843C5F89C00206856
:102AE000800208D5D5F89C00D4F8881020F0180092
:102AF0000843C5F89C002068400227D5286820F0CC
:102B000080502860FEF776FD80460BE00010024002
:102B100000700040FEF76EFDA0EB0800022801D90E
:102B2000032612E028688000F4D476B9D5F89C001A
:102B3000D4F88C1020F440300843C5F89C000221E2
:102B4000584602F0C7FB060000D037462068C00197
:102B500010D5D5F89C0054F8901F20F4401008437D
:102B6000C5F89C002068B0F5001F03D1E86840F468
:102B70008010E860384600F000B818BCBDE8E08F6F
:102B8000704700002DE9F0470E4605004FF00007A2
:102B90007ED0DFF87081D8F8000000F00F00B0425E
:102BA0000CD2D8F8001021F00F013143C8F8001002
:102BB000D8F8000000F00F00B0427CD12878524CC9
:102BC00080070AD5A868A16801F0F001884204D9FD
:102BD000A16821F0F0010143A1602878C00749D025
:102BE0006868DFF82891032810D0022814D0002844
:102BF000206814D0400500285DDA00F0DBF8484575
:102C000016D9A06810F0F00F0BD011E020688001F9
:102C100051D502F0F3FBF2E720688003EBE7800771
:102C2000E9E7A06820F0F00040F08000A060802775
:102C3000A068696820F003000843A060FEF7DAFC92
:102C4000814641F2883A08E0FEF7D4FCA0EB090186
:102C5000514502D90320BDE8F087A068696800F0FB
:102C60000C00B0EB810FEFD1802F03D1A06820F0D2
:102C7000F000A060287880070CD5A868A16801F052
:102C8000F001884206D2A16821F0F001014300E082
:102C900011E0A160D8F80010404601F00F01B142E8
:102CA0000BD9016821F00F0131430160006800F089
:102CB0000F00B04201D00120CDE72878400705D5AC
:102CC000A068E96820F4E0600843A0602878000765
:102CD00006D5A068296920F4605040EAC100A060D0
:102CE00000F068F8A1680A4AC1F30311515C01F0D1
:102CF0001F01C8400749086007480068BDE8F04761
:102D0000FEF786BE002002400010024000B4C4045A
:102D1000B4640108140000200C000020024801687F
:102D200041F4002101607047001002400F22026050
:102D30000C4A936803F003034360936803F0F003C5
:102D40008360936803F4E063C36092684FF4E063C8
:102D500003EAD20202610448006800F00F00086034
:102D6000704700000010024000200240054806495C
:102D700000688968054AC1F30221515C01F01F0116
:102D8000C84070471400002000100240F46401089D
:102D90000548064900688968054AC1F3C221515CAB
:102DA00001F01F01C84070471400002000100240CD
:102DB000F464010870B52549002318468A68CC6878
:102DC00012F00C0204F00306214C4FEA640509D00E
:102DD0000C2A05D0042A32D0082A00D1284670BD1A
:102DE000012E10D10B681B0704D4D1F89430C3F323
:102DF000032302E00B68C3F30313164E56F8233087
:102E0000DAB10C2AEBD1C86800F00300022818D010
:102E1000032818D01846CA68CB68C2F30312C3F35C
:102E200006234343521CB3FBF2F2C868C0F341606F
:102E3000401C4000B2FBF0F070BD184670BD20464B
:102E400070BD2046E7E72846E5E700000010024095
:102E50000024F400C464010810B5044CE069C00506
:102E600003D5FFF78DFEA015206210BD00100240B3
:102E70002DE9F84304006FD0FA4DA86800F00C0665
:102E8000E86800F003072078C00664D576B10C2E00
:102E900001D1012F0AD0A069002828687AD040F01B
:102EA00001002860FEF7A6FB80465DE028688007E9
:102EB00002D5A0690028DED0216A2868000703D562
:102EC000286800F0F00004E0D5F89400F02202EA4F
:102ED0001010814216D9084602F0C8FA00283BD1EA
:102EE000286840F0080028602868216A20F0F00077
:102EF000084328606868E16920F47F4040EA0120C7
:102F0000686016E0286840F0080028602868216A98
:102F100020F0F000084328606868E16920F47F40F1
:102F200040EA0120686026B9206A02F09FFA002872
:102F3000D5D1FFF73FFFA968CB4AC1F30311515C1C
:102F400001F01F01C840C9490860C9480068FEF780
:102F50005FFD00287ED12EE0CAE000BFFEF74AFBED
:102F6000A0EB0800022876D828688007F6D52868E4
:102F700040F0080028602868216A20F0F00008432B
:102F800028606868E16920F47F4040EA01206860B9
:102F900011E0FFE720F001002860FEF72BFB8046E0
:102FA00006E000BFFEF726FBA0EB08000228DAD8F7
:102FB00028688007F6D42078C00740D0082E18D0A3
:102FC0000C2E01D1032F14D06068B0F5803F17D0CC
:102FD000B0F5A02F286817D020F48030286028682A
:102FE00020F4802028606068E0B1FEF703FB804693
:102FF00014E02868800322D56068002878D01EE09D
:10300000286840F48030EDE740F480202860F7E73E
:10301000FEF7F0FAA0EB08006428A4D82868800323
:10302000F6D50CE0FEF7E6FA804605E0FEF7E2FA98
:10303000A0EB0800642896D828688003F6D420788E
:1030400080073BD5042E11D00C2E01D1022F0DD0BC
:10305000E06801E0AEE1FFE0002828681ED040F4FF
:1030600080702860FEF7C6FA07460CE02868400525
:103070000CD5E0680028C1D008E000BFFEF7BAFA1E
:10308000C01B022893D828684005F7D56868217CC2
:1030900020F0FE4040EA016068600FE020F480709C
:1030A0002860FEF7A7FA074605E000BFFEF7A2FA80
:1030B000C01B0228B1D828684005F7D42078000743
:1030C00029D560690028D5F8940012D040F001009D
:1030D000C5F89400FEF78EFA074604E0FEF78AFA78
:1030E000C01B022899D8D5F894008007F6D512E0C5
:1030F0002BE120F00100C5F89400FEF77BFA0746AB
:1031000005E000BFFEF776FAC01B022885D8D5F887
:1031100094008007F6D42078400766D5A86D002774
:10312000C00008D4A86D40F08050A865A86D0127A4
:1031300000F0805000904F480168C90512D4016822
:10314000814641F480710160FEF754FA804605E043
:10315000FEF750FAA0EB080002287DD8D9F800004D
:10316000C005F5D5A068012816D00528D5F890002F
:1031700017D020F00100C5F89000D5F8900020F09D
:10318000040000BFC5F89000A06841F28839C0B1C2
:10319000FEF730FA80460FE0D5F8900040F00100CD
:1031A000F0E740F00400C5F89000F5E7FEF722FADA
:1031B000A0EB080149454FD8D5F890008007F5D518
:1031C0000EE0FEF717FA804606E000BFFEF712FA9F
:1031D000A0EB080149453FD8D5F890008007F5D409
:1031E0001FB1A86D20F08050A8652078800628D5F2
:1031F000606A0028D5F8980012D040F00100C5F8A8
:103200009800FEF7F7F9074605E000BFFEF7F2F970
:10321000C01B022820D8D5F898008007F6D510E00A
:1032200020F00100C5F89800FEF7E4F9074604E035
:10323000FEF7E0F9C01B02280ED8D5F898008007E9
:10324000F6D4A06AF0B3022816D00C2E7DD02868E0
:1032500020F08070286000E0ABE0FEF7CBF9044678
:10326000AAE0000000100240B4640108140000202D
:103270000C00002000700040E868E26A00F00301E2
:10328000914228D1216B00F0F002090110399142DE
:1032900021D1626B00F4FE41B1EB022F1BD194F8F7
:1032A000382000F07841B1EBC26F14D1A18F00F447
:1032B000C00249084905A1F5001191420BD194F8CB
:1032C000401000E06EE04908490600F0C060A1F13E
:1032D000007181424FD00C2E77D02868400174D401
:1032E0002868C00071D4286820F080702860FEF73C
:1032F00081F9064605E000BFFEF77CF9801B022835
:1033000057D828688001F7D4F4E90B016FF00F0259
:1033100002EB01110843218A5204490802EB415192
:10332000A26841EA02210843217D4FF07E4249080C
:1033300002EB41610843217B40EAC160E968244A0D
:1033400011400843E860286800E03EE040F08070EB
:103350002860E86840F08070E860FEF74BF90446AA
:1033600005E000BFFEF746F9001B022821D82868B7
:103370008001F7D527E02868800124D4286840F030
:1033800080702860E86840F08070E860FEF732F9ED
:10339000044604E0FEF72EF9001B022809D828682D
:1033A0008001F7D50FE000BFFEF724F9001B0228CB
:1033B00002D90320BDE8F88328688001F4D4E868C6
:1033C00004490840E8600020F4E70120F2E700002B
:1033D0000C809D01FCFFEEFE2DE9F0411D461646D6
:1033E0000F46040003D0D4F8880018B108E001208B
:1033F000BDE8F081002084F88400204600F084FDC0
:103400002420C4F888002068016821F001010160CF
:10341000A06A10B1204602F07DFC204602F068FD53
:103420000128E5D02068816841F4804181602068EE
:10343000816821F4004139438160700540EA05410B
:1034400020680268064B1A400A430260206801683F
:1034500041F0010101602046BDE8F04102F0BEBC30
:10346000FFFF00FC704702F0A3B870B50446006887
:10347000856906687220B0431CD1E843810707D5EF
:10348000010605D5410603D5810601D5C00611D434
:10349000A16C3220884304D0A16C1220884305D04F
:1034A00008E02946204602F0D3F903E029462046E9
:1034B00002F0E6F87420B0431CD1E843410707D579
:1034C000010605D5410603D5810601D5C00611D4F4
:1034D000A16C4220884304D0A16C2220884305D0EF
:1034E00008E02946204602F0B3F903E029462046C9
:1034F00002F0C6F8F043010703D5810601D5C006E6
:103500000FD4E843010703D5810601D5C00608D4CE
:10351000A06C000705D529462046BDE8704002F0A2
:1035200097B970BD10B501680A6842F480020A605C
:1035300002684FF40051D161802102F00FF80020A1
:1035400010BD704770B5040003D0A06C002510B109
:1035500006E0012070BD84F84450204600F06AF86F
:103560000220A0642068016821F001010160606808
:10357000216820F0706008612068416921F40041F1
:1035800041612068416921F0004141612168206B5F
:1035900048612068816821F400418160E06830B1B1
:1035A0002169012907D040F404402168886020691E
:1035B000022803D006E040F40040F6E721684FF40B
:1035C0000060486020684168174A11434160D4E9AF
:1035D00005010843E16940EA01202168C860D4E997
:1035E00008010843D4E90A1211430843A1680843BB
:1035F00021680860A06AB0F5000F09D1E06A10B137
:10360000B0F5001F04D12068016841F480310160E9
:103610002068016841F001010160E5640120206437
:10362000A064002070BD0000008000027047704759
:103630007047000030B5ADB00446142126A8FDF750
:103640003EF998216846FDF73AF9204920688842FA
:103650003AD180150025009017956846FFF75AF873
:1036600008B1FDF760FC1A4CE06C40F04000E064EB
:10367000E06C00F040002B90FEF7E8FF4FF4E070A4
:1036800026901220CDE927050320299004202A90B6
:1036900026A91048FDF77EFEA06D40F40000A0654D
:1036A000A06D002200F400002B9005214820FEF7B9
:1036B000CFFB4820FEF7BEFB002205214920FEF784
:1036C000C7FB4920FEF7B6FB2DB030BD005C0040C3
:1036D000001002400018004870477047704770475C
:1036E00070470000F0B590F83C20012A39D0012441
:1036F00080F83C40022280F83D20026853689568BB
:10370000194E1A4FB24201D0BA4204D123F4700CC0
:103710004B6843EA0C0323F0700C0B6843EA0C037C
:1037200053600268B24210D0B2F1804F0DD0104BFE
:103730009A420AD00F4B9A4207D00F4B9A4204D0BC
:10374000BA4202D00D4B9A4204D1896825F0800319
:103750001943916080F83D40002180F83C100846F4
:10376000F0BD0220F0BD0000002C014000340140FB
:103770000004004000080040000C004000400140F0
:1037800010B5040003D094F83D0010B107E001200B
:1037900010BD002084F83C00204600F023F80220F1
:1037A00084F83D00211D206802F0F4F9012084F81E
:1037B000480084F83E0084F83F0084F8400084F814
:1037C000410084F8420084F8430084F8440084F8FF
:1037D000450084F8460084F8470084F83D00002046
:1037E00010BD000008B501681448B1F1804F14D035
:1037F000134A914220D1816D41F002018165806DB3
:10380000002200F00200009005211D20FEF720FBA1
:103810001D20BDE80840FEF70DBB816D41F00101A0
:103820008165806D002200F00100009005211C20C0
:10383000FEF70EFB1C20ECE708BD00000010024064
:103840000004004090F83D10012901D0012070478C
:10385000022180F83D100168CA6842F00102CA6086
:1038600000681149884211D0B0F1804F0ED00F4945
:1038700088420BD00E49884208D00E49884205D0B4
:103880000D49884202D00D49884207D181680C4A0F
:103890001140062906D0B1F5803F03D0016841F000
:1038A0000101016000207047002C0140000400402D
:1038B00000080040000C004000340140004001407E
:1038C0000700010070B5044690F83C00002501286F
:1038D00017D0012684F83C60022084F83D0022685D
:1038E00090682F4B184020F47F4090600868502863
:1038F00038D00DDC20284FD005DC90B3102811D132
:103900004AE0022070BD302846D040280AD13BE072
:1039100060282FD070280DD0B0F5805F03D0B0F5AF
:10392000005F12D0012584F83D60002084F83C003F
:10393000284670BDCB68D1E90121206802F092F9D8
:103940002068816841F0770109E0CB68D1E9012165
:10395000206802F087F92068816841F48041816025
:10396000E1E719E0CA684968206802F08DF9502142
:10397000206806E0CA684968206802F096F960216C
:10398000206802F079F9CEE7CA684968206802F039
:103990007BF940212068F4E7226801461046F0E7F1
:1039A00088FFFEFF70472DE9F04104460068C668B5
:1039B00005694FF00007A90713D5B10711D5F91E06
:1039C000016101202077206880698007204602D0AD
:1039D000FFF7E8FF04E000F08BF8204600F089F8DC
:1039E0002777680716D5700714D521686FF0040093
:1039F0000861022020772068806910F4407F20460B
:103A000002D0FFF7CFFF04E000F072F8204600F08C
:103A100070F82777280715D5300713D521686FF080
:103A200008000861042020772068C06980072046CC
:103A300002D0FFF7B7FF04E000F05AF8204600F08C
:103A400058F82777E80616D5F00614D521686FF0E8
:103A500010000861082020772068C06910F4407FBA
:103A6000204602D0FFF79EFF04E000F041F8204618
:103A700000F03FF82777E80708D0F00706D0216864
:103A80006FF001000861204600F034F8280601D4E8
:103A9000A80408D5300606D521686FF402500861E5
:103AA0002046FFF71CFEE80508D5300606D521683C
:103AB0006FF4807008612046FFF710FE680608D595
:103AC000700606D521686FF040000861204600F0BE
:103AD0001BF8A8060AD5B00608D521686FF02000AB
:103AE00008612046BDE8F041FFF7FABDBDE8F0816E
:103AF0007047704700680349884201D1FDF770BFE5
:103B000070470000002C0140704790F88410012994
:103B100018D0012180F884102421C0F88810016891
:103B20000A680B6823F001030B6022F000510022A9
:103B30004266036819602021C0F8881080F884204C
:103B400010467047022070477047704770B50446B2
:103B500090F8840001281DD0012084F884002420DE
:103B6000C4F8880020680568026822F0010202603B
:103B70002068826822F060620A438260204602F078
:103B8000A7F8206805602020C4F88800002084F889
:103B9000840070BD022070BD70B5044690F88400AA
:103BA00001281DD0012084F884002420C4F8880056
:103BB00020680568026822F00102026020688268BD
:103BC00022F060420A438260204602F081F82068B9
:103BD00005602020C4F88800002084F8840070BDAF
:103BE000022070BD70477047704700002DE9F0411A
:103BF00003680446D86919689A6840F60F05284298
:103C00004FF000054FF002060AD187067ED501F07D
:103C1000200702F0805C57EA0C0777D0616F42E121
:103C2000B64FDFF8DCC2174001EA0C0C57EA0C0C67
:103C30006CD05FEAC07C0CD05FEAC15C09D54FF064
:103C4000010CC3F820C0D4F8903043F00103C4F84D
:103C50009030830709D5D30707D023681E62D4F8B4
:103C6000903043F00403C4F8903043070AD5D307DB
:103C700008D0266804233362D4F8903043F002035E
:103C8000C4F8903003070CD501F020033B4308D063
:103C9000266808233362D4F8903043F00803C4F850
:103CA000903003050BD54B0109D526684FF400630E
:103CB0003362D4F8903043F02003C4F89030D4F845
:103CC0009030002B3DD0800609D501F0200002F095
:103CD0008051084303D0616F09B120468847D4F86A
:103CE000900021688968490602D410F0280F2AD074
:103CF000204602F0D3F82068806840061ED5206870
:103D0000083050E8001F21F0400100E021E040E8C9
:103D10000012002AF3D1D4F8800078B17949816388
:103D2000D4F88000FDF764FA00280AD0D4F88000A7
:103D3000816B00E02046BDE8F04108472046FFF7D0
:103D400053FFBDE8F0812046FFF74EFFC4F89050C6
:103D5000F7E7D4F86CC02027BCF1010F7ED15FEAF1
:103D6000C06C7BD55FEAC16C78D5102018622068E2
:103D70008068400651D5D4F880100A685068000465
:103D8000000C3ED0B4F85C3083423AD9A4F85E000F
:103D90000868006880062CD4216851E8000F20F4E0
:103DA000807041E80002002AF6D12068083050E80F
:103DB000001F21F0010140E80012002AF5D120681F
:103DC000083050E8001F21F0400140E80012002AAE
:103DD000F5D1C4F88C70E566216851E8000F20F039
:103DE000100041E80002002AF6D1D4F88000FDF767
:103DF000C9F92667B4F85C00B4F85E10401A81B2C5
:103E000007E0B4F85C1081429BD11068800698D519
:103E100026672046FFF798FE93E7B4F85C00B4F8F5
:103E20005E10401A81B2B4F85E00002889D00029E3
:103E300087D0226852E8000F20F4907042E8000317
:103E4000002BF6D12D4BDB432068083050E8002FC3
:103E50001A4040E8002CBCF1000F00E00EE0F3D166
:103E6000C4F88C70E5666567206850E8002F22F082
:103E7000100240E80023002BF6D1C9E7C60209D59D
:103E8000560207D54FF4801018622046BDE8F04175
:103E9000FFF7A9BE03060AD501F0800302F4000271
:103EA000134304D0A16F00297FF444AF49E74206D1
:103EB00011D54A060FD52046016851E8002F22F09F
:103EC000400241E80023002BF6D1C0F888708567D6
:103ED00000F0B9F835E7020206D54A0004D52046BD
:103EE000BDE8F041FFF77EBEC00195D5002993DA09
:103EF0002046BDE8F041FFF728BE00000100001099
:103F000020010004895E000810B5ACB004461421FD
:103F100026A8FCF7D4FC98216846FCF7D0FC1C4985
:103F20002068884231D1022401200F940090684615
:103F3000FEF7F0FB08B1FCF7F6FF1648016E41F4FE
:103F400080410166016E01F480412B91C16C41F00A
:103F50000101C164C06C26A900F001002B904FF450
:103F6000B050CDE926040020289003202990072096
:103F70002A904FF09040FDF70DFA002205212520F0
:103F8000FDF766FF2520FDF755FF2CB010BD0000A2
:103F900000380140001002402DE9F8430446D0F8F3
:103FA0008800984616460D46202802D00220BDE81B
:103FB000F883A5B19EB10020C4F890002120C4F878
:103FC00088001834FDF716FBA6878146E68754F86B
:103FD000100C2027183CB0F5805F02D003E00120D0
:103FE000E5E7206910B12E46002510E000260EE01E
:103FF0008021204602F0C8F8C0B9DEB116F8010BE6
:1040000021680885B4F85600401EA4F85600B4F89C
:1040100056004B464FF00002CDF800800028E7D153
:104020004FF04001204602F0AFF840B1C4F888706C
:104030000320BCE735F8020BC0F30800E0E7C4F842
:1040400088700020B3E7704710B504000FD000F06F
:1040500011F8E068216840F080000860616820691C
:104060000843A168084321684860002010BD012072
:1040700010BD000008B500680649884208D106480E
:10408000816D41F400618165806D00F400600090F5
:1040900008BD0000002C004000100240FEE70000B8
:1040A0000148FDF703BB0000F0C304200148FDF701
:1040B00031BB0000F0C304200148FFF7D4B9000071
:1040C00044C404200148FFF7D0B9000044C40420D0
:1040D000806A0021826B02B19163C26B02B191636D
:1040E00000F088BB10B50022CC074FF0280306D0A3
:1040F00090F84140422233EA040400D0F2228C07B7
:1041000007D590F8414042F04402A34301D042F069
:10411000B0020B0401D542F0B802102904D02029C6
:1041200005D0402906D007E042F0900204E042F0BA
:10413000200201E042F04002006801689143016002
:1041400010BD01688A69D243920701D400228A62B5
:1041500000688169C943C90703D0816941F0010141
:10416000816170472DE9F041044690F84100282113
:10417000814320684FF000054FF0080304D0C3616D
:1041800084F84050BDE8F0818169C1F3004781693E
:10419000FE2202EA11468168C1F30902C168D4F81F
:1041A0000CE001F0FE014FF4004CBEF1020F17D1FC
:1041B0004FF0060E06F006060EEAD21E76450ED128
:1041C000A16C491CA164A16C0229DBD1A564C36167
:1041D00084F8405039462046FDF767FAD2E70E468C
:1041E00061462046FFF77EFF84F840503246F1E7F3
:1041F00070B5044690F84100002584F84250404ACA
:10420000E2626585626C0A436264282833D02928FB
:1042100031D02A282FD048F203012046FFF762FF51
:104220002046FFF78EFF94F84100602813D020212C
:1042300084F8411020688269D24392060BD48269C7
:10424000D243D20605D41022C261606C40F0040053
:1042500060642068C1616563206B2A4EA16B19B14F
:10426000112812D0212810D0E16BE9B3122824D0F4
:10427000222822D03EE003212046FFF733FF2820EA
:1042800084F8410020486063E6E72068016849043B
:1042900003D5016821F480410160A06BFCF7E0FFC9
:1042A000012827D0A06B866384F84050A06BFCF7F0
:1042B0009FFF002823D0A06B18E020680168090444
:1042C00003D5016821F400410160E06BFCF7C8FFF1
:1042D00001280FD0E06B866384F84050E06BFCF758
:1042E00087FF00280BD000E004E0E06B816BBDE8A5
:1042F000704008472046BDE8704000F07BBA70BDB2
:104300000000FFFFD1400008AD46000870B504462C
:104310001648E06200252563202084F8410084F8D7
:104320004250C8436563400711D42068406A616AFF
:104330000870606A401C6062208D40B1401E20857C
:10434000608D401E6085606C40F00400606448F23F
:1043500003012046FFF7C6FE21681020C86184F8DB
:1043600040502046FDF73EFA70BD00000000FFFF00
:104370002DE9F04702680446D2F80080C56A0E466F
:1043800090F841002027D7614FF00009212808D07C
:10439000292806D022280BD02A2809D028280ED078
:1043A00014E048F201012046FFF79CFE21200CE0BA
:1043B00048F202012046FFF795FE222005E048F270
:1043C00003012046FFF78EFE4846206320684168BF
:1043D00041F40041416020684168524A1140416007
:1043E0002046FFF7AEFE6FEA0801480406D42068B5
:1043F000026822F480420260A06B07E0080409D43E
:104400002068026822F400420260E06B10B100688C
:1044100040686085F04340070FD4206826F004060A
:10442000406A626A1070606A401C6062208D20B130
:10443000401E2085608D401E6085608D18B1606CC7
:1044400040F004006064F043DFF8DC80C00632D442
:10445000C80630D4618D102051B12168C861606CEC
:1044600040F00400606415B3B5F1807F1FD022E0F6
:1044700094F84110282902D1B5F1007F04D094F8B6
:104480004110292905D00FE031462046FFF73EFFB5
:1044900011E0454508D02168C8612046FFF751FE6C
:1044A000204600F043F806E02168C86103E0616C33
:1044B0002046FFF79DFE4D4684F84290C4F83490A4
:1044C000606C68B1616C2046FFF792FE94F8410081
:1044D000282815D131462046BDE8F047FFF716BF22
:1044E000E06A4646B0420DD0204600F01FF8E66272
:1044F00084F84170256384F840502046FDF772F936
:10450000BDE8F08794F8410084F8417022282563C3
:1045100084F84050204602D0FDF761FAF0E7FDF73D
:104520005DFAEDE700E800FE0000FFFF70B504460D
:1045300000680168002584F84250C9434A0403D446
:10454000016821F4804104E0090403D4016821F4E6
:104550000041016094F841102820292911D094F8D5
:1045600041102A290CD184F8410022202063022125
:104570002046FFF7B7FD84F840502046FDF72EFA9D
:1045800070BD84F841002120206301212046FFF7FF
:10459000A9FD84F840502046FDF721FA70BD0000C7
:1045A0002DE9F047044600688946002681693546B2
:1045B0001746C9064FF0200841D51021C1612FE0F0
:1045C000B9F1FF3F2CD0FDF715F8C11B494502D8C2
:1045D000B9F1000F24D12068416894F8422001F419
:1045E00080418369DB431B0415D4B1F5804F12D0A1
:1045F000202A10D0416841F480414160FCF7FAFF65
:10460000074608E0FCF7F6FFC01B192803D945F060
:104610002005012604E020688069C0438006F1D4AB
:1046200020688069C043800602D5002EC8D003E010
:1046300016B92168C1F81C8045F0040501262168DF
:104640008869C20505D54FF4807245F00105CA613D
:104650000126410509D522684FF4806145F008051F
:10466000D1610126800502D40AE0800507D52168C2
:104670004FF4007045F00205C861012600E086B1E4
:104680002046FFF75EFD54F8240B4168064A1140AE
:104690004160206A2843206284F81D800020A077B2
:1046A00020773046BDE8F08700E800FE2DE9F041B4
:1046B0000446C06A94F84030012B0DD0012384F8E1
:1046C0004030CB439D066FEA020208D4950606D41B
:1046D0002046FFF74DFE6FE00220BDE8F081384D27
:1046E000DF064FF080762DD4D7062BD4638D1022B1
:1046F0006BB12168CA61616C41F00401616408B169
:10470000B04259D1616C2046FFF772FD54E094F835
:104710004130282B02D1B0F1007F04D094F8411031
:10472000292904D00BE02046FFF7F0FD44E0A84221
:1047300005D02068C2612046FFF703FD39E02068FC
:10474000C26139E05F0715D4570713D4618D61B199
:104750002168496A626A1170616A491C6162218D2F
:10476000491E2185618D491E6185618D21BBA8424D
:104770001FD121E01D0705D4150703D42046FFF7FC
:10478000F1FC19E0990717D4910715D4618D69B12F
:10479000606A216800788862606A401C6062608D8F
:1047A000401E6085208D401E208505E0B04200D06F
:1047B00010B92046FFF7BAFE002084F840008CE7CD
:1047C0000000FFFF10B5C1F3090141EA0241026890
:1047D000029C19432143506821F000414FF480634B
:1047E00003EA5453024C234398430843506010BDDE
:1047F000FF63FF0310B590F841200021602A05D027
:10480000016380F84010FCF78DFF10BD202280F876
:104810004120016380F84010FCF746FF10BD2DE9F0
:10482000F0411D4617460E460446DDF8188027E085
:10483000424629462046FFF7B3FE10B10120BDE8ED
:10484000F081681C1CD0FCF7D5FEA0EB0800A84244
:1048500000D8ADB92068806936EA00000ED000208B
:10486000B8420DD154F8440F40F0200044F8040938
:10487000202060700020A0702070DFE70120EFE7AB
:104880002068806936EA000004D00020B842CFD00A
:104890000020D4E70120F9E770B516460D4604461E
:1048A0001EE0324629462046FFF77AFE08B1012075
:1048B00070BDFCF79FFE801BA84200D885B9206818
:1048C0008069C04380060BD554F8440F40F02000A7
:1048D00044F80409202060700020A0702070E6E7F2
:1048E00020688069C0438006DBD4002070BD70B5AD
:1048F00016460D46044620E0324629462046FFF77C
:104900004FFE08B1012070BD681C16D0FCF772FE86
:10491000801BA84200D885B920688069C043800701
:104920000BD554F8440F40F0200044F8040920202F
:1049300060700020A0702070E4E720688069C043A8
:104940008007D9D4002070BD0148FDF7D1B8000020
:1049500094C404200148FDF7CBB8000094C404209F
:10496000F0B503688C88DD68C5F30B452C4425043D
:10497000882404EBC2141E5906F0F0261E51036869
:104980000F68DE68C6F30B46761C3E442E431E516C
:1049900003688C89DD68C5F30A052C4425048C2442
:1049A00004EBC2141E5906F0F0261E5103688F68EE
:1049B000DE68C6F30A06761C3E442E431E5194233D
:1049C000046803EBC213E55825F00705E5500568B8
:1049D0000C69EC5091F831300C7E1E0291F83230A7
:1049E00091F830501B04354343EA04631D439C2473
:1049F000036804EBC2141D519823046803EBC2132F
:104A0000E55825F0FF05E55005684C69EC50A023FA
:104A1000046803EBC213E55840F20776B543E5504E
:104A2000D1E907452C430568EC50AC25046805EB3B
:104A3000C2154B6A63510B698BB3012B32D0042B27
:104A400032D0022B30D0032B2ED0072B2CD00123B9
:104A5000B024056804EBC2142E5906F0E0262E514E
:104A6000D1E90065AD1B0E8D5D435E43ED1C45EA4B
:104A7000064305682B51B423046803EBC213E558C1
:104A80006FF30A05E5500468C96AE15000688421A3
:104A900001EBC211425842F001024250F0BDFFE763
:104AA0000423D5E70323D3E70223D1E70A4810B54F
:104AB0000849016000210171417141618161012159
:104AC0000162FCF763FA002803D0BDE81040FCF750
:104AD0002ABA10BD0030024040C30420104810B56F
:104AE0000E490160002141608160C1608161C16146
:104AF000016441648164C16401654165FCF7EEFABB
:104B000008B1FCF710FA01210548FCF78DFA0028DE
:104B100003D0BDE81040FCF706BA10BD00B002405B
:104B200064C3042010B5044A002104480FF050FB70
:104B30000349086010BD000068640108C15A0008FC
:104B4000000000200C4810B50A49016000214160B6
:104B50008160C160016141618161012101771D2195
:104B60000162FCF7C7FB002803D0BDE81040FCF74A
:104B7000DAB910BD00C00240C4C304202DE9F041E1
:104B800086B014216846FBF79AFE384CE06C40F082
:104B90002000E064E06C00F020000590E06C40F044
:104BA0008000E064E06C00F080000590E06C40F074
:104BB0000400E064E06C00F004000590E06C40F05C
:104BC0000100E064E06C00F001000590E06C40F052
:104BD0004000E064E06C00F040000590E06C40F0C4
:104BE0001000E064E06C00F010000590E06C40F014
:104BF0000800E064E06C00F008000590FDF726FD79
:104C0000E06C40F00200E064E06C194F00F002003C
:104C10004FF400540590002221463846FCF7E5FC8D
:104C2000A6104FF09048002231464046FCF7DDFCCC
:104C30000125CDE9004500240294694638460394D5
:104C4000FCF7A8FB0096CDE9015469464046039461
:104C5000FCF7A0FB802000900320CDE90104694609
:104C60000448FCF797FB06B0BDE8F0810010024055
:104C7000000C004800040048134810B511490160B9
:104C80001249416000210122C0E902120161416123
:104C90008161C1610162FCF747FD08B1FCF743F98E
:104CA00000210948FCF7ACFC08B1FCF73CF90021F5
:104CB0000548FCF7D0FC002803D0BDE81040FCF705
:104CC00032B910BD00540040F0C304209769900031
:104CD000134810B5114901601249416000210222B8
:104CE000C0E902120122C0E904218161C1610162AF
:104CF00041628162C16248F249110163FEF722FC00
:104D000008B1FCF710F90648FEF70CFC002803D0A8
:104D1000BDE81040FCF707B910BD0000005C004082
:104D200044C404209769900030B58DB034216846A2
:104D3000FBF7C5FD264825490024C0E9001484601E
:104D40000721C460C0E90441032181610E210525CA
:104D5000C0E9071540F28E21416240F2E5118162FF
:104D60004FF42571C16240F2E711016380F83440CD
:104D700080F8354080F83640FCF71FFF08B1FCF79B
:104D8000D2F84FF42070CDE900404FF4F070CDE937
:104D90000240FF20CDE904404FF48060CDE9064099
:104DA000CDE908548DF830408DF831400A940B94C9
:104DB0008DF83240002269460548FCF76FFE002856
:104DC00001D0FCF7B0F80DB030BD00000068014024
:104DD00094C4042010B586B014216846FBF76FFD1B
:104DE000174816490124C0E900144021816000F1F0
:104DF0000C030021202283E816008161C0E907141A
:104E000041628162C16208210163FDF761FA08B164
:104E1000FCF789F84FF00110CDE9024009480490F1
:104E2000009441F2883269460548FDF743F80028AE
:104E300001D0FCF778F806B010BD0000001000A00B
:104E40003CC504200100000100B585B0142168466E
:104E5000FBF735FD164815490122C0E90012402133
:104E6000816000212023C0E90313C0E90521C0E9C6
:104E7000071241628162C16208210163FDF728FACD
:104E800008B1FCF750F80220009002900948039006
:104E90000948049041F2883269460548FDF70AF84E
:104EA000002801D0FCF73FF805B000BD001400A0B9
:104EB0008CC50420020001000200000110B588B07A
:104EC00000241648009401940294039404940594D9
:104ED0004FF080410694C0E90014611EC0E9024110
:104EE00004618461FEF74CFC08B1FCF71CF84FF438
:104EF0008050009069460948FEF7E4FC08B1FCF7D1
:104F000012F8049404A905480694FEF7EBFB002868
:104F100001D0FCF708F808B010BD0000DCC5042083
:104F200010B588B0002417480094019402940394AB
:104F30000494059412490694C0E900144FF6FF71D9
:104F4000C0E9024104618461FEF71AFC08B1FBF775
:104F5000EAFF4FF48050009069460A48FEF7B2FC21
:104F600008B1FBF7E0FF049404A906480694FEF795
:104F7000B9FB002801D0FBF7D6FF08B010BD000038
:104F80000004004028C6042010B50FF0C3FDBDE8A2
:104F900010400FF0C1BD7047194810B517490160A6
:104FA0004FF4E1314160002181600C22C160C0E911
:104FB00004128161C1610162416281620B460A464D
:104FC0004166FEF709FA08B1FBF7ADFF00210C4876
:104FD000FEF7E2FD08B1FBF7A6FF00210848FEF747
:104FE000B5FD08B1FBF79FFF0548FEF78EFD0028D1
:104FF00003D0BDE81040FBF796BF10BD003801405C
:1050000074C604200A4810B50849016000214022F6
:10501000C0E90112C0E90321FFF716F8002803D008
:10502000BDE81040FBF77FBF10BD0000002C004022
:1050300008C70420FEE7FDF70FFFFEE70148FDF774
:1050400099B800003CC504200148FDF793B8000062
:105050008CC50420F0B50024234658B1022809D895
:1050600041B100220A604A608A60CA600A6102286F
:1050700002D002E001244CE0274B284D002000BF65
:1050800005EB8002D2F8042CD60707D002F0020606
:1050900003F00207BE4201D1461C0E60D60607D5BA
:1050A00002F0200603F02007BE4201D1461C4E60EC
:1050B000D60507D502F4007603F40077BE4201D18D
:1050C000461C8E60D6030FD502F4802603F4802799
:1050D000BE4209D1960300F1010602D446F480369F
:1050E00001E046F08076CE60D6010FD502F08066F2
:1050F00003F08067BE4209D1920100F1010202D49F
:1051000042F4803201E042F080720A61401C0228C1
:10511000B6D32046F0BD0000220204040010065061
:1051200010B5806A0021C163426C0221B2F5807F14
:1051300003D04164FDF71BF810BD0268136A9B069B
:105140000BD5516201680A6842F400320A600068B7
:10515000016841F00201016010BD4164FDF705F8EE
:1051600010BD2DE9F041984616460F460446069DAF
:1051700008E0681C06D0FCF73DFAA0EB0800A84246
:105180000AD84DB12068006A384000D00120B042F2
:10519000EFD10020BDE8F0814FF400706064A06C96
:1051A00040F00100A0640120F4E700002DE9F04187
:1051B000434C05468846E06800268107286806D0EB
:1051C000E16801F0030181420FD170B11AE00128BA
:1051D00004D0022805D0032807D108E021688907F8
:1051E00001E021684905002907DB012664E0216808
:1051F000890302D421684903F5E7E16821F003013E
:105200000143E160206820F080602060FCF7F2F943
:10521000074604E0FCF7EEF9C01B022843D82068DB
:105220000001F7D46FF00F00B8F1000F1BD0B8F1F8
:10523000010F24D0297D4908420502EB4161AA688B
:1052400041EA02216A6800EB0210014320691D4A0D
:10525000104001432161206840F080602060FCF72D
:10526000C9F9074621E0A9682A7B090241EAC2611F
:105270006A6800EB021001432069134AE8E7298AB3
:10528000124A490802EB4151AA6841EA02216A68C0
:1052900000EB0210014320690D4AD9E7FCF7AAF997
:1052A000C01B022801D9032606E020680001F5D5BD
:1052B0002069A969084320613046BDE8F0810000FB
:1052C000001002400F80FFF90F80FF070000E0FF91
:1052D0000F809FFF2DE9F041434C05468846E0686A
:1052E00000268107286806D0E16801F003018142A9
:1052F0000FD170B11AE0012804D0022805D003288C
:1053000007D108E02168890701E0216849050029E3
:1053100007DB012664E02168890302D42168490380
:10532000F5E7E16821F003010143E160206820F026
:1053300080502060FCF75EF9074604E0FCF75AF95C
:10534000C01B022843D820688000F7D46FF00F00FC
:10535000B8F1000F1BD0B8F1010F24D0297D490806
:10536000420502EB4161AA6841EA02216A6800EB4A
:105370000210014360691D4A1040014361612068C9
:1053800040F080502060FCF735F9074621E0A9681D
:105390002A7B090241EAC2616A6800EB02100143FC
:1053A0006069134AE8E7298A124A490802EB415129
:1053B000AA6841EA02216A6800EB021001436069B1
:1053C0000D4AD9E7FCF716F9C01B022801D90326BC
:1053D00006E020688000F5D56069A969084360612E
:1053E0003046BDE8F0810000001002400F80FFF958
:1053F0000F80FF070000E0FF0F809FFF1748C16884
:1054000001F0030101291AD0022914D0032914D074
:105410000021C268C368C2F30312C3F306234B43DF
:10542000521CB3FBF2F1C068C0F34160401C400065
:10543000B1FBF0F070470A49EBE70A49E9E7016878
:10544000090704D4D0F89410C1F3032102E00168E5
:10545000C1F30311044A52F82110DAE700100240A8
:105460000024F40000127A00C4640108F8B51A4D53
:1054700006460024A86DC00002D5FDF7EFF80DE048
:10548000A86D40F08050A865A86D00F08050009095
:10549000FDF7E4F8A96D21F08051A965B0F5007F12
:1054A00003D0802E06D3022407E0802E05D9A02E3B
:1054B000F9D801E0702E00D101240848016821F0DC
:1054C0000F0121430160006800F00F00A04201D0ED
:1054D0000120F8BD0020F8BD00100240002002406D
:1054E00010B5836C0022012B02D10C0600D580225E
:1054F000F22400688C430FD1046842F04202640237
:105500004FEA037404D4002C06DB42F0800201E071
:10551000002C01DB42F03002D4248C430FD104680C
:1055200042F0440264024FEA037304D4002B06DB0A
:1055300042F0800201E0002B01DB42F03002C1F3B7
:10554000C201072906D1016842F03802490201D49C
:1055500042F0800201689143016010BD00220B06F9
:1055600000D58022C1F3C203072B01D142F0B8025B
:10557000F2238B4301D142F0F202D4238B4301D1B9
:1055800042F0F4020068016811430160704701684D
:105590008A69D243920701D400228A620068816935
:1055A000C943C90703D0816941F001018161704796
:1055B00010B50268044691691068CB0508D503064A
:1055C00006D5E36C43F00103E3644FF48073D361C9
:1055D0004A0509D5020607D5E26C42F00802E264EA
:1055E00023684FF48062DA618A0509D5020607D57F
:1055F000E26C42F00202E26423684FF40072DA6166
:10560000CA0409D5020607D5E26C42F02002E26422
:1056100023684FF48052DA618A0409D5020607D55F
:10562000E26C42F04002E26423684FF40052DA6117
:10563000090509D5000607D5E06C40F08000E0645C
:1056400021684FF40060C861E06C10B12046FFF79C
:105650009EFFE06C002811D004280FD040060AD429
:10566000A06C3221814302D04221814303D1012029
:1056700020640820A0642046FDF763FF10BD0000F1
:105680002DE9F843044690F84400012817D001257D
:10569000CF4384F84450F8064FF0000612D4216836
:1056A0001020C861E06C40F00400E0642046FFF781
:1056B0006EFF84F844602046FDF743FFC1E00220FE
:1056C000BDE8F883B80646D42046FFF771FFA06C0A
:1056D000DFF878914FF02008122803D0A06C222820
:1056E0001BD0AEE0F2212046FFF7FAFE2168C1F898
:1056F0001C802068416801EA090141602068016856
:1057000021F0010101602564A56484F844602068EB
:10571000016841F00101016083E078070DD4206841
:10572000406A616B0870606B401C6063208F20B121
:10573000401E2087608F401E6087D4212046FFF7DF
:10574000CFFE2168C1F81C802068416801EA090188
:10575000416025646FE0780704D42068406A616B7B
:10576000087005E0B80707D4606B2168007888628C
:10577000606B401C606329E0380638D4608F08B144
:10578000208F10B1608F40B35BE020684068C0F3A9
:105790000901608FFF280CD90096E06BFF2200F012
:1057A000806040F08073204600F074F9FF2020876D
:1057B00047E0608F20870096E36B94F838202046FE
:1057C00000F068F92068406840013AD5208F401EFB
:1057D0002087608F401E608733E0208F68B130E003
:1057E000A06C122814D0A06C22281ED029E07806C4
:1057F00027D4608F28BB606B20B12068406880018F
:10580000EED51EE02068416841F48041416018E017
:10581000F2212046FFF764FEA06C2064A56484F8A2
:1058200044602046FDF704FF0BE0D4212046FFF73B
:1058300057FEA06C2064A56484F844602046FDF700
:10584000F6FE84F8446000203AE7000000E800FE1D
:10585000F8B5044690F84400012828D00127CE432B
:1058600084F84470F0064FF0000528D4618F1020B2
:1058700000292168C8611CD0A06C2064A06C20F0B5
:105880003200A064A06C20F04200A064F621204603
:10589000FFF726FEE06C40F00400E0642046FFF7CE
:1058A00076FE84F844502046FDF74BFEB3E002201C
:1058B000F8BD2046FFF76BFE84F84450ABE030079C
:1058C00010D4206881698269C1F300410368C2F382
:1058D000464223F00803036084F844502046FDF755
:1058E000C1FD98E0700701D5300672D4A16C42204A
:1058F000884304D0A16C322088433FD08BE02068DD
:10590000406A616B0870606B401C6063208F401EB2
:105910002087608F401E6087608F012812D0608FC3
:10592000E0B10095E06B012200F0806040F08073F0
:105930000021204600F0AEF82068416821F40041C3
:10594000416068E0E06B20F08070E0630095E36BFD
:1059500001220021204600F09DF85CE0D421204681
:10596000FFF7BEFDA06C2064A06C20F04200A06494
:1059700084F844502046FDF7AFFE4CE0608F30B312
:10598000208F20BB608FFF280DD90095E06BFF2290
:1059900000F0806040F080730021204600F07AF82B
:1059A000FF20208737E0608F20870095E36B94F815
:1059B00038200021204600F06DF820684068400142
:1059C00029D5208F401E2087608F401E608722E0EF
:1059D000FFE7B0071FD4608F60B1606B216800786B
:1059E0008862606B401C6063608F401E6087208F00
:1059F000401E2087608F70B9F2212046FFF770FDAE
:105A0000A06C2064A06C20F03200A06484F84450A4
:105A10002046FDF762FEB00635D4A06C000732D5F3
:105A200020688169C94349070CD4406A616B0870DA
:105A3000606B401C6063208F20B1401E2087608F08
:105A4000401E6087F6212046FFF74AFD3821204698
:105A5000FFF746FD2068416841F40041416020683D
:105A600041680B4A1140416021682020C8612168CB
:105A70000820C861E563A06C2064A76484F84450E2
:105A80002046FDF7D3FD84F844500020F8BD000007
:105A900000E800FEF0B50568059C68684FF4806674
:105AA000064FC1F3090106EA545641EA02413E435A
:105AB0001943B043214308436860F0BDFF63FF070B
:105AC00001200EF043FAFBE710B54FF0E02000692B
:105AD0000FF0F2FF012803D0BDE810400FF066BBC5
