:020000040800F2
:10000000D81600203D030008831D0008AD19000824
:10001000811D0008A70400085D2100080000000001
:100020000000000000000000000000005D02000869
:10003000A904000800000000B9020008C52000085B
:100040005703000857030008570300085703000828
:100050005703000857030008570300085703000818
:100060005703000857030008570300085703000808
:1000700057030008570300085703000857030008F8
:1000800057030008570300085703000857030008E8
:1000900057030008570300085703000857030008D8
:1000A00057030008570300085703000857030008C8
:1000B00057030008570300085703000857030008B8
:1000C00057030008570300085703000857030008A8
:1000D0005703000857030008570300085703000898
:1000E0005703000857030008570300085703000888
:1000F00057030008570300085703000800000000DA
:100100005703000857030008570300085703000867
:100110005703000857030008570300085703000857
:100120005703000857030008570300085703000847
:100130005703000857030008570300085703000837
:100140005703000857030008570300085703000827
:100150005703000857030008570300085703000817
:100160005703000857030008570300085703000807
:1001700057030008570300080000000000000000BB
:1001800057030008570300085703000857030008E7
:10019000570300085703000800000000000000009B
:1001A000000000000000000057030008570300088B
:1001B00057030008570300085703000800F002F82F
:1001C00000F03CF80AA090E8000C82448344AAF1B5
:1001D0000107DA4501D100F031F8AFF2090EBAE8B3
:1001E0000F0013F0010F18BFFB1A43F0010318476B
:1001F000202B0000402B0000103A24BF78C878C1A3
:10020000FAD8520724BF30C830C144BF04680C601C
:10021000704700000023002400250026103A28BF64
:1002200078C1FBD8520728BF30C148BF0B60704768
:100230001FB502F033FD1FBD10B510BD00F0FAF878
:100240001146FFF7F5FF01F09AFF00F018F903B42B
:10025000FFF7F2FF03BC00F01FF900002C4B1968F8
:10026000086800F05AB880F30988BFF36F8F4FF029
:10027000000080F311887047000000000848006803
:10028000006880F308884FF0000080F3148862B69D
:1002900061B6BFF34F8FBFF36F8F00DF00BF00BFAA
:1002A00008ED00E0DFF80C00016841F47001016026
:1002B000704700BF88ED00E0EFF30980BFF36F8F58
:1002C000134B1A681EF0100F08BF20ED108A20E9AA
:1002D000F04F106009B44FF0500080F31188BFF365
:1002E0004F8FBFF36F8F02F0E9FA4FF0000080F3F9
:1002F000118809BC1968086800F014B81EF0100FC6
:1003000008BF00F014B880F30988BFF36F8F7047FF
:1003100014000020EFF30580704730C8B0E8C04FEC
:10032000FFF7A1BF30C8B0E8C04FFFF7E7BFB0ECA0
:10033000088AB0EC08CAFFF7E6BF0000094880470A
:1003400009480047FEE7FEE7FEE7FEE7FEE7FEE7B7
:10035000FEE7FEE7FEE7FEE704480549054A064BCF
:10036000704700004D210008BD010008D810002092
:10037000D8160020D8120020D812002010B5203A3C
:10038000C0F00B80B1E81850203AA0E81850B1E84E
:100390001850A0E81850BFF4F5AF5FEA027C24BF04
:1003A000B1E81850A0E8185044BF18C918C0BDE8FB
:1003B00010405FEA827C24BF51F8043B40F8043BC4
:1003C00008BF7047D20728BF31F8023B48BF11F879
:1003D000012B28BF20F8023B48BF00F8012B7047D3
:1003E0004FF0000200B5134694469646203922BFCE
:1003F000A0E80C50A0E80C50B1F12001BFF4F7AF19
:10040000090728BFA0E80C5048BF0CC05DF804EBFA
:10041000890028BF40F8042B08BF704748BF20F868
:10042000022B11F0804F18BF00F8012B7047704766
:1004300070477047754600F02BF8AE4605006946D8
:10044000534620F00700854618B020B5FFF784FF1B
:10045000BDE820404FF000064FF000074FF00008C5
:100460004FF0000B21F00701AC46ACE8C009ACE846
:10047000C009ACE8C009ACE8C0098D46704710B5AA
:100480000446AFF300802046BDE81040FFF7DFBE12
:10049000004870477410002001491820ABBEFEE7E9
:1004A000260002007047FEE7704772B6FEE70000C4
:1004B0002DE9F04FDFF82092002301260325A9F152
:1004C000040B85B00F2709F1040AABF1040EFBE021
:1004D00006FA03FC12EA0C027ED00C7904F0030445
:1004E000012C01D0022C20D1846800945C0005FA14
:1004F00004F80494009C24EA08040094D1F80C80C9
:10050000049C08FA04F8009C48EA0408C0F8088033
:10051000446824EA0C0491F804C0CCF3001C0CFAE3
:1005200003FC4CEA040CC0F804C00C79E443A407B3
:100530000ED0C4684FEA430805FA08FC24EA0C040C
:10054000D1F808C00CFA08FC4CEA040CC0F80CC046
:100550000C7904F00304022C15D1DC0800EB8404B0
:100560000294246A4FEA437C4FEADC6807FA08FCED
:1005700024EA0C04D1F810C00CFA08FC4CEA040C74
:10058000029CC4F820C004684FEA430805FA08FC3E
:1005900024EA0C0491F804C00CF0030C0CFA08FCDB
:1005A0004CEA040CC0F800C04C6814F4403F13D06F
:1005B0004A4CD4F860C04CF0010CC4F860C0246E02
:1005C00023F0030C04F001040094454C64440294AD
:1005D000A4684FEA837C00E075E04FEA1C7807FAD4
:1005E00008FC24EA0C04B0F1904F06D0DFF8F4C008
:1005F000604505D14FF0010C2EE04FF0000C2BE0D0
:10060000DFF8E4C0604502D14FF0020C24E0DFF8CF
:10061000DCC0604502D14FF0030C1DE0DFF8D0C014
:10062000604502D14FF0040C16E0DFF8C8C0604509
:1006300002D14FF0050C0FE0DFF8BCC0604502D1DD
:100640004FF0060C08E0DFF8B4C0604502D14FF06F
:10065000070C01E04FF0080C0CFA08FC4CEA040C03
:10066000029CC4F808C0D9F80040CC46D1F80480F8
:1006700094435FEAC82800D51443CCF80040DAF868
:100680000040D446D1F8048094435FEA882800D51E
:100690001443CCF80040DBF80040DC46D1F804807D
:1006A00094435FEA883800D51443CCF80040DEF864
:1006B0000040F446D1F8048094435FEAC83800D57E
:1006C0001443CCF800405B1C0A6832FA03F47FF450
:1006D000FFAE05B000F014B808040140001002405D
:1006E000000001400004004800080048000C0048D9
:1006F000001000480014004800180048001C004882
:1007000030BCBDE8C08F0000014880687047000021
:100710000400002090F84120202A24D190F84020A5
:10072000012A20D0012280F84020242280F8412094
:100730000268136823F0010313600268136823F44E
:1007400080531360026813680B43136001680A68E2
:1007500042F001020A60202180F84110002180F857
:100760004010084670470220704790F84120202A28
:1007700022D190F84020012A1ED0012280F840208A
:10078000242280F841200268136823F001031360DB
:100790000268136823F4706343EA01211160016861
:1007A0000A6842F001020A60202180F8411000210D
:1007B00080F840100846704702207047074908B586
:1007C0000A6E42F001020A66096E01F00101009111
:1007D00003494A6802434A6008BD00000010024015
:1007E0000000014070B5040004D094F841000025D9
:1007F00010B106E0012070BD84F84050204600F0A2
:100800004FF8242084F841002068016821F001019C
:1008100001606068216820F070600861206881686C
:1008200021F400418160E0680128A06830D040F4E4
:10083000044021688860E0680228206841682AD066
:1008400021F40061416020684168144A114341600D
:100850002068C16821F40041C160D4E90401084363
:10086000A16940EA01202168C860D4E90701084372
:10087000216808602068016841F001010160656439
:10088000202084F84100256384F84250002070BD88
:1008900040F40040CDE741F40061D3E7008000025E
:1008A00030B5ADB00446142126A8FFF799FD982174
:1008B0006846FFF795FD17492068884228D14020F7
:1008C000002500901595684600F03EFA08B1FFF744
:1008D000ECFD114CE06C40F00200E064E06C26A9F5
:1008E00000F002002B904FF4407026901220CDE9CA
:1008F00027050320299004202A900848FFF7D8FDF7
:10090000A06D40F40010A065A06D00F400102B90C5
:100910002DB030BD005400400010024000040048DB
:100920000248816802781144816070470400002009
:1009300010B50024032000F07BF90F2000F008F828
:1009400008B1012401E000F039F9204610BD000093
:1009500070B50E4E05460024307898B14FF47A7188
:10096000B1FBF0F00A490968B1FBF0F001F00AF8B8
:1009700040B9102D06D200222946501E00F038F949
:10098000756000E00124204670BD000004000020D6
:10099000100000202DE9F041044690F8A000164612
:1009A0000F4601281DD0012584F8A050022084F8AC
:1009B000A10006EB860000EBC60004EB80003422A9
:1009C0003830FFF7DBFC32463946204600F0EFFFB7
:1009D0002068456284F8A150002084F8A000BDE89A
:1009E000F0810220FBE770B5040004D094F8A10068
:1009F000002510B106E0012070BD84F8A05020460B
:100A000000F050F8022084F8A1002068816921F0EC
:100A100070418161D4E901010843D4E90312114313
:100A2000084321688A6910438861A08AA16941EA64
:100A3000004120688160A08B216A41EA0041206862
:100A4000C160A08CA16A41EA004120680161A08DCB
:100A5000216B41EA00412068416194F8350021682A
:100A6000030294F83600CA6A02F07F42CA62216823
:100A7000CA6A94F8346043EA004032430243CA62CF
:100A80002068416B41F0060141632068816941F0B3
:100A900001018161C4F8A450012084F8A100002064
:100AA00070BD000070B5ACB00446142126A8FFF755
:100AB00097FC98216846FFF793FC3A4920688842E2
:100AC0006DD100244FF480002394009003200890FF
:100AD0000120099010200225CDE90A050820CDE962
:100AE0000C5040050E90684600F02EF908B1FFF753
:100AF000DCFC2D48016E41F080610166016E01F061
:100B000080612B91C16C41F01001C164C16C01F096
:100B100010012B91C16C41F00201C164C16C01F064
:100B200002012B91C16C41F02001C164C16C01F044
:100B300020012B91C16C41F00801C164C06C0B26EF
:100B400000F008002B904FF6FF702690CDE9275457
:100B5000CDE9294626A91548FFF7AAFC04202690CE
:100B6000CDE92754CDE9294626A91148FFF7A0FC75
:100B70004FF400602690CDE927540920CDE92940A3
:100B800026A90C48FFF794FC4DF60B702690CDE992
:100B90002754CDE9294626A90748FFF789FC2CB040
:100BA00070BD0000006801400010024000100048C5
:100BB0000004004800140048000C00480B4882B0B4
:100BC000016E41F001010166016E01F00101009129
:100BD000816D41F080518165806D002200F0805070
:100BE00000900F21901E02B000F002B800100240E9
:100BF000F0B40E4B1B680C46C3F30223C3F1070588
:100C0000042D00D90425191D072901D2002300E075
:100C1000DB1E012606FA05F1491E214099409E403F
:100C2000761E16403143F0BC01F099BA0CED00E09D
:100C3000064900F0070208684FF6FF03184040EA33
:100C40000220034A10430860704700000CED00E0EA
:100C50000000FA052B492C4B0A6832214A432B49E4
:100C600040B1B0F5007F086829D020F4C06040F49E
:100C700080602CE00868C0F34120022804D051F8BD
:100C8000800F20F4807022E0D1F8800020F4807082
:100C9000C1F88000086820F4C06040F4007008606B
:100CA000B2FBF3F0401C00E0401E4A69520501D53A
:100CB0000028F9D1486940050AD503207047C0F3E0
:100CC0004120022806D051F8800F40F4807008605F
:100CD00000207047D1F8800040F48070C1F8800097
:100CE000086820F4C06040F400700860B2FBF3F0C4
:100CF000401C00E0401E4A695205DBD50028F9D1AE
:100D0000D8E700001000002040420F0000700040B3
:100D10000248416841F40071416070470070004032
:100D200008480168C1F34121022906D0D0F88000AB
:100D3000C00505D54FF4007070474FF480607047D0
:100D400000207047007000402DE9F84F044600264F
:100D50000088FB4D3746010504F1200B1ED5E06EDF
:100D600040280AD003DC68B1202804D10FE06028B5
:100D700021D080281FD001260FE0E86840F48030A1
:100D8000E86018E00021201D00F0FEFF03E00021D4
:100D9000584601F08DF806000DD037462088C00473
:100DA0002BD5206FB0F5007F16D00DDCC8B1B0F5A3
:100DB000807F0FD11AE0D5F89C00E16E20F0E000B2
:100DC0000843C5F89C00E9E7B0F5407F13D0B0F5C3
:100DD000806F10D001260FE0E86840F48030E860B2
:100DE00009E00021201D00F0CFFF03E0002158465C
:100DF00001F05EF80646F6B137462068800360D5FC
:100E0000A86D4FF00008C00009D4A86D40F08050D4
:100E1000A865A86D4FF0010800F080500090DFF841
:100E200024A3DAF8001041F48071CAF80010FFF72B
:100E30006BFC81460EE0D5F89C00216F20F4E06049
:100E40000843C5F89C00D8E7FFF75EFCA0EB09005B
:100E500002282DD8DAF80000C005F5D54EBBD5F82C
:100E6000900010F4407015D0D4F89410814211D045
:100E7000D5F89000D5F8901020F4407041F48031FE
:100E8000C5F89010D5F8901021F48031C5F8901075
:100E9000C5F89000C0077DD0FFF736FC814641F2CF
:100EA000883AACE0FFF730FCA0EB0901514572D95C
:100EB00003263746B8F1000F03D0A86D20F080500C
:100EC000A8652078C00707D0D5F88800E16B20F02E
:100ED00003000843C5F888002078800707D5D5F8B7
:100EE0008800216C20F00C000843C5F888002078A9
:100EF000400707D5D5F88800616C20F03000084322
:100F0000C5F888002078000707D5D5F88800A16CBF
:100F100020F0C0000843C5F888002078C00607D537
:100F2000D5F88800E16C20F440700843C5F88800CB
:100F30002078800607D5D5F88800216D20F4406020
:100F40000843C5F888002088800507D5D5F88800B3
:100F5000616E20F440200843C5F8880020884005D1
:100F600007D5D5F88800A16E20F440100843C5F8D5
:100F700088002078400607D5D5F88800616D20F4F8
:100F800040500843C5F88800207800060AD5D5F8F7
:100F9000880001E038E032E0A16D20F440400843D1
:100FA000C5F888002088C00507D5D5F88800E16D10
:100FB00020F440300843C5F888002068C00207D5F7
:100FC000D5F89C00216E20F003000843C5F89C0072
:100FD00020884FF0006880044FF0806927D5D5F84D
:100FE0008800616F20F040600843C5F88800606F9A
:100FF000404513D1E86840F48010E86017E0D5F868
:10100000900080077FF54EAFD5F89000D4F894108B
:1010100020F440700843C5F890004BE7484506D1DE
:101020000121201D00F0B0FE060000D00746206818
:1010300000032ED5A06F4FF480418842D5F89C0064
:1010400004D140F48040C5F89C000BE020F48040BF
:10105000C5F89C00D5F88800A26F20F040601043CE
:10106000C5F88800A06F404503D1E86840F48010BF
:1010700004E0884204D1E86840F48030E86008E089
:10108000484506D10121201D00F07EFE060000D05B
:1010900007462068400318D5D5F88800E16F20F096
:1010A00040600843C5F88800E06F404504D1E86817
:1010B00040F48010E86008E0484506D10121201D79
:1010C00000F062FE060000D007462088400414D5D8
:1010D000D5F88800D4F8801020F040500843C5F8B7
:1010E0008800D4F88000B0F1805F06D10221201D75
:1010F00000F04AFE060000D007462068C00308D56D
:10110000D5F89C00D4F8841020F004000843C5F8FA
:101110009C002068800208D5D5F89C00D4F888107F
:1011200020F018000843C5F89C002068400227D52D
:10113000286820F080502860FFF7E6FA80460BE030
:101140000010024000700040FFF7DEFAA0EB08003C
:10115000022801D9032612E028688000F4D476B969
:10116000D5F89C00D4F88C1020F440300843C5F822
:101170009C000221584600F09BFE060000D0374636
:101180002068C00110D5D5F89C0054F8901F20F4B9
:1011900040100843C5F89C002068B0F5001F03D13B
:1011A000E86840F48010E860384600F000B818BCE9
:1011B000BDE8E08F704700002DE9F0470E460500BE
:1011C0004FF000077ED0DFF87081D8F8000000F003
:1011D0000F00B0420CD2D8F8001021F00F013143BB
:1011E000C8F80010D8F8000000F00F00B0427CD121
:1011F0002878524C80070AD5A868A16801F0F00150
:10120000884204D9A16821F0F0010143A160287847
:10121000C00749D06868DFF82891032810D0022859
:1012200014D00028206814D0400500285DDA00F0B2
:1012300097F8484516D9A06810F0F00F0BD011E0D0
:101240002068800151D500F0C7FEF2E720688003D6
:10125000EBE78007E9E7A06820F0F00040F08000AD
:10126000A0608027A068696820F003000843A060A0
:10127000FFF74AFA814641F2883A08E0FFF744FA5C
:10128000A0EB0901514502D90320BDE8F087A06811
:10129000696800F00C00B0EB810FEFD1802F03D113
:1012A000A06820F0F000A060287880070CD5A8681E
:1012B000A16801F0F001884206D2A16821F0F00196
:1012C000014300E011E0A160D8F80010404601F0B1
:1012D0000F01B1420BD9016821F00F0131430160C8
:1012E000006800F00F00B04201D00120CDE728785F
:1012F000400705D5A068E96820F4E0600843A060D5
:101300002878000706D5A068296920F4605040EAD3
:10131000C100A06000F024F8A1680A4AC1F30311DB
:10132000515C01F01F01C840074908600748006888
:10133000BDE8F047FFF70CBB002002400010024060
:1013400000B4C404C42C00081000002008000020D1
:101350000248016841F4002101607047001002401A
:1013600070B52549002318468A68CC6812F00C0233
:1013700004F00306214C4FEA640509D00C2A05D07D
:10138000042A32D0082A00D1284670BD012E10D17F
:101390000B681B0704D4D1F89430C3F3032302E095
:1013A0000B68C3F30313164E56F82330DAB10C2A38
:1013B000EBD1C86800F00300022818D0032818D029
:1013C0001846CA68CB68C2F30312C3F3062343432B
:1013D000521CB3FBF2F2C868C0F34160401C4000ED
:1013E000B2FBF0F070BD184670BD204670BD2046BF
:1013F000E7E72846E5E70000001002400024F4007B
:10140000D42C000810B5044CE069C00503D5FFF7E3
:10141000D1FEA015206210BD001002402DE9F84356
:1014200004006FD0FA4DA86800F00C06E86800F0E0
:1014300003072078C00664D576B10C2E01D1012FA8
:101440000AD0A069002828687AD040F001002860FE
:10145000FFF75AF980465DE02868800702D5A06949
:101460000028DED0216A2868000703D5286800F02C
:10147000F00004E0D5F89400F02202EA1010814256
:1014800016D9084600F0E0FD00283BD1286840F05E
:10149000080028602868216A20F0F00008432860CE
:1014A0006868E16920F47F4040EA0120686016E046
:1014B000286840F0080028602868216A20F0F000C1
:1014C000084328606868E16920F47F4040EA012011
:1014D000686026B9206A00F0B7FD0028D5D1FFF773
:1014E0003FFFA968CB4AC1F30311515C01F01F0112
:1014F000C840C9490860C9480068FFF729FA0028B0
:101500007ED12EE0CAE000BFFFF7FEF8A0EB080096
:10151000022876D828688007F6D5286840F00800A9
:1015200028602868216A20F0F00008432860686875
:10153000E16920F47F4040EA0120686011E0FFE7A4
:1015400020F001002860FFF7DFF8804606E000BFCA
:10155000FFF7DAF8A0EB08000228DAD8286880073D
:10156000F6D42078C00740D0082E18D00C2E01D118
:10157000032F14D06068B0F5803F17D0B0F5A02FCE
:10158000286817D020F480302860286820F4802054
:1015900028606068E0B1FFF7B7F8804614E028687B
:1015A000800322D56068002878D01EE0286840F4C7
:1015B0008030EDE740F480202860F7E7FFF7A4F8DB
:1015C000A0EB08006428A4D828688003F6D50CE0B6
:1015D000FFF79AF8804605E0FFF796F8A0EB0800C1
:1015E000642896D828688003F6D4207880073BD5F5
:1015F000042E11D00C2E01D1022F0DD0E06801E095
:10160000AEE1FFE0002828681ED040F4807028601A
:10161000FFF77AF807460CE0286840050CD5E0682B
:101620000028C1D008E000BFFFF76EF8C01B0228F9
:1016300093D828684005F7D56868217C20F0FE40E3
:1016400040EA016068600FE020F480702860FFF7D6
:101650005BF8074605E000BFFFF756F8C01B0228FD
:10166000B1D828684005F7D42078000729D56069EB
:101670000028D5F8940012D040F00100C5F894007D
:10168000FFF742F8074604E0FFF73EF8C01B0228C8
:1016900099D8D5F894008007F6D512E02BE120F018
:1016A0000100C5F89400FFF72FF8074605E000BFDA
:1016B000FFF72AF8C01B022885D8D5F894008007C8
:1016C000F6D42078400766D5A86D0027C00008D45E
:1016D000A86D40F08050A865A86D012700F08050EB
:1016E00000904F480168C90512D40168814641F451
:1016F00080710160FFF708F8804605E0FFF704F805
:10170000A0EB080002287DD8D9F80000C005F5D567
:10171000A068012816D00528D5F8900017D020F031
:101720000100C5F89000D5F8900020F0040000BF3B
:10173000C5F89000A06841F28839C0B1FEF7E4FF17
:1017400080460FE0D5F8900040F00100F0E740F04F
:101750000400C5F89000F5E7FEF7D6FFA0EB0801FE
:1017600049454FD8D5F890008007F5D50EE0FEF733
:10177000CBFF804606E000BFFEF7C6FFA0EB0801E6
:1017800049453FD8D5F890008007F5D41FB1A86D22
:1017900020F08050A8652078800628D5606A00284F
:1017A000D5F8980012D040F00100C5F89800FEF777
:1017B000ABFF074605E000BFFEF7A6FFC01B0228EF
:1017C00020D8D5F898008007F6D510E020F0010069
:1017D000C5F89800FEF798FF074604E0FEF794FF6F
:1017E000C01B02280ED8D5F898008007F6D4A06A4E
:1017F000F0B3022816D00C2E7DD0286820F080701F
:10180000286000E0ABE0FEF77FFF0446AAE000009E
:1018100000100240C42C0008100000200800002026
:1018200000700040E868E26A00F00301914228D1AC
:10183000216B00F0F00209011039914221D1626B55
:1018400000F4FE41B1EB022F1BD194F8382000F0D8
:101850007841B1EBC26F14D1A18F00F4C0024908E6
:101860004905A1F5001191420BD194F8401000E018
:101870006EE04908490600F0C060A1F100718142A4
:101880004FD00C2E77D02868400174D42868C0004F
:1018900071D4286820F080702860FEF735FF064676
:1018A00005E000BFFEF730FF801B022857D82868EC
:1018B0008001F7D4F4E90B016FF00F0202EB011184
:1018C0000843218A5204490802EB4151A26841EAC7
:1018D00002210843217D4FF07E42490802EB41611D
:1018E0000843217B40EAC160E968244A114008436B
:1018F000E860286800E03EE040F080702860E8681A
:1019000040F08070E860FEF7FFFE044605E000BF8F
:10191000FEF7FAFE001B022821D828688001F7D5BF
:1019200027E02868800124D4286840F0807028606F
:10193000E86840F08070E860FEF7E6FE044604E0E8
:10194000FEF7E2FE001B022809D828688001F7D5BF
:101950000FE000BFFEF7D8FE001B022802D90320CB
:10196000BDE8F88328688001F4D4E8680449084099
:10197000E8600020F4E70120F2E700000C809D0100
:10198000FCFFEEFE10B5401EB0F1807F01D30120B8
:1019900010BD4FF0E02460610F21601700F0DFFB05
:1019A0000020A06107202061002010BDFEE7F0B5F7
:1019B00003688C88DD68C5F30B452C442504882416
:1019C00004EBC2141E5906F0F0261E5103680F687E
:1019D000DE68C6F30B46761C3E442E431E51036858
:1019E0008C89DD68C5F30A052C4425048C2404EB9E
:1019F000C2141E5906F0F0261E5103688F68DE6877
:101A0000C6F30A06761C3E442E431E5194230468F6
:101A100003EBC213E55825F00705E55005680C698E
:101A2000EC5091F831300C7E1E0291F8323091F872
:101A300030501B04354343EA04631D439C24036870
:101A400004EBC2141D519823046803EBC213E5583C
:101A500025F0FF05E55005684C69EC50A0230468AB
:101A600003EBC213E55840F20776B543E550D1E9E0
:101A700007452C430568EC50AC25046805EBC215FE
:101A80004B6A63510B698BB3012B32D0042B32D0DC
:101A9000022B30D0032B2ED0072B2CD00123B024C7
:101AA000056804EBC2142E5906F0E0262E51D1E948
:101AB0000065AD1B0E8D5D435E43ED1C45EA06439C
:101AC00005682B51B423046803EBC213E5586FF388
:101AD0000A05E5500468C96AE1500068842101EBF9
:101AE000C211425842F001024250F0BDFFE7042308
:101AF000D5E70323D3E70223D1E7000000B587B081
:101B00001C2206496846FEF739FC0021684600F0B1
:101B100057FB0349086007B000BD0000A82C00086F
:101B20000000002070B586B014216846FEF758FC0E
:101B30003E48C16C41F01001C164C16C01F010015C
:101B40000591C16C41F00401C164C16C01F0040154
:101B50000591C16C41F02001C164C16C01F020010C
:101B60000591C16C41F08001C164C16C01F080013C
:101B70000591C16C41F00101C164C16C01F001012A
:101B80000591C16C41F00201C164C16C01F0020118
:101B90000591C16C41F04001C164C16C01F040018C
:101BA0000591C16C41F00801C164C06C00F00800EF
:101BB0000590FFF7ADF84FF6FF7603240025009659
:101BC00069461B48CDE90145FEF772FC4FF2FF70F4
:101BD0008DE8310069461748FEF76AFC00966946B1
:101BE0004FF09040CDE90145FEF762FC4FF6FB4017
:101BF0008DE8310069461048FEF75AFC00966946A8
:101C00000E48CDE90145FEF753FC42F2F4008DE8A1
:101C1000310069460A48FEF74BFC08208DE8310088
:101C200069460848FEF744FC06B070BD001002404B
:101C3000000800480014004800040048001800484C
:101C4000000C0048001C0048144810B512490160FF
:101C50001349416000210122C0E902120161416182
:101C60008161C1610162FEF7BDFD08B1FEF71DFC97
:101C700000210A48FEF74EFD08B1FEF716FC0021D0
:101C80000648FEF772FD08B1FEF70FFCBDE81040F4
:101C90004FF48010FEF792BD00540040D0020020A7
:101CA0000A03400070B59AB034216846FEF798FBED
:101CB00034210DA8FEF794FB30482F490024C0E9D9
:101CC000001484600721C460C0E9044103218161DC
:101CD0000E210525C0E9071540F28E21416240F230
:101CE000E51181624FF42571C16240F2E711016391
:101CF00080F8344080F8354080F83640FEF773FEB7
:101D000008B1FEF7D2FB019402944FF48066CDE94E
:101D10000646039404940094CDE908548DF83040AD
:101D200005948DF831400A940B948DF832400022CE
:101D300069461248FEF72EFE08B1FEF7B6FB0D9479
:101D40000E940F94109411941294CDE91346CDE99A
:101D500015548DF864408DF86540179418948DF8EB
:101D6000664001220DA90548FEF714FE002801D0A7
:101D7000FEF79BFB1AB070BD0068014024030020F1
:101D8000FEE7FFF73FFBFEE72DE9F041434C054638
:101D90008846E06800268107286806D0E16801F0DF
:101DA000030181420FD170B11AE0012804D002284A
:101DB00005D0032807D108E02168890701E02168E0
:101DC0004905002907DB012664E02168890302D464
:101DD00021684903F5E7E16821F003010143E1606F
:101DE000206820F080602060FEF78EFC074604E04B
:101DF000FEF78AFCC01B022843D820680001F7D4F4
:101E00006FF00F00B8F1000F1BD0B8F1010F24D014
:101E1000297D4908420502EB4161AA6841EA022195
:101E20006A6800EB0210014320691D4A104001431B
:101E30002161206840F080602060FEF765FC074665
:101E400021E0A9682A7B090241EAC2616A6800EBC5
:101E5000021001432069134AE8E7298A124A490817
:101E600002EB4151AA6841EA02216A6800EB0210C4
:101E7000014320690D4AD9E7FEF746FCC01B022842
:101E800001D9032606E020680001F5D52069A9697B
:101E9000084320613046BDE8F08100000010024098
:101EA0000F80FFF90F80FF070000E0FF0F809FFF0A
:101EB0002DE9F041434C05468846E068002681073D
:101EC000286806D0E16801F0030181420FD170B1AA
:101ED0001AE0012804D0022805D0032807D108E021
:101EE0002168890701E021684905002907DB0126EF
:101EF00064E02168890302D421684903F5E7E168B9
:101F000021F003010143E160206820F0805020604F
:101F1000FEF7FAFB074604E0FEF7F6FBC01B0228BB
:101F200043D820688000F7D46FF00F00B8F1000F9D
:101F30001BD0B8F1010F24D0297D4908420502EBDE
:101F40004161AA6841EA02216A6800EB021001437C
:101F500060691D4A104001436161206840F0805073
:101F60002060FEF7D1FB074621E0A9682A7B090221
:101F700041EAC2616A6800EB021001436069134ADA
:101F8000E8E7298A124A490802EB4151AA6841EA66
:101F900002216A6800EB0210014360690D4AD9E72B
:101FA000FEF7B2FBC01B022801D9032606E0206819
:101FB0008000F5D56069A969084360613046BDE8D5
:101FC000F0810000001002400F80FFF90F80FF0732
:101FD0000000E0FF0F809FFF1748C16801F0030178
:101FE00001291AD0022914D0032914D00021C26873
:101FF000C368C2F30312C3F306234B43521CB3FB63
:10200000F2F1C068C0F34160401C4000B1FBF0F049
:1020100070470A49EBE70A49E9E70168090704D470
:10202000D0F89410C1F3032102E00168C1F3031159
:10203000044A52F82110DAE7001002400024F400AC
:1020400000127A00D42C0008F8B51A4D0646002478
:10205000A86DC00002D5FEF763FE0DE0A86D40F04C
:102060008050A865A86D00F080500090FEF758FEE3
:10207000A96D21F08051A965B0F5007F03D0802EB5
:1020800006D3022407E0802E05D9A02EF9D801E05E
:10209000702E00D101240848016821F00F0121436E
:1020A0000160006800F00F00A04201D00120F8BDDF
:1020B0000020F8BD0010024000200240012000F086
:1020C00073F8FBE710B5FEF72BFC00F011FD0128BB
:1020D00003D0BDE8104000F099BC10BD10B596B01B
:1020E00044216846FEF77CF9142111A8FEF778F91F
:1020F0004FF40070FEF7AEFD08B172B6FEE70121A5
:102100000804CDE90010022003240A90CDE90B4118
:102110001B21CDE90D100F90082010906846FFF7A5
:102120007DF908B172B6FEE70F20CDE91104002059
:10213000139014901590012111A8FFF73DF808B1F4
:1021400072B6FEE7FFF704F916B010BD0248016849
:1021500041F470010160704788ED00E0FEE7090777
:10216000090E002804DB00F1E02080F8001470471D
:1021700000F00F0000F1E02080F8141D7047FEF71A
:10218000D7FBFFF7ABFFFFF7CDFCFFF78BFDFFF7AA
:102190005BFDFFF7B3FC00F00EF8FEE70146002000
:1021A000842900D0C81C704710B500B9012000F088
:1021B00021FB002010BD10B500F042FB002010BD37
:1021C0007FB50D4604464169B0F9080081B1A169A7
:1021D00071B1FFF7E3FFD4E905128DE80700D4E9F8
:1021E00000102B46226900F057FC039004B070BD2C
:1021F000FFF7D4FF03A9CDE90001208A2B4682B264
:10220000D4E9001000F018FC012801D00020EDE70F
:102210000398EBE72DE9F041184C0F460546E668B8
:102220002068001D00F01EFA38B9206890F82C10C4
:1022300001208840216981432161681C07D137B1A1
:102240002168BDE8F0410E48091D00F04FBA206832
:102250003544B5424560216805D2A06BBDE8F04128
:10226000091D00F02BBA606B091D00F027FAA06A67
:10227000854200D2A562BDE8F08100001400002074
:10228000A80400202DE9F041054600F03BFA2E4C51
:10229000A068401CA06020682C4F10B1606940B35A
:1022A0002DE02560A068012829D1002606EB8600D4
:1022B00007EB800000F0F4F9761C072EF6D32348D4
:1022C0008C3000F0EDF92148A03000F0E9F91F480A
:1022D000B43000F0E5F91D48C83000F0E1F91B48C2
:1022E000DC3000F0DDF919488C3060631430A063F5
:1022F00005E02068E96AC06A884200D82560606A03
:10230000401C6062E96A0120226988401043206114
:1023100001EB810007EB8000291D00F0E7F900F0D8
:1023200011FA606900280CD02068E96AC06A884206
:1023300007D207494FF080500860BFF34F8FBFF3BB
:102340006F8FBDE8F081000014000020CC03002056
:1023500004ED00E010B5044690F8510058B1012892
:102360000CD002280FD0502080F31188BFF34F8F7C
:10237000BFF36F8FFEE7206B00F0F8F92046BDE851
:10238000104000F0F3B910BD0F4840F6B8314207D5
:1023900005D0C01D0C4A20F00700821A891A0B4A8A
:1023A00000230144C2E900030839183A21F007016B
:1023B00011604B600B600B1AC0E9001393604FF083
:1023C0000040536050617047BC040020680000204A
:1023D000144E154CA6F1C8074FF08058DFF84C900A
:1023E00012E000BF00F08EF9F068C568281D00F00B
:1023F00039F9A068401EA0606068401E606000F06F
:10240000A1F92846FFF7A6FF60680028EAD13868DE
:102410000128F9D9C9F80080BFF34F8FBFF36F8F40
:10242000F2E70000940400201400002004ED00E016
:102430002DE9F0479A46DDE9098481466FF00303F0
:10244000206B03EB82021044089E20F007077807F8
:1024500007D0502080F31188BFF34F8FBFF36F8FE9
:10246000FEE7002561B1002023180A5C83F83420C0
:102470000A5C12B1401C1028F6D384F8435001E0E6
:1024800084F83450072E00D30626E662C4E91165AD
:10249000201D00F010F904F1180000F00CF924617F
:1024A000C6F107006462A061E56484F850505246AA
:1024B0004946384600F0C0F82060B8F1000F01D05E
:1024C000C8F80040BDE8F08730B5114900E011467A
:1024D0000A688242FBD34B685C18844203D140688F
:1024E00018444860084643681C18944209D1084CB7
:1024F000183C2468A24209D052681A4442600A6813
:1025000012680260814200D0086030BD0460F9E7C3
:10251000680000200648416B096829B1416BC96811
:10252000C9684968816270474FF0FF31FAE70000DF
:102530001400002008484068401C4FF0500080F311
:10254000118804D0BFF34F8FBFF36F8FFEE7BFF347
:102550004F8FBFF36F8FFEE7700000202DE9F04131
:102560000546002700F0A2F9324E306808B9FFF79F
:102570000BFF706905424ED1C5B3083568070ED010
:1025800005F00700C0F108000544680707D0502097
:1025900080F31188BFF34F8FBFF36F8FFEE72DB32A
:1025A0007068854237D82348183001460C6801E02E
:1025B00020460C466168A94202D221680029F7D161
:1025C00031688C4227D0076821680160606808374D
:1025D000411B10290FD96019420708D0502080F301
:1025E0001188BFF34F8FBFF36F8FFEE713E0416099
:1025F0006560FFF769FF61687068401A7060B268D3
:10260000904200D2B060706901430020C4E900012B
:10261000F068401CF06000F0DFFA780707D0502027
:1026200080F31188BFF34F8FBFF36F8FFEE73846FB
:10263000BDE8F0815000002010B5031F4FF08074FA
:102640001C601B1F21F001011960191F044B0B6056
:1026500014390A60091F6FF0020244380A6010BD85
:1026600035250008D0E9013201699A60D0E90123DB
:102670005A604A68824201D182684A60002202613F
:102680000868401E0860086870470000034B03603C
:1026900003F1540008608020106070477C00002027
:1026A00000F108014FF0FF32C0E90112C160016181
:1026B00000210160704700210161704730B50B684F
:1026C0005A1C02D000F1080202E0026904E022462E
:1026D000546825689D42FAD953684B6099608A60B6
:1026E000516008610168491C016030BD42684A6060
:1026F00093688B6093685960916008610168491C18
:1027000001607047502080F31188BFF34F8FBFF3F3
:102710006F8F0A494868401C486001280CD108485E
:10272000006810F0FF0F07D0502080F31188BFF32E
:102730004F8FBFF36F8FFEE77047000070000020DF
:1027400004ED00E00849486828B1401E486001D106
:1027500080F311887047502080F31188BFF34F8FAA
:10276000BFF36F8FFEE700007000002070B50028F7
:102770002AD0164DA0F1080460686969084207D1A3
:10278000502080F31188BFF34F8FBFF36F8FFEE7A8
:1027900022683AB1502080F31188BFF34F8FBFF306
:1027A0006F8FFEE78843606000F080F860686968BA
:1027B000084468602046FFF787FE2869401C2861AE
:1027C000BDE8704000F008BA70BD00005000002065
:1027D0004FF0E02000210161816105494FF47A72D8
:1027E0000968B1FBF2F1491E41610721016170479F
:1027F0001000002010B5020014D00F48006B38B153
:10280000502080F31188BFF34F8FBFF36F8FFEE727
:1028100000F04CF800211046FFF7FCFC00F0DCF95A
:10282000002807D105494FF080500860BFF34F8F53
:10283000BFF36F8F10BD00001400002004ED00E016
:1028400010B586B00024039405AA04A903A8049433
:10285000FFF71CFFDDE903010094CDE9011000231F
:102860000EA11048059A00F017F90F490028C86218
:1028700011D0502080F31188BFF34F8FBFF36F8FBB
:102880004FF0FF30886201204861CC6006B0BDE89F
:10289000104000F041B806B010BD000049444C455E
:1028A00000000000D1230008140000200248016B42
:1028B000491C016370470000140000201448016B9C
:1028C00011B10121C16170470021C1610169B1FAF3
:1028D00081F1C1F11F0101EB81020E4951F8223053
:1028E0006BB101EB820101F108034A6852684A604A
:1028F0009A4201D152684A60D16801607047502005
:1029000080F31188BFF34F8FBFF36F8FFEE7000096
:1029100014000020CC0300201CB537480168374A5A
:10292000914207D1502080F31188BFF34F8FBFF33E
:102930006F8FFEE700683149491E884207D1502059
:1029400080F31188BFF34F8FBFF36F8FFEE72C49E1
:1029500008780190FF20087008788DF800009DF835
:1029600000009DF8002000F0F000904207D05020B9
:1029700080F31188BFF34F8FBFF36F8FFEE79DF891
:102980000000204C00F0500020700720A06005E0FF
:102990009DF8002052008DF80020401E9DF8002078
:1029A0001206F5D4A060032807D0502080F31188C8
:1029B000BFF34F8FBFF36F8FFEE74FF44070A060FF
:1029C000019808700C482030016841F470010160E2
:1029D000016841F070410160FFF7FAFE002060607D
:1029E000FDF760FC0848016841F040410160FDF7D7
:1029F00045FC00201CBD000000ED00E071C20F414D
:102A000000E400E07000002034EF00E010B550203A
:102A100080F31188BFF34F8FBFF36F8F00F076F80C
:102A200018B104494FF080500860002080F31188ED
:102A300010BD000004ED00E02DE9FF5F8346DDE9F5
:102A40000E87994616468A469000FFF787FD0500D7
:102A50001CD05420FFF782FD040014D00020256311
:102A600084F85100CDE90240CDE900874B4632465B
:102A700051465846FFF7DCFC2046FFF703FC0120D7
:102A800004B000F006B82846FFF770FE4FF0FF30A4
:102A9000F6E730BCBDE8C09FF0B585B0DDE90B645A
:102AA0000A9DA6B1DCB1542700972663022684F85C
:102AB0005160002604AFCDE90246CDE90057FFF78B
:102AC000B7FC2046FFF7DEFB049805B0F0BD5020B0
:102AD00080F31188BFF34F8FBFF36F8FFEE7502055
:102AE00080F31188BFF34F8FBFF36F8FFEE70000B5
:102AF0000548416919B1006B18B1002070470120E9
:102B00007047022070470000140000202DE9F041BA
:102B10002F4C0026206B28B1A069401CA0613046D4
:102B2000BDE8F081E5686D1CE56013D1606B00685D
:102B300038B1502080F31188BFF34F8FBFF36F8FF0
:102B4000FEE7606BA16B6163A063206A401C20629A
:102B5000FFF7E0FCA06ADFF87C80854209D3606B58
:102B60000068A0B1606BC068C7687868854211D200
:102B7000A0622068C06A00EB800158F8210001289B
:102B800000D90126E0690028C9D00126C7E74FF027
:102B9000FF30EDE7381DFFF765FDB86A18B107F1A2
:102BA0001800FFF75FFDF96A012022698840104391
:102BB000206101EB810108EB8100391DFFF796FDD3
:102BC000F86A2168C96A8842C9D30126C7E70000AC
:102BD00014000020CC0300202DE9F0472C4D0024E8
:102BE0002746286B38B1FFF78DFD286B401E286300
:102BF000286B40B146E0502080F31188BFF34F8F1F
:102C0000BFF36F8FFEE7A968224E0120D1B3A6F172
:102C1000B40980463068E8B1F068C46804F118006F
:102C2000FFF720FD201DFFF71DFDE06A2A6908FA65
:102C300000F11143296100EB800109EB8100211DA6
:102C4000FFF754FDE06A2968C96A8842E2D3C5F8F3
:102C50001C80DFE70CB1FFF75DFCAC6944B1464670
:102C6000FFF754FF00B1EE61641EF9D10020A861A6
:102C7000E86938B10849012738070860BFF34F8F6A
:102C8000BFF36F8FFFF75EFD3846BDE8F0870000A9
:102C9000140000208004002004ED00E04FF040709C
:102CA000E1EE100A70470000042D0008BD20000866
:102CB0000000000000000000800000000000000094
:102CC00000000000000000000000000001020304FA
:102CD00006070809A0860100400D0300801A0600BF
:102CE00000350C0040420F0080841E0000093D00AA
:102CF00000127A000024F40000366E010048E8015A
:102D0000006CDC0264656661756C745461736B0001
:102D1000302D0008000000207C000000F8010008B1
:102D2000AC2D00087C0000205C1600001402000896
:102D30000000000001000000100000000000000082
:102D400000093D000000000000000000000000003D
:102D50000000000000000000000000000000000073
:102D60000000000000000000000000000000000063
:102D70000000000000000000000000000000000053
:102D80000000000000000000000000000000000043
:102D90000000000000000000000000000000000033
:0C2DA00000000000AAAAAAAA000000007F
:04000005080001BD31
:00000001FF
