:020000040800F2
:10000000300B00207D020008F7380008D3300008CC
:10001000F5380008F50C0008DD430008000000007A
:10002000000000000000000000000000453D000846
:10003000F70C0008000000000D3A0008473D0008DA
:10004000970200089702000897020008970200082C
:10005000970200089702000897020008970200081C
:10006000970200089702000897020008970200080C
:1000700097020008970200089702000897020008FC
:1000800097020008970200089702000897020008EC
:1000900097020008970200089702000897020008DC
:1000A00097020008C93D000897020008970200085F
:1000B00097020008970200089702000897020008BC
:1000C00097020008970200089702000897020008AC
:1000D000970200089702000897020008970200089C
:1000E000970200089702000897020008970200088C
:1000F000970200089702000897020008000000001D
:10010000970200089702000897020008970200086B
:10011000970200089702000897020008970200085B
:10012000970200089702000897020008970200084B
:10013000970200089702000897020008970200083B
:10014000970200089702000897020008970200082B
:10015000970200089702000897020008970200081B
:10016000970200089702000897020008970200080B
:10017000970200089702000800000000000000003D
:1001800097020008970200089702000897020008EB
:10019000970200089702000800000000000000001D
:1001A000000000000000000097020008970200080D
:1001B00097020008970200089702000800F002F872
:1001C00000F04DF80AA090E8000C82448344AAF1A4
:1001D0000107DA4501D100F042F8AFF2090EBAE8A2
:1001E0000F0013F0010F18BFFB1A43F0010318476B
:1001F0006C4B00008C4B0000103A24BF78C878C1CB
:10020000FAD8520724BF30C830C144BF04680C601C
:10021000704700000023002400250026103A28BF64
:1002200078C1FBD8520728BF30C148BF0B60704768
:10023000642900F0F780782900F0308100207047B1
:100240001FB504F0FDFA9DE8030000F0B1FB00F0DB
:1002500083FA1FBD10B5002000F067FB10BD00F051
:10026000E2FB1146FFF7ECFF04F090FA00F01AFCF5
:1002700003B4FFF7EFFF03BC00F080FA09488047A2
:1002800009480047FEE7FEE7FEE7FEE7FEE7FEE778
:10029000FEE7FEE7FEE7FEE704480549054A064B90
:1002A00070470000B93D0008BD010008300500207E
:1002B000300B0020300700203007002053EA020CEA
:1002C00000F069802DE9F04B4FF00006002B1FBFB6
:1002D000B3FA83F503FA05F424FA05F65E4012BF7B
:1002E0001643B2FA82F502FA05F4C5F120051EBFE5
:1002F00022FA05FC44EA0C04203556EA044C4FEA85
:10030000144418BF641C4FF000084FF000099042DD
:1003100071EB030C39D3002919BFB1FA81F701FA47
:1003200007F6B0FA80F700FA07F6C7F120071EBFFC
:1003300020FA07FC46EA0C062037B6FBF4FCA7EBD4
:100340000507103F07F01F0BCBF120060CFA0BFB43
:100350002CFA06F644BFB3460026202FA4BF5E4603
:100360004FF0000B5BEA060C08BF4FF0010B19EBD6
:100370000B09ABFB027C48EB0608C01B06FB02CC5A
:100380000BFB03CC71EB0C01C1E70B460246414667
:100390004846BDE8F08B13B54FF000004FF0000168
:1003A000AFF30080BDE81C40704700000FB41CB5DF
:1003B000074B06AA7B4469460090059800F09DFA19
:1003C0000020694600F0ACFA1CBC5DF814FB00008C
:1003D0006905000070B5044685690068C10601D54D
:1003E000302600E02026C00707D070BDD4E90121E7
:1003F00030469047206A401C20626D1EF6D570BDC5
:1004000070B5044685690078C00707D170BDD4E98E
:10041000012120209047206A401C20626D1EF6D5E5
:1004200070BD00002DE9F0410646002410687529D2
:10043000314616A510D0AFF30080002802DA404202
:1004400013A507E031688A0701D512A502E0490724
:1004500004D511A5012401E0AFF3008000210A2298
:1004600006F1240709E0B0FBF2FCB0FBF2F302FB5B
:100470001C00303078541846491C0028F3D123461C
:100480002A463046BDE8F04100F0D8B9000000002F
:100490002D0000002B0000002000000070B5044675
:1004A0000D4621461068AFF300802188090502D56A
:1004B0000F4A7A4402E00E4A7A440E32002104F1D7
:1004C000240305E000F00F060009965D5E54491C08
:1004D0000028F7D120780023000704D5702D02D022
:1004E00009B1022311322046BDE8704000F0A6B9E0
:1004F000064400002DE9F05F894604464FF0000AEB
:10050000DFF824B1FB44C0F820A02046E16888470A
:1005100000287DD0252806D0D4E901219047206A03
:10052000401C2062F1E700255F462046E1688847CD
:100530002028064607DB312E05D2B81910F8200C0A
:1005400008B10543F1E7A80701D525F00405C4F873
:100550001CA00027C4F818A02A2E09D0304604F0A9
:100560000DF938B304EB8708303EC8F8186019E07D
:1005700059F8041B204604EB87029161E168884723
:10058000012F064618D1E069002820DA25F0200561
:100590001DE0D8F8180000EB800006EB4000303872
:1005A000C8F818002046E1688847064604F0E6F8D7
:1005B0000028EED1012F0AD02E2E08D12046E16866
:1005C00088477F1C0646022F45F02005C4DBA06942
:1005D000002803DA404245F00105A061E80701D098
:1005E00025F01005A6B1A6F14100192802D8203641
:1005F00045F400654A463146204625604D46FFF7E2
:1006000017FE60B1012807D0ED1D25F0070000E0BE
:1006100007E000F1080978E705F1040975E73046BD
:100620007AE7206A00F002B8DC43000030BCBDE885
:10063000C09F2DE9F041074615460E46102000F0F8
:10064000A7F804000AD06760C4E9026500F09CF8CE
:100650000168216004600020BDE8F0810120FBE713
:1006600010B5431C02E010F8011B71B18107FAD1EB
:100670004FF0013202C88C1A8C4314EAC211F9D02F
:10068000C01A0A0603D0C01E10BDC01A10BD0A044D
:1006900001D0801E10BD0902FCD0401E10BD10B557
:1006A000203AC0F00B80B1E81850203AA0E818506A
:1006B000B1E81850A0E81850BFF4F5AF5FEA027C2B
:1006C00024BFB1E81850A0E8185044BF18C918C09A
:1006D000BDE810405FEA827C24BF51F8043B40F83B
:1006E000043B08BF7047D20728BF31F8023B48BF20
:1006F00011F8012B28BF20F8023B48BF00F8012B5E
:1007000070474FF0000200B51346944696462039D4
:1007100022BFA0E80C50A0E80C50B1F12001BFF4BA
:10072000F7AF090728BFA0E80C5048BF0CC05DF820
:1007300004EB890028BF40F8042B08BF704748BF6E
:1007400020F8022B11F0804F18BF00F8012B7047E2
:10075000704770477047000070B5064C7C44064DEA
:100760007D4403E0206820448047241DAC42F9D139
:1007700070BD00001C4600002846000001491820FA
:10078000ABBEFEE7260002000048704708050020C7
:1007900070B5064600F0F0F8056806F10B0020F091
:1007A0000704B4429CBF002070BD2B466A68BAB1F2
:1007B0001068A04210D304F1080188423CBF506881
:1007C000586007D35168101941601168091B016016
:1007D00058601460101D70BD13465268002AE7D19E
:1007E0002146284600F0D0F80028DED170BD70B553
:1007F0000446051F00F0C0F80068002C14BF4468D0
:1008000070BD002C18BFAC423CBF20466468F8D3D2
:1008100001680A18AA4218BF456003D12A68054634
:100820001144016028684119A1421CBF6C6070BD71
:100830006168696021680844286070BD2DE9F0474F
:100840000D4699469246044600F124080168880640
:1008500004D5E06921F01001216000E00120A842E8
:1008600001DD471B00E00027A1697A1902EB0900AE
:10087000081AA0612078C00602D42046FFF7AAFD1E
:10088000002608E0D4E901211AF806009047206A02
:10089000401C761C20624E45F4DB2078C0060AD549
:1008A0002046FFF797FD06E0D4E90121302090476C
:1008B000206A401C2062381EA7F10107F4DC07E023
:1008C000D4E9012118F805009047206A401C2062F5
:1008D000281EA5F10105F3DC2046FFF791FD2078E5
:1008E000000602D50220BDE8F0870120FBE70000EA
:1008F00001694A1C02610878704700B58FB0CDE9E4
:1009000001310021059105497944CDE903101146D3
:100910006846FFF7EFFD0FB000BD0000E5FFFFFFE9
:100920000A6802F8010B0A6070472DE9F04106469B
:10093000FFF72AFF8046454613E016B1E068B04253
:100940000ED120682860D4E90101D8F800708847EA
:100950002046FFF74CFFD8F80000B842EBD100E08A
:1009600025462C68002CE8D1BDE8F081004870478E
:10097000D00400207047000000487047D8040020D1
:10098000704770477047704738B504460A460020E4
:100990006946AFF30080002808BF38BD02460099C1
:1009A000204600F065F8012038BD012000F09CB819
:1009B000F8B5AFF30080054600200C46102000BFBC
:1009C0000646A819A0420DD9324669460020AFF369
:1009D0000080070008BF00F087F80098A04218BF09
:1009E0000546C419FFF7C8FF05600746F01D20F053
:1009F00007004619284600F00AF8B44208BFF8BDBF
:100A0000A21B31463868BDE8F84000F031B800213B
:100A10000160C0E90110704710207047002801D024
:100A2000FFF7ACBE70477546FFF7A0FFAE46050066
:100A30006946534620F00700854618B020B5FFF7F9
:100A40002BFCBDE820404FF000064FF000074FF0B0
:100A500000084FF0000B21F00701AC46ACE8C009DC
:100A6000ACE8C009ACE8C009ACE8C0098D467047E5
:100A7000034640688C46002818BF88423CBF0346A6
:100A80004068F8D318681844884207D00CF1030076
:100A900020F00700001D411A521A0146081D0A6085
:100AA000FFF7A5BE10B50446AFF300802046BDE8B1
:100AB0001040FFF7DDBB70B505460C460A2000E08C
:100AC0006D1C00F018F835B128780028F8D102E044
:100AD000641C00F010F814B120780028F8D1BDE8AB
:100AE00070400A2000F007B810B500F00BF8BDE820
:100AF0001040FFF793BF08B569468DF8000003204A
:100B0000ABBE08BD10B5012805D0002103A0FFF73A
:100B1000D2FF012010BD09A1F8E700005349475258
:100B2000544D454D3A204F7574206F6620686561BD
:100B300070206D656D6F7279000000003A20486585
:100B40006170206D656D6F727920636F7272757060
:100B5000746564002DE9F04391B0814600F088FA95
:100B600000278DF840708DF841704FF0020810ADED
:100B7000CDE9005842F2107601233A46A8214846B2
:100B8000029600F0E3FB040011D0024645A103A841
:100B9000FFF70CFC03A8FFF763FD82B2642303A9EF
:100BA000464802F03FFA204611B0BDE8F0830A2023
:100BB00000F01CF901248DF84070CDE90054234663
:100BC0000222A8214846029600F0C0FB07000FD081
:100BD00002463BA103A8FFF7E9FB03A8FFF740FD8E
:100BE00082B2642303A9354802F01CFA3846DBE7D9
:100BF0000A2000F0FBF804208DF84000CDE90054F5
:100C000001233122A8214846029600F09FFB0600EE
:100C10000FD0024630A103A8FFF7C8FB03A8FFF7D7
:100C20001FFD82B2642303A9244802F0FBF9304679
:100C3000BAE70A2000F0DAF8EB208DF84000CDE9A1
:100C40000054642601233622A8214846029600F06B
:100C50007DFBF0208DF84000CDE9005401233722C0
:100C6000A8214846029600F071FB6E208DF84000E6
:100C7000CDE9005401233822A8214846029600F00D
:100C800065FB0A2000F0B2F88DF84080CDE90054F1
:100C900001233522A8214846029600F057FB002088
:100CA00082E70000506F776572204D6F64652065A4
:100CB00072726F723A2025640D0A000070020020E3
:100CC000524742204D6F6465206572726F723A2000
:100CD00025640D0A0000000054657374205061748F
:100CE0007465726E206572726F723A2025640D0A07
:100CF00000000000FEE7704772B6FEE7F0B504465C
:100D00000020CB0711D01E235FF0010603F01F0760
:100D100006FA07F50D4201D15B1EF7D27AB1082A17
:100D20000BD0102A06D0182A01D00120F0BD072BC5
:100D3000FBD204E0082BF8D201E0102BF5D2236897
:100D4000596121688B6823F0180313438B60F0BD51
:100D500010B5040010D0607F20B900202077204615
:100D600000F030F802206077207938B1D4E902121F
:100D70002046FFF7C3FF48B1012010BD216810488D
:100D800048612068816821F0180181606079A0B114
:100D900020692168086120688168626921F060012A
:100DA0001143816020688168A26921F080011143AC
:100DB000816001206077002010BD4FF0FF30E8E730
:100DC000B71DC10408B500680649884208D1064825
:100DD000816C41F480518164806C00F480500090FB
:100DE00008BD0000003002400010024070B504460B
:100DF00000F03EF90546601C02D004480078044427
:100E000000F036F9401BA042FAD370BD100000205C
:100E10002DE9F04FDFF82092002301260325A9F1E8
:100E2000040B85B00F2709F1040AABF1040EFBE0B7
:100E300006FA03FC12EA0C027ED00C7904F00304DB
:100E4000012C01D0022C20D1846800945C0005FAAA
:100E500004F80494009C24EA08040094D1F80C805F
:100E6000049C08FA04F8009C48EA0408C0F80880CA
:100E7000446824EA0C0491F804C0CCF3001C0CFA7A
:100E800003FC4CEA040CC0F804C00C79E443A4074A
:100E90000ED0C4684FEA430805FA08FC24EA0C04A3
:100EA000D1F808C00CFA08FC4CEA040CC0F80CC0DD
:100EB0000C7904F00304022C15D1DC0800EB840447
:100EC0000294246A4FEA437C4FEADC6807FA08FC84
:100ED00024EA0C04D1F810C00CFA08FC4CEA040C0B
:100EE000029CC4F820C004684FEA430805FA08FCD5
:100EF00024EA0C0491F804C00CF0030C0CFA08FC72
:100F00004CEA040CC0F800C04C6814F4403F13D005
:100F10004A4CD4F860C04CF0010CC4F860C0246E98
:100F200023F0030C04F001040094454C6444029443
:100F3000A4684FEA837C00E075E04FEA1C7807FA6A
:100F400008FC24EA0C04B0F1904F06D0DFF8F4C09E
:100F5000604505D14FF0010C2EE04FF0000C2BE066
:100F6000DFF8E4C0604502D14FF0020C24E0DFF866
:100F7000DCC0604502D14FF0030C1DE0DFF8D0C0AB
:100F8000604502D14FF0040C16E0DFF8C8C06045A0
:100F900002D14FF0050C0FE0DFF8BCC0604502D174
:100FA0004FF0060C08E0DFF8B4C0604502D14FF006
:100FB000070C01E04FF0080C0CFA08FC4CEA040C9A
:100FC000029CC4F808C0D9F80040CC46D1F804808F
:100FD00094435FEAC82800D51443CCF80040DAF8FF
:100FE0000040D446D1F8048094435FEA882800D5B5
:100FF0001443CCF80040DBF80040DC46D1F8048014
:1010000094435FEA883800D51443CCF80040DEF8FA
:101010000040F446D1F8048094435FEAC83800D514
:101020001443CCF800405B1C0A6832FA03F47FF4E6
:10103000FFAE05B000F014B80804014000100240F3
:10104000000001400004004800080048000C00486F
:10105000001000480014004800180048001C004818
:1010600030BCBDE8C08F0AB18161704781627047B2
:1010700001488068704700001000002090F841206F
:10108000202A24D190F84020012A20D0012280F883
:101090004020242280F841200268136823F00103D5
:1010A00013600268136823F48053136002681368A6
:1010B0000B43136001680A6842F001020A602021B4
:1010C00080F84110002180F8401008467047022047
:1010D000704790F84120202A22D190F84020012A20
:1010E0001ED0012280F84020242280F8412002688E
:1010F000136823F0010313600268136823F470631C
:1011000043EA0121116001680A6842F001020A60A5
:10111000202180F84110002180F8401008467047D7
:101120000220704770B5040004D094F841000025F7
:1011300010B106E0012070BD84F84050204600F058
:10114000B5F9242084F841002068016821F00101EC
:1011500001606068216820F0706008612068816823
:1011600021F400418160E0680128A06830D040F49B
:10117000044021688860E0680228206841682AD01D
:1011800021F40061416020684168144A11434160C4
:101190002068C16821F40041C160D4E9040108431A
:1011A000A16940EA01202168C860D4E90701084329
:1011B000216808602068016841F0010101606564F0
:1011C000202084F84100256384F84250002070BD3F
:1011D00040F40040CDE741F40061D3E70080000215
:1011E0002DE9FF4F83B00446DDE9108790F84100F8
:1011F000DDF848A09B46202876D15FEA080015D08C
:10120000A7B194F8400001286ED04FF0010984F88E
:101210004090FFF72DFF0646012200901923D103CD
:10122000204602F06BF8002872D103E04FF4007002
:1012300060646DE0222084F84100402084F8420080
:1012400000256564C4F8248067856563CDE900A640
:10125000DDE904125B46204601F0D4FF10B184F8AA
:10126000405055E0618D35484FF080774FF0007861
:10127000FF2905D9A4F828904A463B46009005E08E
:10128000618D2185009094F82820434620460499DA
:1012900002F01CF85346002204212046009602F07A
:1012A0002DF8A8BB2068406A616A0870606A401C1B
:1012B0006062208D401E81B22185608D401E608558
:1012C000608DE0B1D9B953460022802120460096B6
:1012D00002F014F8E0B9608DFF2806D9A4F8289030
:1012E0004A463B46009506E026E0608D2085009545
:1012F00094F8282043462046049901F0E7FF608DCA
:101300000028C7D132465146204602F034F818B1C1
:10131000012007B000F016B821682020C8612168BC
:101320004A68074B1A404A6084F8410084F84250EA
:1013300084F840500020ECE70220EAE70024008017
:1013400000E800FE30BCBDE8C08F00002DE9FF4F73
:1013500083B00446DDE9108790F84100DDF848903D
:101360009A469346202871D15FEA080014D09FB1B5
:1013700094F84000012869D0012084F84000FFF76C
:1013800077FE0646012200901923D103204601F082
:10139000B5FF00286ED103E04FF40070606469E08F
:1013A000212084F84100402084F842000025656433
:1013B000C4F8248067856563CDE9009653465A4694
:1013C0002046049901F050FF10B184F8405051E0DC
:1013D000608DFF274FF080784FF0007AFF2804D906
:1013E00027853A464346009505E0608D20850095A7
:1013F00094F8282053462046049901F067FF3246AE
:101400004946204601F0E2FFA0BB606A21680078EF
:101410008862606A401C6062608D401E6085208D1D
:10142000401E80B22085618DD9B1D0B94B460022D3
:1014300080212046009601F061FFD8B9608DFF2819
:1014400005D927853A464346009506E026E0608D9B
:101450002085009594F8282053462046049901F0F1
:1014600035FF608D0028CAD132464946204601F03A
:1014700082FF18B1012007B000F014B820682021C5
:10148000C16120684268064B1A40426084F84110EE
:1014900084F8425084F840500020ECE70220EAE74C
:1014A00000E800FE30BCBDE8C08F00002DE9F0412F
:1014B000ACB00446142126A8FFF723F9982168460A
:1014C000FFF71FF92C4920682C4C12260327002512
:1014D0004FF00408884223D14020009015956846BB
:1014E00000F04AFD08B1FFF707FCE06C40F0020095
:1014F000E064E06C28AA00F002002B904FF44070EA
:10150000CDE9260682E8A00126A91D48FFF780FC48
:10151000A06D40F40010A065A06D00F4001027E05D
:101520001849884225D1801500901795684600F02B
:1015300023FD08B1FFF7E0FBE06C40F04000E06401
:10154000E06C00F040002B9000F0FAFC4FF4C0700B
:10155000CDE9260628AA26A982E8A0010A48FFF7B5
:1015600057FCA06D40F40000A065A06D00F40000E1
:101570002B902CB0BDE8F0810054004000100240D8
:1015800000040048005C00400018004802488168E0
:1015900002781144816070471000002010B50024CB
:1015A000032000F0B7F90F2000F008F808B101247B
:1015B00001E000F06BF9204610BD000030B5054693
:1015C0001C4887B0016E41F400310166006E06A927
:1015D00000F40030009001A800F0D0FF01F000F806
:1015E0001549164AB0FBF1F11548491E02604160E9
:1015F00040F2E7320021C0E903218160816101F0FE
:101600000AFB040012D10E4801F038FB04000DD192
:10161000192000F051F9102D07D200222946192077
:1016200000F058F90748056000E0012407B02046A3
:1016300030BD00000010024040420F000044014055
:1016400004030020140000202DE9F041044690F826
:10165000A00016460F4601281DD0012584F8A05091
:10166000022084F8A10006EB860000EBC60004EB24
:10167000800034223830FFF712F8324639462046CF
:1016800001F0D1FE2068456284F8A150002084F862
:10169000A000BDE8F0810220FBE770B5040004D093
:1016A00094F8A100002510B106E0012070BD84F877
:1016B000A050204600F050F8022084F8A1002068D5
:1016C000816921F070418161D4E901010843D4E9C5
:1016D00003121143084321688A6910438861A08A74
:1016E000A16941EA004120688160A08B216A41EA3A
:1016F00000412068C160A08CA16A41EA00412068D5
:101700000161A08D216B41EA00412068416194F89C
:1017100035002168030294F83600CA6A02F07F425D
:10172000CA622168CA6A94F8346043EA00403243CE
:101730000243CA622068416B41F0060141632068A0
:10174000816941F001018161C4F8A450012084F84D
:10175000A100002070BD0000F0B5ADB0044614211A
:1017600026A8FEF7CEFF98216846FEF7CAFF41493A
:10177000206888427BD100244FF48000239400909D
:10178000032008900120022509901020CDE90A05C8
:1017900000050E900D950C95684600F0EDFB08B124
:1017A000FFF7AAFA3448016E41F080610166016ECC
:1017B00001F080612B91C16C41F02001C164C16CCA
:1017C00001F020012B91C16C41F01001C164C16C8A
:1017D00001F010012B91C16C41F00801C164C16C92
:1017E00001F008012B91C16C41F04001C164C06C53
:1017F00000F040002B9000F0A3FB4FF40060269017
:10180000CDE927540920CDE929401C4F26A93846A7
:10181000FFF7FEFA4FF470402690CDE927540B26CF
:10182000CDE9294626A93846FFF7F2FA4FF683702C
:101830002690CDE92754CDE9294626A91048FFF77F
:10184000E7FA4DF60B702690CDE92754CDE92946ED
:1018500026A90C48FFF7DCFA4FF4C0402690CDE9EA
:101860002754CDE9294626A90748FFF7D1FA2DB01C
:10187000F0BD000000680140001002400014004864
:1018800000100048000C004800180048094808B53E
:10189000016E41F001010166016E01F0010100914C
:1018A000816D41F080518165806D00F08050009025
:1018B00008BD000000100240002809DB00F01F02F4
:1018C000012191404009800000F1E020C0F80011A2
:1018D00070470000F0B40E4B1B680C46C3F30223A4
:1018E000C3F10705042D00D90425191D072901D2CC
:1018F000002300E0DB1E012606FA05F1491E214007
:1019000099409E40761E16403143F0BC02F0B9BEAD
:101910000CED00E0064900F0070208684FF6FF03EF
:10192000184040EA0220034A104308607047000054
:101930000CED00E00000FA052DE9F04F0C4683465F
:101940000168A6484FF000098BB04E46814202D193
:101950000025012001E00125002082460027E846FD
:1019600007EB87017F1C08EB8101F8B201F0C4FF8F
:1019700020B108204FF00109CBF84800FFB2022F38
:10198000EED3B9F1000F7DD1944A1068C00705D09D
:10199000106820F00100106046F00106DFF840B248
:1019A000DBF80000C00707D0DBF8001021F00101D0
:1019B000CBF8001046F0020605EB850C08EB8C0313
:1019C000C64699688F0087490F44D7F8008C28F4E1
:1019D0008078C7F8008C5EF82C70012067B301EBAB
:1019E0008707D7F800CC2CF0010CC7F800CC5F6853
:1019F0003FB101EB8707D7F800CC2CF0100CC7F8EB
:101A000000CCD3F80CC0BCF1000F09D020EA0C07C1
:101A100001EB8707D7F804CC2CF4803CC7F804CC42
:101A20001F694FB120EA070301EB8303D3F8047C5D
:101A300027F08077C3F8047C0AEB8A03F2465EF84D
:101A400023E0D4F800C0F4451BD00AEB8307D4F898
:101A500008C0D7F80880C44513D0D4F804C0D7F81C
:101A60000480C44502D1BCF1000F0AD1D4F80CC0E7
:101A7000D7F80C80C44504D0D4F810C03F69BC45E9
:101A800036D100E0A6E001EB8E07D7F800CC2CF0B1
:101A9000010CC7F800CC0AEB83035F683FB101EB90
:101AA0008707D7F800CC2CF0100CC7F800CC9F6843
:101AB00001EB8707D7F800CC2CF4807CC7F800CC6A
:101AC000DF684FB120EA070C01EB8C07D7F804CC94
:101AD0002CF4803CC7F804CC1F694FB120EA0703FF
:101AE00001EB8303D3F8047C27F08077C3F8047CF0
:101AF000A36801EB8303D3F8007C27F4407747EA1F
:101B0000452747F48077C3F8007C236801EB830303
:101B1000D3F8007C00EB450C27F0030747EA0C07DD
:101B2000C3F8007C63685BB101EB8303D3F8007CEE
:101B300027F0300747EA451747F01007C3F8007C45
:101B4000E368DF030CD520EA030701EB8703D3F832
:101B5000047C27F4E02747EA854747F480370CE008
:101B60006BB120EA030701EB8703D3F8047C27F06D
:101B7000E06747EA856747F08077C3F8047C23690C
:101B8000DC030BD5984301EB8000D0F8041C21F452
:101B9000E02141EA854141F440310BE063B19843D3
:101BA00001EB8000D0F8041C21F0E06141EA85617E
:101BB00041F04071C0F8041CF00703D0106840F0F9
:101BC00001001060B00705D5DBF8001041F00101FD
:101BD000CBF800100BB0484600F006B8001000A08B
:101BE000001400A00010065030BCBDE8C08F0000FB
:101BF000F8B504460025FFF73BFA064624B100205D
:101C0000A064606C10B161E001255FE0204600F047
:101C100065F841F28830E064216BE0682D4A0843A2
:101C2000218A636902EB01426FF0FF0101EB03239C
:101C30001A431043E269104322689368264D2B40F3
:101C400018439060A08D226800041061206802682B
:101C5000636822F4F85201EB03210A430260E06C4E
:101C60000090334600222021204601F0ABFE050003
:101C70002CD12068C168226A21F0FF01521E114355
:101C8000C16020680168A26821F040011143016031
:101C9000D4E9090108432168D1F8082122F0A042C3
:101CA0001043C1F808012068016841F0010101609A
:101CB000A069022804D12068816841F00201816096
:101CC000E068B0F1806F03D0022060642846F8BD60
:101CD0000120FAE70000FFFFF4F8E0F82DE9F043F7
:101CE000ADB00446142126A8FEF70BFD98216846E6
:101CF000FEF707FD5C4A206811035C4F0226DFF8FF
:101D0000709100255B4C4FF0030890425FD168460C
:101D10002495009100F030F908B1FEF7EDFF386826
:101D2000401C3860012807D1E06C40F48010E0646A
:101D3000E06C00F480102B90206D40F480702065E2
:101D4000206D00F480702B90E06C40F02000E06487
:101D5000E06C00F020002B90E06C40F00400E064A8
:101D6000E06C00F004002B90E06C40F00100E064B7
:101D7000E06C444600F001002B904FF47070CDE908
:101D80002606CDE928540A2726A9C8462A97484698
:101D9000FFF73EF84FF48060CDE92606CDE92854E0
:101DA00026A92A944046FFF733F81E20CDE92606DF
:101DB000CDE9285426A92A972F48FFF729F80420AF
:101DC000CDE9260626A92A974FF0904044E02B4AF9
:101DD000904245D168462495009100F0CDF808B1B5
:101DE000FEF78AFF3868401C3860012807D1E06C94
:101DF00040F48010E064E06C00F480102B90206DC3
:101E000040F400702065206D00F400702B90E06CB1
:101E100040F02000E064E06C00F020002B90E06CCB
:101E200040F04000E064E06C00F040002B9000F0D7
:101E300087F81F20CDE92606CDE928580527444616
:101E400026A92A974846FEF7E3FF41F20360CDE951
:101E500026060B4826A92A97CDE92854FEF7D8FF75
:101E60002DB0BDE8F0830000001000A000000020AD
:101E7000001400480010024000080048001400A0B0
:101E8000001800482B492C4B0A6832214A432B4941
:101E900040B1B0F5007F086829D020F4C06040F45C
:101EA00080602CE00868C0F34120022804D051F87B
:101EB000800F20F4807022E0D1F8800020F4807040
:101EC000C1F88000086820F4C06040F40070086029
:101ED000B2FBF3F0401C00E0401E4A69520501D5F8
:101EE0000028F9D1486940050AD503207047C0F39E
:101EF0004120022806D051F8800F40F4807008601D
:101F000000207047D1F8800040F48070C1F8800054
:101F1000086820F4C06040F400700860B2FBF3F081
:101F2000401C00E0401E4A695205DBD50028F9D16B
:101F3000D8E700001C00002040420F000070004065
:101F40000248416841F400714160704700700040F0
:101F500008480168C1F34121022906D0D0F8800069
:101F6000C00505D54FF4007070474FF4806070478E
:101F700000207047007000402DE9F84F044600260D
:101F80000088FB4D3746010504F1200B1ED5E06E9D
:101F900040280AD003DC68B1202804D10FE0602873
:101FA00021D080281FD001260FE0E86840F480305F
:101FB000E86018E00021201D01F02AFD03E0002167
:101FC000584601F0B9FD06000DD037462088C00400
:101FD0002BD5206FB0F5007F16D00DDCC8B1B0F561
:101FE000807F0FD11AE0D5F89C00E16E20F0E00070
:101FF0000843C5F89C00E9E7B0F5407F13D0B0F581
:10200000806F10D001260FE0E86840F48030E8606F
:1020100009E00021201D01F0FBFC03E000215846EF
:1020200001F08AFD0646F6B137462068800360D588
:10203000A86D4FF00008C00009D4A86D40F0805092
:10204000A865A86D4FF0010800F080500090DFF8FF
:1020500024A3DAF8001041F48071CAF80010FFF7E9
:1020600007F881460EE0D5F89C00216F20F4E0606F
:102070000843C5F89C00D8E7FEF7FAFFA0EB09007B
:1020800002282DD8DAF80000C005F5D54EBBD5F8EA
:10209000900010F4407015D0D4F89410814211D003
:1020A000D5F89000D5F8901020F4407041F48031BC
:1020B000C5F89010D5F8901021F48031C5F8901033
:1020C000C5F89000C0077DD0FEF7D2FF814641F2EF
:1020D000883AACE0FEF7CCFFA0EB0901514572D97C
:1020E00003263746B8F1000F03D0A86D20F08050CA
:1020F000A8652078C00707D0D5F88800E16B20F0EC
:1021000003000843C5F888002078800707D5D5F874
:102110008800216C20F00C000843C5F88800207866
:10212000400707D5D5F88800616C20F030000843DF
:10213000C5F888002078000707D5D5F88800A16C7D
:1021400020F0C0000843C5F888002078C00607D5F5
:10215000D5F88800E16C20F440700843C5F8880089
:102160002078800607D5D5F88800216D20F44060DE
:102170000843C5F888002088800507D5D5F8880071
:10218000616E20F440200843C5F88800208840058F
:1021900007D5D5F88800A16E20F440100843C5F893
:1021A00088002078400607D5D5F88800616D20F4B6
:1021B00040500843C5F88800207800060AD5D5F8B5
:1021C000880001E038E032E0A16D20F4404008438F
:1021D000C5F888002088C00507D5D5F88800E16DCE
:1021E00020F440300843C5F888002068C00207D5B5
:1021F000D5F89C00216E20F003000843C5F89C0030
:1022000020884FF0006880044FF0806927D5D5F80A
:102210008800616F20F040600843C5F88800606F57
:10222000404513D1E86840F48010E86017E0D5F825
:10223000900080077FF54EAFD5F89000D4F8941049
:1022400020F440700843C5F890004BE7484506D19C
:102250000121201D01F0DCFB060000D007462068AC
:1022600000032ED5A06F4FF480418842D5F89C0022
:1022700004D140F48040C5F89C000BE020F480407D
:10228000C5F89C00D5F88800A26F20F0406010438C
:10229000C5F88800A06F404503D1E86840F480107D
:1022A00004E0884204D1E86840F48030E86008E047
:1022B000484506D10121201D01F0AAFB060000D0EF
:1022C00007462068400318D5D5F88800E16F20F054
:1022D00040600843C5F88800E06F404504D1E868D5
:1022E00040F48010E86008E0484506D10121201D37
:1022F00001F08EFB060000D007462088400414D56C
:10230000D5F88800D4F8801020F040500843C5F874
:102310008800D4F88000B0F1805F06D10221201D32
:1023200001F076FB060000D007462068C00308D500
:10233000D5F89C00D4F8841020F004000843C5F8B8
:102340009C002068800208D5D5F89C00D4F888103D
:1023500020F018000843C5F89C002068400227D5EB
:10236000286820F080502860FEF782FE80460BE04F
:102370000010024000700040FEF77AFEA0EB08005B
:10238000022801D9032612E028688000F4D476B927
:10239000D5F89C00D4F88C1020F440300843C5F8E0
:1023A0009C000221584601F0C7FB060000D03746CA
:1023B0002068C00110D5D5F89C0054F8901F20F477
:1023C00040100843C5F89C002068B0F5001F03D1F9
:1023D000E86840F48010E860384600F000B818BCA7
:1023E000BDE8E08F2DE9F0470E4605004FF00007ED
:1023F0007ED0DFF87081D8F8000000F00F00B04206
:102400000CD2D8F8001021F00F013143C8F80010A9
:10241000D8F8000000F00F00B0427CD12878524C70
:1024200080070AD5A868A16801F0F001884204D9A4
:10243000A16821F0F0010143A1602878C00749D0CC
:102440006868DFF82891032810D0022814D00028EB
:10245000206814D0400500285DDA00F0D3F8484524
:1024600016D9A06810F0F00F0BD011E020688001A1
:1024700051D501F0F5FBF2E720688003EBE7800718
:10248000E9E7A06820F0F00040F08000A06080271D
:10249000A068696820F003000843A060FEF7E8FD2B
:1024A000814641F2883A08E0FEF7E2FDA0EB09011F
:1024B000514502D90320BDE8F087A068696800F0A3
:1024C0000C00B0EB810FEFD1802F03D1A06820F07A
:1024D000F000A060287880070CD5A868A16801F0FA
:1024E000F001884206D2A16821F0F001014300E02A
:1024F00011E0A160D8F80010404601F00F01B14290
:102500000BD9016821F00F0131430160006800F030
:102510000F00B04201D00120CDE72878400705D553
:10252000A068E96820F4E0600843A060287800070C
:1025300006D5A068296920F4605040EAC100A06077
:1025400000F060F8A1680A4AC1F30311515C01F080
:102550001F01C8400749086007480068BDE8F04708
:10256000FFF72CB8002002400010024000B4C40461
:10257000744800081C000020140000200F22026094
:102580000C4A936803F003034360936803F0F0037D
:102590008360936803F4E063C36092684FF4E06380
:1025A00003EAD20202610448006800F00F000860EC
:1025B0007047000000100240002002400548064914
:1025C00000688968054AC1F30221515C01F01F01CE
:1025D000C84070471C00002000100240B4480008AA
:1025E0000548064900688968054AC1F3C221515C63
:1025F00001F01F01C84070471C000020001002407D
:10260000B448000870B52549002318468A68CC688C
:1026100012F00C0204F00306214C4FEA640509D0C5
:102620000C2A05D0042A32D0082A00D1284670BDD1
:10263000012E10D10B681B0704D4D1F89430C3F3DA
:10264000032302E00B68C3F30313164E56F823303E
:10265000DAB10C2AEBD1C86800F00300022818D0C8
:10266000032818D01846CA68CB68C2F30312C3F314
:1026700006234343521CB3FBF2F2C868C0F3416027
:10268000401C4000B2FBF0F070BD184670BD204603
:1026900070BD2046E7E72846E5E70000001002404D
:1026A0000024F400844800082DE9F84304006FD0AA
:1026B000FA4DA86800F00C06E86800F003072078DF
:1026C000C00664D576B10C2E01D1012F0AD0A069C5
:1026D000002828687AD040F001002860FEF7C8FC86
:1026E00080465DE02868800702D5A0690028DED01A
:1026F000216A2868000703D5286800F0F00004E08C
:10270000D5F89400F02202EA1010814216D908464A
:1027100001F0DEFA00283BD1286840F0080028606C
:102720002868216A20F0F000084328606868E169A1
:1027300020F47F4040EA0120686016E0286840F0FD
:10274000080028602868216A20F0F000084328600B
:102750006868E16920F47F4040EA0120686026B99A
:10276000206A01F0B5FA0028D5D1FFF74BFFA96820
:10277000CB4AC1F30311515C01F01F01C840C949A4
:102780000860C9480068FEF719FF00287ED12EE0D6
:10279000CAE000BFFEF76CFCA0EB0800022876D868
:1027A00028688007F6D5286840F008002860286867
:1027B000216A20F0F000084328606868E16920F48D
:1027C0007F4040EA0120686011E0FFE720F001004F
:1027D0002860FEF74DFC804606E000BFFEF748FC8F
:1027E000A0EB08000228DAD828688007F6D4207801
:1027F000C00740D0082E18D00C2E01D1032F14D0C2
:102800006068B0F5803F17D0B0F5A02F286817D0CA
:1028100020F480302860286820F4802028606068D8
:10282000E0B1FEF725FC804614E02868800322D53D
:102830006068002878D01EE0286840F48030EDE71A
:1028400040F480202860F7E7FEF712FCA0EB0800B8
:102850006428A4D828688003F6D50CE0FEF708FCAD
:10286000804605E0FEF704FCA0EB0800642896D83B
:1028700028688003F6D4207880073BD5042E11D039
:102880000C2E01D1022F0DD0E06801E0AEE1FFE097
:10289000002828681ED040F480702860FEF7E8FB0E
:1028A00007460CE0286840050CD5E0680028C1D038
:1028B00008E000BFFEF7DCFBC01B022893D82868A5
:1028C0004005F7D56868217C20F0FE4040EA0160B1
:1028D00068600FE020F480702860FEF7C9FB0746AF
:1028E00005E000BFFEF7C4FBC01B0228B1D8286872
:1028F0004005F7D42078000729D560690028D5F86D
:10290000940012D040F00100C5F89400FEF7B0FB2F
:10291000074604E0FEF7ACFBC01B022899D8D5F8A7
:1029200094008007F6D512E02BE120F00100C5F8F5
:102930009400FEF79DFB074605E000BFFEF798FBFD
:10294000C01B022885D8D5F894008007F6D42078DB
:10295000400766D5A86D0027C00008D4A86D40F0D8
:102960008050A865A86D012700F0805000904F4866
:102970000168C90512D40168814641F48071016083
:10298000FEF776FB804605E0FEF772FBA0EB080041
:1029900002287DD8D9F80000C005F5D5A068012827
:1029A00016D00528D5F8900017D020F00100C5F802
:1029B0009000D5F8900020F0040000BFC5F890000A
:1029C000A06841F28839C0B1FEF752FB80460FE0A3
:1029D000D5F8900040F00100F0E740F00400C5F8A1
:1029E0009000F5E7FEF744FBA0EB080149454FD8FE
:1029F000D5F890008007F5D50EE0FEF739FB80464C
:102A000006E000BFFEF734FBA0EB080149453FD8C4
:102A1000D5F890008007F5D41FB1A86D20F0805044
:102A2000A8652078800628D5606A0028D5F8980027
:102A300012D040F00100C5F89800FEF719FB0746D8
:102A400005E000BFFEF714FBC01B022820D8D5F814
:102A500098008007F6D510E020F00100C5F8980036
:102A6000FEF706FB074604E0FEF702FBC01B022848
:102A70000ED8D5F898008007F6D4A06AF0B30228E3
:102A800016D00C2E7DD0286820F08070286000E0E1
:102A9000ABE0FEF7EDFA0446AAE0000000100240A9
:102AA000744800081C000020140000200070004042
:102AB000E868E26A00F00301914228D1216B00F03E
:102AC000F00209011039914221D1626B00F4FE41FC
:102AD000B1EB022F1BD194F8382000F07841B1EB14
:102AE000C26F14D1A18F00F4C00249084905A1F5B5
:102AF000001191420BD194F8401000E06EE04908BB
:102B0000490600F0C060A1F1007181424FD00C2E47
:102B100077D02868400174D42868C00071D4286830
:102B200020F080702860FEF7A3FA064605E000BF9B
:102B3000FEF79EFA801B022857D828688001F7D438
:102B4000F4E90B016FF00F0202EB01110843218A37
:102B50005204490802EB4151A26841EA02210843AC
:102B6000217D4FF07E42490802EB41610843217B01
:102B700040EAC160E968244A11400843E8602868D7
:102B800000E03EE040F080702860E86840F080702F
:102B9000E860FEF76DFA044605E000BFFEF768FA4C
:102BA000001B022821D828688001F7D527E0286873
:102BB000800124D4286840F080702860E86840F0E4
:102BC0008070E860FEF754FA044604E0FEF750FA1D
:102BD000001B022809D828688001F7D50FE000BF44
:102BE000FEF746FA001B022802D90320BDE8F8834D
:102BF00028688001F4D4E86804490840E8600020AF
:102C0000F4E70120F2E700000C809D01FCFFEEFEDE
:102C100070477047704710B5040003D094F83D002A
:102C200010B107E0012010BD002084F83C002046D0
:102C300000F022F8022084F83D00211D206801F0F8
:102C4000C9F8012084F8480084F83E0084F83F0069
:102C500084F8400084F8410084F8420084F843007E
:102C600084F8440084F8450084F8460084F847005E
:102C700084F83D00002010BD7047000090F83D1022
:102C8000012901D001207047022180F83D10016820
:102C9000CA6842F00102CA6000681149884211D036
:102CA000B0F1804F0ED00F4988420BD00E498842B8
:102CB00008D00E49884205D00D49884202D00D49FE
:102CC000884207D181680C4A1140062906D0B1F527
:102CD000803F03D0016841F001010160002070478E
:102CE000002C01400004004000080040000C00409F
:102CF00000340140004001400700010070472DE909
:102D0000F04104460068C66805694FF00007A9074E
:102D100013D5B10711D5F91E016101202077206874
:102D200080698007204602D0FFF7E8FF04E000F04A
:102D30008BF8204600F089F82777680716D57007CA
:102D400014D521686FF00400086102202077206804
:102D5000806910F4407F204602D0FFF7CFFF04E0E7
:102D600000F072F8204600F070F82777280715D594
:102D7000300713D521686FF0080008610420207720
:102D80002068C0698007204602D0FFF7B7FF04E043
:102D900000F05AF8204600F058F82777E80616D5D4
:102DA000F00614D521686FF0100008610820207724
:102DB0002068C06910F4407F204602D0FFF79EFFD4
:102DC00004E000F041F8204600F03FF82777E807DC
:102DD00008D0F00706D021686FF001000861204696
:102DE00000F034F8280601D4A80408D5300606D52A
:102DF00021686FF4025008612046FFF70AFFE805DA
:102E000008D5300606D521686FF480700861204629
:102E1000FFF7FEFE680608D5700606D521686FF03C
:102E200040000861204600F01BF8A8060AD5B0064D
:102E300008D521686FF0200008612046BDE8F04108
:102E4000FFF7E8BEBDE8F0817047704700680349AE
:102E5000884201D1FEF79ABB704700000044014050
:102E6000704790F88410012918D0012180F884104F
:102E70002421C0F8881001680A680B6823F0010358
:102E80000B6022F000510022426603681960202185
:102E9000C0F8881080F884201046704702207047E0
:102EA00070B5044690F8840001281DD0012084F8F4
:102EB00084002420C4F8880020680568026822F095
:102EC000010202602068826822F060620A43826028
:102ED000204600F0E7FF206805602020C4F8880045
:102EE000002084F8840070BD022070BD70B50446D7
:102EF00090F8840001281DD0012084F8840024204B
:102F0000C4F8880020680568026822F001020260A7
:102F10002068826822F060420A438260204600F006
:102F2000C1FF206805602020C4F88800002084F8D4
:102F3000840070BD022070BD10B5040003D0D4F829
:102F4000880010B107E0012010BD002084F8840043
:102F5000204600F027F82420C4F888002068016883
:102F600021F001010160A06A10B1204600F0BCFF11
:102F7000204601F09DF80128E6D02068416821F440
:102F8000904141602068816821F02A0181602068B9
:102F9000016841F0010101602046BDE8104001F0E8
:102FA00007B8000010B5ACB00446142126A8FDF700
:102FB000A8FB98216846FDF7A4FB184920688842C1
:102FC00029D1002401200F9400906846FEF7D4FF19
:102FD00008B1FDF791FE1248016E41F4804101668F
:102FE000016E01F480412B91C16C41F00101C1647B
:102FF000C06C26A900F001002B904FF4C060269011
:103000000220CDE927040320299007202A904FF0C1
:103010009040FDF7FDFE2CB010BD000000380140CF
:10302000001002402DE9F8430446D0F88800984685
:1030300016460D46202802D00220BDE8F883A5B12F
:103040009EB10020C4F890002120C4F888001834F4
:10305000FEF70EF8A6878146E68754F8100C202765
:10306000183CB0F5805F02D003E00120E5E720695D
:1030700010B12E46002510E000260EE080212046EB
:1030800001F062F9C0B9DEB116F8010B21680885BC
:10309000B4F85600401EA4F85600B4F856004B464B
:1030A0004FF00002CDF800800028E7D14FF040013A
:1030B000204601F049F940B1C4F888700320BCE70C
:1030C00035F8020BC0F30800E0E7C4F88870002070
:1030D000B3E7FEE701688A69D243920701D4002270
:1030E0008A6200688169C943C90703D0816941F0D8
:1030F00001018161704700002DE9F0470446006836
:1031000089460026816935461746C9064FF02008D2
:1031100041D51021C1612FE0B9F1FF3F2CD0FDF75F
:10312000A7FFC11B494502D8B9F1000F24D120687F
:10313000416894F8422001F480418369DB431B0419
:1031400015D4B1F5804F12D0202A10D0416841F437
:1031500080414160FDF78CFF074608E0FDF788FFDE
:10316000C01B192803D945F02005012604E020687A
:103170008069C0438006F1D420688069C04380061E
:1031800002D5002EC8D003E016B92168C1F81C8012
:1031900045F00405012621688869C20505D54FF46C
:1031A000807245F00105CA610126410509D52268F2
:1031B0004FF4806145F00805D1610126800502D4F5
:1031C0000AE0800507D521684FF4007045F002053C
:1031D000C861012600E086B12046FFF77BFF54F866
:1031E000240B4168064A11404160206A284320624E
:1031F00084F81D800020A07720773046BDE8F08756
:1032000000E800FE2DE9F84304461646DDE908977C
:1032100014489846DAB200900023204600F056F891
:103220003A464946204600F0D1F8B8B9F5B2B8F1AF
:10323000010F08D02168300A88623A464946204684
:1032400000F0C4F850B9206885624B460022402146
:103250002046009700F052F8002800D00120BDE879
:10326000F8830000002000802DE9F843044616464C
:1032700015489846DDE90897DAB2C3020090204667
:1032800000F024F83A464946204600F09FF8B8B9C5
:10329000F5B2B8F1010F08D02168300A88623A46C9
:1032A0004946204600F092F850B9206885624B46A6
:1032B000002280212046009700F020F8002800D04E
:1032C0000120BDE8F88300000020008010B5C1F3A4
:1032D000090141EA02410268029C194321435068F6
:1032E00021F000414FF4806303EA5453024C23431E
:1032F00098430843506010BDFF63FF032DE9F04180
:103300001D4617460E460446DDF8188027E0424663
:1033100029462046FFF7F0FE10B10120BDE8F081FC
:10332000681C1CD0FDF7A4FEA0EB0800A84200D842
:10333000ADB92068806936EA00000ED00020B8429E
:103340000DD154F8440F40F0200044F80409202027
:1033500060700020A0702070DFE70120EFE7206898
:10336000806936EA000004D00020B842CFD00020A7
:10337000D4E70120F9E770B516460D4604461EE075
:10338000324629462046FFF7B7FE08B1012070BD3E
:10339000FDF76EFE801BA84200D885B920688069C1
:1033A000C04380060BD554F8440F40F0200044F889
:1033B0000409202060700020A0702070E6E72068DB
:1033C0008069C0438006DBD4002070BD70B516460E
:1033D0000D46044620E0324629462046FFF78CFE83
:1033E00008B1012070BD681C16D0FDF741FE801B9E
:1033F000A84200D885B920688069C04380070BD5F2
:1034000054F8440F40F0200044F804092020607074
:103410000020A0702070E4E720688069C043800726
:10342000D9D4002070BDF0B503688C88DD68C5F381
:103430000B452C442504882404EBC2141E5906F0C5
:10344000F0261E5103680F68DE68C6F30B46761C33
:103450003E442E431E5103688C89DD68C5F30A057E
:103460002C4425048C2404EBC2141E5906F0F026CB
:103470001E5103688F68DE68C6F30A06761C3E4458
:103480002E431E519423046803EBC213E55825F024
:103490000705E55005680C69EC5091F831300C7E59
:1034A0001E0291F8323091F830501B04354343EA44
:1034B00004631D439C24036804EBC2141D5198232C
:1034C000046803EBC213E55825F0FF05E5500568D5
:1034D0004C69EC50A023046803EBC213E55840F29A
:1034E0000776B543E550D1E907452C430568EC5014
:1034F000AC25046805EBC2154B6A63510B698BB3AD
:10350000012B32D0042B32D0022B30D0032B2ED003
:10351000072B2CD00123B024056804EBC2142E59CC
:1035200006F0E0262E51D1E90065AD1B0E8D5D43FE
:103530005E43ED1C45EA064305682B51B42304683D
:1035400003EBC213E5586FF30A05E5500468C96A36
:10355000E1500068842101EBC211425842F001029F
:103560004250F0BDFFE70423D5E70323D3E702234E
:10357000D1E7000070B586B014216846FDF7C1F8A8
:103580004FF44070009012200125CDE90105022082
:1035900003900420049069462B48FDF739FC2B4C1E
:1035A000E06C40F02000E064E06C00F0200005904A
:1035B000E06C40F08000E064E06C00F0800005907A
:1035C000E06C40F00400E064E06C00F00400059062
:1035D000E06C40F00100E064E06C00F00100059058
:1035E000E06C40F04000E064E06C00F040000590CA
:1035F000E06C40F01000E064E06C00F0100005901A
:10360000E06C40F00800E064E06C00F00800059019
:10361000FEF796FCE06C40F00200E064E06C0C4EBB
:1036200000F002006C030590002221463046FDF7B1
:103630001AFD00210094CDE90151039169463046FD
:10364000FDF7E6FB06B070BD000400480010024024
:10365000000C0048124810B5104901601149416042
:1036600000210122C0E90212016141618161C16151
:103670000162FDF757FD08B172B6FEE70021084868
:10368000FDF7FCFC08B172B6FEE700210448FDF727
:1036900020FD002801D072B6FEE710BD00540040A6
:1036A0008000002097699000124810B51049016011
:1036B0001149416000210122C0E90212016141610A
:1036C0008161C1610162FDF72DFD08B172B6FEE7AF
:1036D00000210848FDF7D2FC08B172B6FEE70021D0
:1036E0000448FDF7F6FC002801D072B6FEE710BDD5
:1036F000005C0040D40000209769900030B58DB088
:1037000034216846FCF7FDFF264825490024C0E91E
:1037100000148460C460072503210461C0E90551D9
:103720000E21C1610521016240F28E21416240F209
:10373000E51181624FF42571C16240F2E711016326
:1037400080F8344080F8354080F83640FDF7A5FF1A
:1037500008B172B6FEE74FF44871CDE90041FF2091
:103760004FF41672CDE90440CDE902420DF1180C78
:103770004FF4C06309948CE82900CDE90A128DF852
:1037800030008DF831408DF83240002269460548FE
:10379000FDF75AFF002801D072B6FEE70DB030BD2C
:1037A000006801402801002010B586B01421684649
:1037B000FCF7A7FF174816490124C0E9001440216F
:1037C000816000F10C030021202283E81600816152
:1037D000C0E9071441628162C16208210163FEF7FA
:1037E00007FA08B172B6FEE74FF00110CDE90240CA
:1037F00009480490009441F2883269460548FEF772
:103800009BF8002801D072B6FEE706B010BD00009C
:10381000001000A0D00100200100000100B585B01B
:1038200014216846FCF76DFF164815490122C0E9CE
:1038300000124021816000212023C0E90313C0E968
:103840000521C0E9071241628162C162082101635A
:10385000FEF7CEF908B172B6FEE7022000900290A2
:10386000094803900948049041F2883269460548A6
:10387000FEF762F8002801D072B6FEE705B000BD81
:10388000001400A02002002002000100020000013C
:10389000174810B5154901604FF4E131416000212E
:1038A00081600C22C160C0E904128161C1610162C2
:1038B00041628162FFF740FB08B172B6FEE700216A
:1038C0000B48FFF713FB08B172B6FEE7002108486A
:1038D000FFF7E6FA08B172B6FEE70548FFF7C1FA4E
:1038E000002801D072B6FEE710BD0000003801408C
:1038F00070020020FEE7FEE7F0B50024234658B131
:10390000022809D841B100220A604A608A60CA6070
:103910000A61022802D002E001244CE0274B284D26
:10392000002000BF05EB8002D2F8042CD60707D098
:1039300002F0020603F00207BE4201D1461C0E60EF
:10394000D60607D502F0200603F02007BE4201D1BB
:10395000461C4E60D60507D502F4007603F40077C6
:10396000BE4201D1461C8E60D6030FD502F48026DC
:1039700003F48027BE4209D1960300F1010602D468
:1039800046F4803601E046F08076CE60D6010FD551
:1039900002F0806603F08067BE4209D1920100F117
:1039A000010202D442F4803201E042F080720A61E6
:1039B000401C0228B6D32046F0BD000022020404B9
:1039C000001006502DE9F041984616460F46044671
:1039D000069D08E0681C06D0FDF74AFBA0EB080036
:1039E000A8420AD84DB12068006A384000D00120B2
:1039F000B042EFD10020BDE8F0814FF40070606468
:103A0000A06C40F00100A0640120F4E770470000C2
:103A10002DE9F041434C05468846E06800268107C1
:103A2000286806D0E16801F0030181420FD170B12E
:103A30001AE0012804D0022805D0032807D108E0A5
:103A40002168890701E021684905002907DB012673
:103A500064E02168890302D421684903F5E7E1683D
:103A600021F003010143E160206820F080602060C4
:103A7000FDF7FEFA074604E0FDF7FAFAC01B02283C
:103A800043D820680001F7D46FF00F00B8F1000FA1
:103A90001BD0B8F1010F24D0297D4908420502EB63
:103AA0004161AA6841EA02216A6800EB0210014301
:103AB00020691D4A104001432161206840F0806068
:103AC0002060FDF7D5FA074621E0A9682A7B0902A4
:103AD00041EAC2616A6800EB021001432069134A9F
:103AE000E8E7298A124A490802EB4151AA6841EAEB
:103AF00002216A6800EB0210014320690D4AD9E7F0
:103B0000FDF7B6FAC01B022801D9032606E020689B
:103B10000001F5D52069A969084320613046BDE858
:103B2000F0810000001002400F80FFF90F80FF07B6
:103B30000000E0FF0F809FFF2DE9F041434C054658
:103B40008846E06800268107286806D0E16801F011
:103B5000030181420FD170B11AE0012804D002287C
:103B600005D0032807D108E02168890701E0216812
:103B70004905002907DB012664E02168890302D496
:103B800021684903F5E7E16821F003010143E160A1
:103B9000206820F080502060FDF76AFA074604E0B4
:103BA000FDF766FAC01B022843D820688000F7D4CE
:103BB0006FF00F00B8F1000F1BD0B8F1010F24D047
:103BC000297D4908420502EB4161AA6841EA0221C8
:103BD0006A6800EB0210014360691D4A104001430E
:103BE0006161206840F080502060FDF741FA07468F
:103BF00021E0A9682A7B090241EAC2616A6800EBF8
:103C0000021001436069134AE8E7298A124A490809
:103C100002EB4151AA6841EA02216A6800EB0210F6
:103C2000014360690D4AD9E7FDF722FAC01B02285B
:103C300001D9032606E020688000F5D56069A969EE
:103C4000084360613046BDE8F0810000001002408A
:103C50000F80FFF90F80FF070000E0FF0F809FFF3C
:103C60001748C16801F0030101291AD0022914D0B4
:103C7000032914D00021C268C368C2F30312C3F33E
:103C800006234B43521CB3FBF2F1C068C0F3416002
:103C9000401C4000B1FBF0F070470A49EBE70A49CD
:103CA000E9E70168090704D4D0F89410C1F30321AF
:103CB00002E00168C1F30311044A52F82110DAE767
:103CC000001002400024F40000127A00844800082A
:103CD000F8B51A4D06460024A86DC00002D5FEF7BF
:103CE00037F90DE0A86D40F08050A865A86D00F090
:103CF00080500090FEF72CF9A96D21F08051A96544
:103D0000B0F5007F03D0802E06D3022407E0802E7A
:103D100005D9A02EF9D801E0702E00D10124084861
:103D2000016821F00F0121430160006800F00F00DD
:103D3000A04201D00120F8BD0020F8BD00100240D3
:103D4000002002407047704710B596B04421684685
:103D5000FCF7D7FC142111A8FCF7D3FC4FF400703A
:103D6000FEF790F808B172B6FEE701210804CDE92C
:103D70000010022003240A90CDE90B411B21CDE95C
:103D80000D100F9010906846FEF78EFC08B172B6C9
:103D9000FEE70F20CDE9110490201390002014902D
:103DA0001590012111A8FEF71DFB002801D072B665
:103DB000FEE716B010BD00000248016841F4700132
:103DC0000160704788ED00E00148FEF798BF0000F1
:103DD000040300202DE9F04702682A4B2A4D2B4EA0
:103DE0002B4F2C4C4FF0804A984209D0504507D0B9
:103DF000A84205D0B04203D0B84201D0A04204D1BD
:103E000022F0700C4A6842EA0C02DFF88CC0DFF83E
:103E10008C80DFF88C9098420FD050450DD0A8428E
:103E20000BD0B04209D0B84207D0A04205D06045BF
:103E300003D0404501D0484503D122F44075CA68FB
:103E40002A434D6922F080022A4302608A68C262D6
:103E50000A688262984207D0A04205D0604503D02C
:103E6000404501D0484501D1096901630121416103
:103E70000169C90703D0016921F001010161BDE8B1
:103E8000F0870000002C01400004004000080040C2
:103E9000000C00400034014000400140004401405B
:103EA0000048014030B5416EB9B10268916892682E
:103EB000C1F342610B4B520F9C5CE50003F1080417
:103EC000A25CB5FBF2F2A0F86A205A5C615CD200F9
:103ED000B2FBF1F1A0F8681030BD0121A0F86A1022
:103EE000F8E700006248000890F82810090706D596
:103EF00001684A68836B22F400421A434A6090F8D2
:103F00002810C90706D001684A68C36A22F4003243
:103F10001A434A6090F82810890706D501684A6854
:103F2000036B22F480321A434A6090F82810490744
:103F300006D501684A68436B22F480221A434A601E
:103F400090F82810C90606D501688A68C36B22F468
:103F500080521A438A6090F82810890606D50168B5
:103F60008A68036C22F400521A438A6090F8281081
:103F7000490611D501684A68436C22F480121A433D
:103F80004A60416CB1F5801F06D101684A68836CB4
:103F900022F4C0021A434A6090F82810090606D598
:103FA00001684A68C06C22F4002202434A607047EC
:103FB0002DE9F84300260446C0F89060FDF758F854
:103FC0008046206800684FF0200500076FF07E47AC
:103FD00013D54346002229042046009700F0B4F987
:103FE00058B1216851E8000F20F0800041E800023C
:103FF000002AF6D1C4F8885021E020680068400704
:1040000022D5434600224FF480012046009700F05D
:104010009BF9C8B1216851E8000F20F4907041E885
:104020000002002AF6D12068083050E8001F21F075
:10403000010140E80012002AF5D1C4F88C5084F840
:1040400084600320BDE8F883C4F88850C4F88C501D
:1040500044F86C6F666026760020F3E710B50268BE
:1040600052E8001F21F4907142E80013002BF6D1B2
:104070000E4B0268083252E8001F194042E8001453
:10408000002CF6D1C16E012908D1016851E8002F3A
:1040900022F0100241E80023002BF6D12021C0F8C5
:1040A0008C100021C166416710BD0000FEFFFFEFCC
:1040B0002DE9F0410446016880682269E3691043F4
:1040C000626900251A431043DFF84CC20A68934B1B
:1040D0001A4002430A6020684168E26821F44051B6
:1040E000114341602168A069614501D0226A1043F3
:1040F0008A688B4B1A4002438A602068C16A626AF0
:1041000021F00F011143C1628649236886488B4222
:104110000DD1D0F8880010F0030006D0012867D038
:10412000022854D0032851D164E001204FE07F4998
:104130008B420BD1D0F8880010F00C0047D0042837
:1041400045D0082852D00C2840D153E078498B4202
:104150000BD1D0F8880010F0300038D0102847D0AC
:10416000202843D0302831D144E072498B420BD112
:10417000D0F8880010F0C00029D0402838D080281E
:1041800034D0C02822D135E06B498B420ED1D0F813
:10419000880010F440701AD0B0F5807F28D0B0F5B8
:1041A000007F23D0B0F5407F10D123E063450DD1CF
:1041B000D0F8880010F4406009D0B0F5806F17D0B7
:1041C000B0F5006F12D0B0F5406F13D010205B4AED
:1041D0005B4F00264FF40041634539D160B102289E
:1041E0000DD004280DD0082831D10EE00220EEE7D2
:1041F0000420ECE70820EAE7FEF7E0F903E01146C7
:1042000003E0FEF7FFF901007BD0606A37F8102069
:104210006768B1FBF2F007EB4703834269D8B0EB64
:10422000073F66D8002308461946FCF747F80902FD
:1042300041EA106102027808101871413A460023E1
:10424000FCF73CF83F4AA0F54071914257D950E045
:10425000E3694FF6EF788B422BD1092849D2DFE88A
:1042600000F005080D48254848480E00FEF7A6F95D
:1042700001E0FEF7B5F9010001D142E01146606AA4
:1042800037F81000B1FBF0F04100606801EB50011D
:10429000B1FBF0F1A1F1100040452AD84FF6F072C1
:1042A00001EA0200C1F34201084328E0FEF7AAF93F
:1042B000E1E709281DD2DFE800F005080D1C1E1CEF
:1042C0001C1C0E00FEF77AF901E0FEF789F90100E7
:1042D00001D116E01146606A37F81000B1FBF0F129
:1042E000606801EB5001B1FBF0F0A0F11001414515
:1042F00004D9012505E0FEF785F9E8E780B22168D9
:10430000C8600120A4F86A0024F8680F2846E66017
:104310002661BDE8F081000000800040F369FFCF16
:10432000FFF4FF110038014000100240004400403B
:1043300000480040004C0040005000400024F400C1
:104340004A480008FFFC0F002DE9F0479946174640
:104350000D4604464FF00008089E33E0701C31D033
:10436000FCF786FEA0EB0900B04218D8BEB1206869
:104370000168490726D5802D24D0402D22D0C1695F
:10438000C94309070DD4082505622046FFF766FEDC
:10439000C4F8905084F884800120BDE8F0870320A1
:1043A000FBE7C069C04300050CD421684FF40060EE
:1043B00008622046FFF752FE2020C4F8900084F8DF
:1043C0008480ECE72068C06935EA000004D0002052
:1043D000B842C3D00020E0E70120F9E7FEE7000083
:1043E00000B516488DB00078C00724D1134800F0FE
:1043F00058F900B300203F21CDE909100B90104976
:10440000104A0C9005900690CDE907210422CDE9D1
:104410000202019001211420049103460A460090F3
:1044200009490A4800F036F8094A0A49FCF701F937
:104430000248AFF300800DB0044800BD200000200A
:10444000544D0008584D0008444D0008A4040020B5
:1044500000000008E3440008704770477047000000
:1044600010B500F10C030024436004724472054946
:10447000016000F120010122184600F033F80462C7
:104480000C3810BD184A000801490160704700004F
:10449000184A00082DE9F04F89B08A468346DDE9C5
:1044A0001B010DF1480E91469EE8F4118DE8F411C0
:1044B000CDE907014A465146584600F0B5F806498D
:1044C00001601999C1611A9901621D9941621E9991
:1044D000816209B000F002B8684A000830BCBDE84B
:1044E000C08F7047034B0360C0E901120021C16017
:1044F00001617047D04A000870B52D4EDDE90454C3
:1045000040C00EC0002140F8101900F11C024161AA
:1045100081618183C183018441848184C184018557
:104520009173C162018600F8341F012341608160EC
:10453000C1600161017543758175C17540F8181F2F
:1045400004228180C180018141810173016140F8B1
:10455000141F4160037241728172C372017341730F
:104560008173C17301744161017641768376C376AC
:1045700001774277B4FBF2F2C2830323B2FBF3F27A
:104580000284142242840B4A603810600A4A158063
:104590000A4A15800A4A14800A4A14800A4AA54227
:1045A000117001D2012100E0002180F8341070BDAB
:1045B000F44A0008540000204A0000204E00002069
:1045C0004C000020500000204400002000214160E9
:1045D0008160C160016141618161C16101624162CB
:1045E0008162C162016341638163C16301644164AB
:1045F0008164C164016541658165C165016641668B
:104600008166C166016741678167C167C0F8801034
:10461000034AC0F884100260C0F888107047000098
:10462000444C0008704700002DE9F04F0DF1240EB6
:1046300000F01EB88380C48005724672837ADFF86A
:1046400028E067F3060368F3C713837280F80B90C2
:1046500080F80CA0A0F80EB0A0F810C0034B0360C7
:104660004161028300F00AB8E04B00089C4C00084E
:10467000764630CE96E8C01FFFF7DCBF30BCBDE801
:10468000C08F0907090E002804DB00F1E02080F844
:104690000014704700F00F0000F1E02080F8141DB6
:1046A0007047016809B10020704701210160084688
:1046B0007047000003480021018041808180C18053
:1046C000704700003C00002010B5FFF789FE01494B
:1046D000086010BD240000207CB51A481A491B4A06
:1046E00001601B49FBF7A5FF1A48FFF7B9FE174AFF
:1046F0001949FBF79EFF17484430FFF767FF134A3D
:104700001649FBF796FF0F481549001D0F4A016037
:104710001449FBF78EFF0F484FF44874D0304FF424
:1047200016750C49A0F18C02064BCDE90045FFF748
:10473000E3FE0D49016002B0044ABDE870400B4938
:10474000FBF777BF08000020EC49000800000008D4
:104750005B440008500300208944000825460008F7
:10476000044A00085D440008004900085944000854
:1047700001480021016070475800002030380A28A5
:1047800001D2012070470020704700008EB0FCF776
:1047900005FFFFF7D9FAFEF7EDFE22482049012573
:1047A0000160002101714171416105628161FCF785
:1047B000CFFA08B172B6FEE7FEF74CFFFEF79EFF98
:1047C000FEF7F2FFFFF72AF8FEF76EFFFFF760F83B
:1047D00014482430FCF7BEF94FF47A7408B172B66D
:1047E000FEE70DAE00960F48CDE9015401230022EB
:1047F000A8212430FCF7F4FC70B99DF834200AA1FC
:104800006846FBF7D3FD6846FBF72AFF82B22346D2
:1048100069460A48FEF706FC2046FCF7E7FAE1E79E
:10482000003002405C000020526567203078303054
:104830003A203078253032580D0A000070020020EE
:104840004FF04070E1EE100A7047010002000400D2
:10485000060008000A000C00100020004000800044
:10486000000101010103070100000804020408011E
:10487000010100000000000000000000010203042C
:1048800006070809A0860100400D0300801A0600F3
:1048900000350C0040420F0080841E0000093D00DE
:1048A00000127A000024F40000366E010048E8018E
:1048B000006CDC02000000000102030430313233DE
:1048C0003435363738394142434445464030580044
:1048D0003031323334353637383961626364656676
:1048E00040307800040000080000000000000002D2
:1048F00000010000100000000000000000000000A7
:104900005944000800000000000000000000000002
:104910000000000000000000000000000000000097
:104920000000000000000000000000000000000087
:104930000000000000000000000000000000000077
:104940000000000000000000000000000000000067
:104950000000000000000000000000000000000057
:104960000000000000000000000000000000000047
:104970000000000000000000000000000000000037
:104980000000000000000000000000000000000027
:104990000000000000000000000000000000000017
:1049A0000000000000000000000000000000000007
:1049B00000000000000000000000000000000000F7
:1049C00000000000000000000000000000000000E7
:1049D00000000000000000000000000000000000D7
:1049E0000000000000000000000000005B44000820
:1049F00000000000000000000000000000000000B7
:104A000000000000000000005D44000800000000FD
:104A10000000000000000000000000000000000096
:104A20000000000000000000000000000000000086
:104A300000000000894400080000000000000000A1
:104A40000000000000000000000000000000000066
:104A50000000000000000000000000000000000056
:104A60000000000000000000E34400080000000017
:104A70000000000000000000000000000000000036
:104A80000000000000000000000000000000000026
:104A90000000000000000000000000000000000016
:104AA0000000000000000000000000000000000006
:104AB00000000000000000000000000000000000F6
:104AC00000000000000000000000000000000000E6
:104AD00000000000000000000000000000000000D6
:104AE00000000000000000000000000000000000C6
:104AF00000000000000000000000000000000000B6
:104B000000000000000000000000000000000000A5
:104B10000000000000000000000000000000000095
:104B20000000000000000000000000000000000085
:104B30000000000000000000000000000000000075
:104B40000000000000000000000000000000000065
:104B50000000000000000000000000000000000055
:104B60000000000000000000000000000000000045
:104B70000000000000000000000000000000000035
:104B80000000000000000000000000000000000025
:104B90000000000000000000000000000000000015
:104BA0000000000000000000000000000000000005
:104BB00000000000000000000000000000000000F5
:104BC00000000000000000000000000000000000E5
:104BD00000000000000000000000000000000000D5
:104BE00000000000000000000000000000000000C5
:104BF00000000000000000000000000000000000B5
:104C000000000000000000000000000000000000A4
:104C10000000000000000000000000000000000094
:104C20000000000000000000000000000000000084
:104C30000000000000000000000000000000000074
:104C400000000000254600080000000000000000F1
:104C50000000000000000000000000000000000054
:104C60000000000000000000000000000000000044
:104C70000000000000000000000000000000000034
:104C80000000000000000000000000000000000024
:104C90000000000000000000000000000000000014
:104CA0000000000000000000000000000000000004
:104CB00000000000000000000000000000000000F4
:104CC00000000000000000000000000000000000E4
:104CD00000000000000000000000000000000000D4
:104CE00000000000000000000000000000000000C4
:104CF00000000000000000000000000093ECDE292E
:104D000000F7ADDAEF02330000F90A000000F30CFF
:104D1000000000F50A000010FD030000D56F000040
:104D2000B0CF030000E00C000000E00C00000040E9
:104D3000030000000000000000F00E000000F00E74
:104D400000000000000000003F00090E0E010B00F3
:104D50000000000000000000FC4C00088C4D000822
:104D6000000000205C000000F8010008E84D000889
:104D70005C000020D40A0000140200085DF9FFFF67
:104D800049F9FFFF31F9FFFFE9F9FFFF00000000DB
:104D90000000000000000000000000000100000012
:104DA000100000000000000000093D0000000000AD
:104DB00000000000E8030000000000000000000008
:104DC00000000000000000000000000000000000E3
:104DD00000000000000000000000000000000000D3
:084DE0000000000000000000CB
:04000005080001BD31
:00000001FF
