:020000040800F2
:10000000603300204D0300085B4800080D380008ED
:1000100059480008A50900082D5A000800000000F2
:100020000000000000000000000000006D02000859
:10003000D909000800000000C9020008ED520008BC
:1000400067030008670300086703000867030008E8
:1000500067030008670300086703000867030008D8
:1000600067030008670300086703000867030008C8
:1000700067030008670300086703000867030008B8
:1000800067030008670300086703000867030008A8
:100090006703000867030008670300086703000898
:1000A000670300089553000867030008670300080A
:1000B000A1530008AD530008670300081D3800086D
:1000C0001138000867030008670300086703000889
:1000D0006703000867030008670300086703000858
:1000E0006703000867030008670300086703000848
:1000F00067030008670300086703000800000000AA
:100100006703000867030008670300086703000827
:100110006703000867030008670300086703000817
:100120006703000867030008670300086703000807
:1001300067030008670300086703000867030008F7
:1001400067030008670300086703000867030008E7
:100150006703000867030008670300086148000898
:1001600035380008293800086703000867030008CD
:100170006D48000867030008000000000000000050
:1001800067030008DF090008670300086703000829
:10019000670300086703000800000000000000007B
:1001A0000000000000000000A90900088D410008BF
:1001B00081410008E10900086703000800F002F827
:1001C00000F045F80AA090E8000C82448344AAF1AC
:1001D0000107DA4501D100F03AF8AFF2090EBAE8AA
:1001E0000F0013F0010F18BFFB1A43F0010318476B
:1001F000E482000004830000103A24BF78C878C16C
:10020000FAD8520724BF30C830C144BF04680C601C
:10021000704700000023002400250026103A28BF64
:1002200078C1FBD8520728BF30C148BF0B60704768
:100230001FB507F057FD9DE8030000F0C7FA00F076
:10024000E7F91FBD10B5002000F054FA10BD00F012
:1002500011FB1146FFF7ECFF06F05CF800F049FBDC
:1002600003B4FFF7EFFF03BC00F0E4F92C4B19686F
:10027000086800F05AB880F30988BFF36F8F4FF019
:10028000000080F3118870470000000008480068F3
:10029000006880F308884FF0000080F3148862B68D
:1002A00061B6BFF34F8FBFF36F8F00DF00BF00BF9A
:1002B00008ED00E0DFF80C00016841F47001016016
:1002C000704700BF88ED00E0EFF30980BFF36F8F48
:1002D000134B1A681EF0100F08BF20ED108A20E99A
:1002E000F04F106009B44FF0500080F31188BFF355
:1002F0004F8FBFF36F8F06F075FF4FF0000080F354
:10030000118809BC1968086800F014B81EF0100FB5
:1003100008BF00F014B880F30988BFF36F8F7047EF
:1003200030000020EFF30580704730C8B0E8C04FC0
:10033000FFF7A1BF30C8B0E8C04FFFF7E7BFB0EC90
:10034000088AB0EC08CAFFF7E6BF000009488047FA
:1003500009480047FEE7FEE7FEE7FEE7FEE7FEE7A7
:10036000FEE7FEE7FEE7FEE704480549054A064BBF
:100370007047000085530008BD010008602D002073
:1003800060330020602F0020602F002053EA020C11
:1003900000F069802DE9F04B4FF00006002B1FBFE5
:1003A000B3FA83F503FA05F424FA05F65E4012BFAA
:1003B0001643B2FA82F502FA05F4C5F120051EBF14
:1003C00022FA05FC44EA0C04203556EA044C4FEAB4
:1003D000144418BF641C4FF000084FF0000990420D
:1003E00071EB030C39D3002919BFB1FA81F701FA77
:1003F00007F6B0FA80F700FA07F6C7F120071EBF2C
:1004000020FA07FC46EA0C062037B6FBF4FCA7EB03
:100410000507103F07F01F0BCBF120060CFA0BFB72
:100420002CFA06F644BFB3460026202FA4BF5E4632
:100430004FF0000B5BEA060C08BF4FF0010B19EB05
:100440000B09ABFB027C48EB0608C01B06FB02CC89
:100450000BFB03CC71EB0C01C1E70B460246414696
:100460004846BDE8F08B13B54FF000004FF0000197
:10047000AFF30080BDE81C40704710B5002000F0CD
:100480005AF9FFF7DFFEBDE81040012000F0D2B8B6
:100490002DE9F041074615460E46102000F0D4F82D
:1004A00004000AD06760C4E9026500F0C9F8016879
:1004B000216004600020BDE8F0810120FBE7032AF1
:1004C00040F2308010F0030C00F0158011F8013B71
:1004D000BCF1020F624498BF11F801CB00F8013B58
:1004E00038BF11F8013BA2F1040298BF00F801CB1C
:1004F00038BF00F8013B11F0030300F02580083AF3
:10050000C0F0088051F8043B083A51F804CBA0E849
:100510000810F5E7121D5CBF51F8043B40F8043B9E
:10052000AFF30080D20724BF11F8013B11F801CBD3
:1005300048BF11F8012B24BF00F8013B00F801CBA4
:1005400048BF00F8012B704710B5203AC0F00B806F
:10055000B1E81850203AA0E81850B1E81850A0E8C7
:100560001850BFF4F5AF5FEA027C24BFB1E8185021
:10057000A0E8185044BF18C918C0BDE810405FEA91
:10058000827C24BF51F8043B40F8043B08BF70470D
:10059000D20728BF31F8023B48BF11F8012B28BF12
:1005A00020F8023B48BF00F8012B704702F0FF0320
:1005B00043EA032242EA024200F0C6B84FF00002CA
:1005C00000B5134694469646203922BFA0E80C5049
:1005D000A0E80C50B1F12001BFF4F7AF090728BF24
:1005E000A0E80C5048BF0CC05DF804EB890028BFA0
:1005F00040F8042B08BF704748BF20F8022B11F0C9
:10060000804F18BF00F8012B704770477047704744
:1006100070B5064C7C44064D7D4403E020682044C0
:100620008047241DAC42F9D170BD0000DC7E000083
:10063000E87E000001491820ABBEFEE7260002005C
:1006400000487047382D002070B5064600F0A2F82B
:10065000056806F10B0020F00704B4429CBF00209F
:1006600070BD2B466A68BAB11068A04210D304F17D
:10067000080188423CBF5068586007D35168101980
:1006800041601168091B016058601460101D70BD45
:1006900013465268002AE7D12146284600F082F826
:1006A0000028DED170BD70B50446051F00F072F859
:1006B0000068002C14BF446870BD002C18BFAC4209
:1006C0003CBF20466468F8D301680A18AA4218BFE4
:1006D000456003D12A680546114401602868411924
:1006E000A1421CBF6C6070BD6168696021680844EC
:1006F000286070BD2DE9F0410646FFF7A1FF804656
:10070000454613E016B1E068B0420ED1206828607B
:10071000D4E90101D8F8007088472046FFF7C3FFED
:10072000D8F80000B842EBD100E025462C68002C38
:10073000E8D1BDE8F08110B500F084F8BDE81040C4
:1007400000F07AB84FF000020429C0F0128010F0D7
:10075000030C3FF435AFCCF1040CBCF1020F18BF11
:1007600000F8012BA8BF20F8022BA1EB0C01FFF72A
:1007700027BF5FEAC17C24BF00F8012B00F8012BE2
:1007800048BF00F8012B704700487047002D00203B
:100790007047000000487047082D002070477047E0
:1007A0007047704738B504460A4600206946AFF3E3
:1007B0000080002808BF38BD02460099204600F09E
:1007C0007EF8012038BD012000F0B5B8F8B5AFF3D0
:1007D0000080054600200C46102000BF0646A819E0
:1007E000A0420DD9324669460020AFF300800700D1
:1007F00008BF00F0A0F80098A04218BF0546C41931
:10080000FFF7C8FF05600746F01D20F007004619F6
:10081000284600F00AF8B44208BFF8BDA21B3146D2
:100820003868BDE8F84000F04AB800210160C0E92E
:100830000110704710207047002801D0FFF7FABE62
:100840007047000010B5002102A000F05BF8012005
:1008500010BD0000534947414252543A2041626E54
:100860006F726D616C207465726D696E6174696F11
:100870006E0000007546FFF787FFAE46050069462B
:10088000534620F00700854618B020B5FFF76CFDF1
:10089000BDE820404FF000064FF000074FF0000881
:1008A0004FF0000B21F00701AC46ACE8C009ACE802
:1008B000C009ACE8C009ACE8C0098D4670470346E2
:1008C00040688C46002818BF88423CBF03464068F9
:1008D000F8D318681844884207D00CF1030020F0C0
:1008E0000700001D411A521A0146081D0A60FFF751
:1008F000DABE10B50446AFF300802046BDE81040D4
:10090000FFF7AEBC70B505460C460A2000E06D1C32
:1009100000F018F835B128780028F8D102E0641CFE
:1009200000F010F814B120780028F8D1BDE870402C
:100930000A2000F007B810B500F00CF8BDE8104030
:10094000FFF77ABF08B569468DF800000320ABBEFB
:1009500008BD000010B5012805D0002103A0FFF755
:10096000D1FF012010BD09A1F8E70000534947520B
:10097000544D454D3A204F7574206F66206865616F
:1009800070206D656D6F7279000000003A20486537
:100990006170206D656D6F727920636F7272757012
:1009A00074656400FEE700000948416889070ED5B8
:1009B000016889050BD5016821F4007101600221ED
:1009C00081600448006840680168496908477047C9
:1009D00000B00240E8000020704772B6FEE77047A2
:1009E000014800F078B9000074010020F0B5044619
:1009F0000020CB0711D01E235FF0010603F01F0774
:100A000006FA07F50D4201D15B1EF7D27AB1082A2A
:100A10000BD0102A06D0182A01D00120F0BD072BD8
:100A2000FBD204E0082BF8D201E0102BF5D22368AA
:100A3000596121688B6823F0180313438B60F0BD64
:100A400010B5040010D0607F20B900202077204628
:100A500000F030F802206077207938B1D4E9021232
:100A60002046FFF7C3FF48B1012010BD21681048A0
:100A700048612068816821F0180181606079A0B127
:100A800020692168086120688168626921F060013D
:100A90001143816020688168A26921F080011143BF
:100AA000816001206077002010BD4FF0FF30E8E743
:100AB000B71DC10408B500680649884208D1064838
:100AC000816C41F480518164806C00F4805000900E
:100AD00008BD00000030024000100240F0B590F860
:100AE0005820012A2CD0012680F85860022280F874
:100AF000592001EB410200EBC202158F148ED36A1C
:100B0000978F2D0543EA044445EA47552C431F4D72
:100B100028320A2B16D0092B14D0137B44EA036326
:100B20000029016813D0CC69AC431C43CC61036835
:100B30001168196151680A291BD0092919D01DE0D3
:100B40000220F0BDD36803F07F432343E8E74C6AFB
:100B5000AC431C434C6203681168996151680A29CF
:100B600001D009290AD1D168026821F07F41916240
:100B700004E0D168026821F07F41116280F8596079
:100B8000002180F858100846F0BD00000F0033FF28
:100B900070B5040004D094F85900002510B106E0A7
:100BA000012070BD84F85850204600F031F8022032
:100BB00084F859006168E069014320680268134BBA
:100BC0001A4011430160A168A06901432068426B8B
:100BD00040F207139A43114341632068016CE268B5
:100BE0006FF30F0111430164208AA18A000540EAD6
:100BF00041512068426B22F4401211434163E56584
:100C0000012084F85900002070BD0000BFFFF8FFEC
:100C100008B500680649884208D10648816C41F44D
:100C200000318164806C00F40030009008BD000049
:100C300000B002400010024010B590F825100024CA
:100C4000022903D00421C16301242BE001680A6852
:100C500022F00E020A6001680A6822F001020A60AE
:100C6000816C0A6822F480720A6090F84410036C68
:100C700001F01C01012202FA01F15960D0E91313BD
:100C80004B60416D31B10B6823F480730B60D0E988
:100C900016134B6080F82520002180F82410816B0A
:100CA00001B18847204610BD90F82500704700002C
:100CB00070B5044600F09EF90546601C02D0044859
:100CC0000078044400F096F9401BA042FAD370BDAE
:100CD00008000020704710B502685168136803F0DF
:100CE0001F03194005D09160826A0A438262FFF7B0
:100CF000F1FF10BD70B504004FF000050FD000F0FB
:100D00002BF82068016821F05F010160206801680C
:100D1000626811430160207F012802D006E00125AE
:100D200018E020680168226A114301602168A06808
:100D300008612168E06808622168206948622168CA
:100D4000606988622168A069C8620020A0620120F1
:100D500084F82400284670BD08B500680B49884215
:100D600012D10B48816C41F480218164806C002297
:100D700000F48020009005215D2000F025FEBDE8F4
:100D800008405D2000F012BE08BD000000C0024017
:100D9000001002402DE9F04FDFF8209200230126D9
:100DA0000325A9F1040B85B00F2709F1040AABF163
:100DB000040EFBE006FA03FC12EA0C027ED00C796A
:100DC00004F00304012C01D0022C20D1846800948B
:100DD0005C0005FA04F80494009C24EA08040094DA
:100DE000D1F80C80049C08FA04F8009C48EA040836
:100DF000C0F80880446824EA0C0491F804C0CCF3DD
:100E0000001C0CFA03FC4CEA040CC0F804C00C797A
:100E1000E443A4070ED0C4684FEA430805FA08FC6F
:100E200024EA0C04D1F808C00CFA08FC4CEA040CC3
:100E3000C0F80CC00C7904F00304022C15D1DC08B6
:100E400000EB84040294246A4FEA437C4FEADC6896
:100E500007FA08FC24EA0C04D1F810C00CFA08FCCC
:100E60004CEA040C029CC4F820C004684FEA430812
:100E700005FA08FC24EA0C0491F804C00CF0030CF9
:100E80000CFA08FC4CEA040CC0F800C04C6814F4DE
:100E9000403F13D04A4CD4F860C04CF0010CC4F869
:100EA00060C0246E23F0030C04F001040094454C50
:100EB00064440294A4684FEA837C00E075E04FEA42
:100EC0001C7807FA08FC24EA0C04B0F1904F06D015
:100ED000DFF8F4C0604505D14FF0010C2EE04FF073
:100EE000000C2BE0DFF8E4C0604502D14FF0020CAB
:100EF00024E0DFF8DCC0604502D14FF0030C1DE0B8
:100F0000DFF8D0C0604502D14FF0040C16E0DFF8E6
:100F1000C8C0604502D14FF0050C0FE0DFF8BCC03F
:100F2000604502D14FF0060C08E0DFF8B4C0604520
:100F300002D14FF0070C01E04FF0080C0CFA08FC4E
:100F40004CEA040C029CC4F808C0D9F80040CC4616
:100F5000D1F8048094435FEAC82800D51443CCF844
:100F60000040DAF80040D446D1F8048094435FEAA8
:100F7000882800D51443CCF80040DBF80040DC465C
:100F8000D1F8048094435FEA883800D51443CCF844
:100F90000040DEF80040F446D1F8048094435FEA54
:100FA000C83800D51443CCF800405B1C0A6832FAFC
:100FB00003F47FF4FFAE05B000F014B8080401405C
:100FC00000100240000001400004004800080048F2
:100FD000000C0048001000480014004800180048A9
:100FE000001C004830BCBDE8C08F0AB18161704769
:100FF0008162704701488068704700000800002047
:1010000090F84120202A24D190F84020012A20D0B5
:10101000012280F84020242280F8412002681368D1
:1010200023F0010313600268136823F480531360F4
:10103000026813680B43136001680A6842F00102FA
:101040000A60202180F84110002180F840100846F5
:1010500070470220704790F84120202A22D190F852
:101060004020012A1ED0012280F84020242280F84E
:1010700041200268136823F00103136002681368BB
:1010800023F4706343EA0121116001680A6842F0A9
:1010900001020A60202180F84110002180F84010F0
:1010A00008467047022070477047704730B40368A5
:1010B0009A691968D243D40509D4CC43240606D4CE
:1010C000446C44F0010444644FF48074DC615305C3
:1010D0000AD4CB431B0607D4436C43F00803436494
:1010E00004684FF48063E36192050AD4C94309069A
:1010F00007D4416C41F00201416402684FF4007171
:10110000D161416C11F00B0F02D030BC02F028BC51
:1011100030BC7047026891691268436B002B00D0A5
:10112000184770477047000070B5040004D094F869
:101130004100002510B106E0012070BD84F8405048
:10114000204600F0B7F9242084F8410020680168A7
:1011500021F0010101606068216820F07060086181
:101160002068816821F400418160E0680128A0685E
:1011700030D040F4044021688860E068022820688C
:1011800041682AD021F40061416020684168144A16
:10119000114341602068C16821F40041C160D4E975
:1011A00004010843A16940EA01202168C860D4E92C
:1011B00007010843216808602068016841F00101C7
:1011C00001606564202084F84100256384F8425062
:1011D000002070BD40F40040CDE741F40061D3E74A
:1011E00000800002704700002DE9FF4F83B00446E5
:1011F000DDE9108790F84100DDF848A09B462028E3
:1012000076D15FEA080015D0A7B194F84000012814
:101210006ED04FF0010984F84090FFF7EBFE0646D0
:10122000012200901923D103204602F014FF002868
:1012300072D103E04FF4007060646DE0222084F806
:101240004100402084F8420000256564C4F82480F1
:1012500067856563CDE900A6DDE904125B4620469B
:1012600002F0DCFD10B184F8405055E0618D354846
:101270004FF080774FF00078FF2905D9A4F8289027
:101280004A463B46009005E0618D2185009094F828
:10129000282043462046049902F0B0FE534600221F
:1012A00004212046009602F0D6FEA8BB2068406AC2
:1012B000616A0870606A401C6062208D401E81B2C5
:1012C0002185608D401E6085608DE0B1D9B953469F
:1012D000002280212046009602F0BDFEE0B9608D1C
:1012E000FF2806D9A4F828904A463B46009506E018
:1012F00026E0608D2085009594F8282043462046FE
:10130000049902F07BFE608D0028C7D13246514619
:10131000204602F0DDFE18B1012007B000F016B83B
:1013200021682020C86121684A68074B1A404A603A
:1013300084F8410084F8425084F840500020ECE7E3
:101340000220EAE70024008000E800FE30BCBDE88F
:10135000C08F00002DE9FF4F83B00446DDE9108700
:1013600090F84100DDF848909A469346202871D1C4
:101370005FEA080014D09FB194F84000012869D0BA
:10138000012084F84000FFF735FE06460122009058
:101390001923D103204602F05EFE00286ED103E03F
:1013A0004FF40070606469E0212084F8410040201F
:1013B00084F8420000256564C4F82480678565636D
:1013C000CDE9009653465A462046049902F058FD4E
:1013D00010B184F8405051E0608DFF274FF08078C5
:1013E0004FF0007AFF2804D927853A4643460095F6
:1013F00005E0608D2085009594F82820534620460E
:10140000049902F0FBFD32464946204602F08BFE6D
:10141000A0BB606A216800788862606A401C6062D4
:10142000608D401E6085208D401E80B22085618DBC
:10143000D9B1D0B94B46002280212046009602F057
:101440000AFED8B9608DFF2805D927853A4643465C
:10145000009506E026E0608D2085009594F8282010
:1014600053462046049902F0C9FD608D0028CAD178
:1014700032464946204602F02BFE18B1012007B043
:1014800000F014B820682021C16120684268064B32
:101490001A40426084F8411084F8425084F8405069
:1014A0000020ECE70220EAE700E800FE30BCBDE8DF
:1014B000C08F000030B5ADB00446142126A8FFF758
:1014C0007DF898216846FFF779F81F49206888421F
:1014D00038D14020002500901595684600F0D6FED2
:1014E00008B1FFF77AFA194CE06C40F00200E064B2
:1014F000E06C26A900F002002B904FF4407026907B
:101500001220CDE927050320299004202A901048B5
:10151000FFF740FCA06D40F40010A065A06D002214
:1015200000F400102B9005211F2000F04DFA1F2021
:1015300000F03CFA00220521202000F045FA20208E
:1015400000F034FA2DB030BD0054004000100240CD
:1015500000040048704770470248816802781144CF
:10156000816070470800002010B50024032000F0BF
:101570004BFA0F2000F008F808B1012401E000F058
:10158000E7F9204610BD000030B505461C4887B07D
:10159000016E41F400610166006E06A900F400606E
:1015A000009001A801F07EF901F0AEF91549164A44
:1015B000B0FBF1F11548491E0260416040F2E7328C
:1015C0000021C0E903218160816101F04FFE040028
:1015D00012D10E4801F0ACFE04000DD1192000F02C
:1015E000E5F9102D07D200222946192000F0ECF968
:1015F0000748056000E0012407B0204630BD000028
:101600000010024040420F00002C0140CC0400209A
:101610000C0000202DE9F041044690F8A000164689
:101620000F4601281DD0012584F8A050022084F81F
:10163000A10006EB860000EBC60004EB800034221C
:101640003830FEF781FF32463946204602F0A4FDCD
:101650002068456284F8A150002084F8A000BDE80D
:10166000F0810220FBE770472DE9F0410446006855
:10167000856B466B69074FF004084FF0000715D5DE
:10168000710713D5416B21F0040141632168C1F852
:101690003C80D4F8A41041F00101C4F8A41084F8EF
:1016A000A18084F8A0702046FFF7DDFFA80716D5BB
:1016B000B00714D52068416B21F002014163216815
:1016C0000220C863D4F8A40040F00200C4F8A400CB
:1016D00084F8A18084F8A0702046FFF7C4FF05EAD3
:1016E0000600C0074FF001080ED02068416B21F0C2
:1016F000010141632168C1F83C8084F8A18084F82D
:10170000A070204600F073F8280710D530070ED5DA
:101710002068416B21F00801416321680820C863FB
:1017200084F8A18084F8A070204600F00FF9BDE88D
:10173000F08170B5040004D094F8A100002510B128
:1017400006E0012070BD84F8A050204600F052F859
:10175000022084F8A1002068816921F07041816134
:10176000D4E901010843D4E9031211430843216875
:101770008A6910438861A08AA16941EA0041206812
:101780008160A08B216A41EA00412068C160A08C81
:10179000A16A41EA004120680161A08D216B41EA04
:1017A00000412068416194F835002168030294F8F3
:1017B0003600CA6A02F07F42CA622168CA6A94F897
:1017C000346043EA004032430243CA622068416BFE
:1017D00041F0060141632068816941F001018161A6
:1017E000C4F8A450012084F8A100002070BD04F0CA
:1017F0003DBB0000F0B5ADB00446142126A8FEF7AD
:10180000DDFE98216846FEF7D9FE4A4920688842E5
:101810007ED100244FF48000239400900320089090
:10182000012009901B200225CDE90A050420CDE9FD
:101830000C5080050E90684600F028FD08B1FFF7B7
:10184000CCF83D48016E41F080610166016E01F007
:1018500080612B91C16C41F02001C164C16C01F029
:1018600020012B91C16C41F01001C164C16C01F0E9
:1018700010012B91C16C41F00801C164C16C01F0F1
:1018800008012B91C16C41F04001C164C06C00F0B3
:1018900040002B9000F096FC4FF400602690CDE9BC
:1018A00027540920CDE92940244F26A93846FFF7BF
:1018B00071FA4FF470402690CDE927540B26CDE9FC
:1018C000294626A93846FFF765FA4FF68370269019
:1018D000CDE92754CDE9294626A91948FFF75AFA38
:1018E0004DF60B702690CDE92754CDE9294626A95F
:1018F0001448FFF74FFA4FF4C0402690CDE9275423
:10190000CDE9294626A91048FFF744FA002200E055
:101910000EE005215B2000F057F85B2000F046F850
:10192000002205215C2000F04FF85C2000F03EF81A
:101930002DB0F0BD006801400010024000140048C6
:1019400000100048000C00480018004870470000D4
:101950003EB50024144800940194016E41F0010149
:101960000166016E01F001010291816D41F080512B
:101970008165806D224600F0805002900F21A01EEC
:1019800000F022F800220521512000F01DF851201E
:1019900000F00CF80E20CDE90004684600F02EFCA3
:1019A00000F06CFC3EBD000000100240002809DB86
:1019B00000F01F02012191404009800000F1E02069
:1019C000C0F8001170470000F0B40E4B1B680C46C5
:1019D000C3F30223C3F10705042D00D90425191D03
:1019E000072901D2002300E0DB1E012606FA05F1DB
:1019F000491E214099409E40761E16403143F0BC5E
:101A000004F0E9BB0CED00E0064900F007020868AD
:101A10004FF6FF03184040EA0220034A10430860D3
:101A2000704700000CED00E00000FA052DE9F04FD2
:101A30000C4683460168A6484FF000098BB04E461D
:101A4000814202D10025012001E0012500208246CB
:101A50000027E84607EB87017F1C08EB8101F8B2FD
:101A600002F00AFF20B108204FF00109CBF848002E
:101A7000FFB2022FEED3B9F1000F7DD1944A106866
:101A8000C00705D0106820F00100106046F0010684
:101A9000DFF840B2DBF80000C00707D0DBF8001029
:101AA00021F00101CBF8001046F0020605EB850C91
:101AB00008EB8C03C64699688F0087490F44D7F816
:101AC000008C28F48078C7F8008C5EF82C70012018
:101AD00067B301EB8707D7F800CC2CF0010CC7F8EF
:101AE00000CC5F683FB101EB8707D7F800CC2CF042
:101AF000100CC7F800CCD3F80CC0BCF1000F09D013
:101B000020EA0C0701EB8707D7F804CC2CF4803CC3
:101B1000C7F804CC1F694FB120EA070301EB830328
:101B2000D3F8047C27F08077C3F8047C0AEB8A039F
:101B3000F2465EF823E0D4F800C0F4451BD00AEB6F
:101B40008307D4F808C0D7F80880C44513D0D4F868
:101B500004C0D7F80480C44502D1BCF1000F0AD1FB
:101B6000D4F80CC0D7F80C80C44504D0D4F810C009
:101B70003F69BC4536D100E0A6E001EB8E07D7F8FF
:101B800000CC2CF0010CC7F800CC0AEB83035F6893
:101B90003FB101EB8707D7F800CC2CF0100CC7F849
:101BA00000CC9F6801EB8707D7F800CC2CF4807C31
:101BB000C7F800CCDF684FB120EA070C01EB8C07B7
:101BC000D7F804CC2CF4803CC7F804CC1F694FB183
:101BD00020EA070301EB8303D3F8047C27F0807726
:101BE000C3F8047CA36801EB8303D3F8007C27F4DB
:101BF000407747EA452747F48077C3F8007C23689D
:101C000001EB8303D3F8007C00EB450C27F00307BE
:101C100047EA0C07C3F8007C63685BB101EB830300
:101C2000D3F8007C27F0300747EA451747F0100744
:101C3000C3F8007CE368DF030CD520EA030701EB5F
:101C40008703D3F8047C27F4E02747EA854747F465
:101C500080370CE06BB120EA030701EB8703D3F870
:101C6000047C27F0E06747EA856747F08077C3F890
:101C7000047C2369DC030BD5984301EB8000D0F88A
:101C8000041C21F4E02141EA854141F440310BE09C
:101C900063B1984301EB8000D0F8041C21F0E061AF
:101CA00041EA856141F04071C0F8041CF00703D09F
:101CB000106840F001001060B00705D5DBF8001097
:101CC00041F00101CBF800100BB0484600F006B817
:101CD000001000A0001400A00010065030BCBDE8A9
:101CE000C08F704770477047704700002DE9F04182
:101CF0000446006800F15006026A0368616C5507EB
:101D00001FD55D031DD5182902D0282904D00CE069
:101D1000606B0078307002E03078616B0870606B47
:101D2000401C6063E06B401EE063E06B20B92068FC
:101D3000016821F4802101602046FFF7D5FFBDE84E
:101D4000F08197074FF0020541D59F033FD5282921
:101D500010D045622068026822F4E02202606564C7
:101D6000182924D0082926D0B1F5807FE7D1A06CAE
:101D700028B328E0E16B61B112F47C5F09D03078C0
:101D8000616B0870606B401C6063E06B401EE06339
:101D9000D5E7E16B0029D2D145622068016821F4C2
:101DA000E02101606564204600F0AAF9C7E72046FB
:101DB00000F0A9F9C3E72046FFF794FFBFE72046EC
:101DC000FFF78FFFBBE72046FFF78DFFB7E711074F
:101DD00010D519030ED50821416220680168490217
:101DE00004D5016821F4102101606564204600F0EB
:101DF00088F9A4E7D1071BD0D90319D50121416285
:101E00002068016821F4F8110160A5642068016868
:101E100049070BD5016821F004010160216C0948D4
:101E20008863206CFEF708FF002888D06564CAE745
:101E3000D10684D5D90282D510214162204600F016
:101E400061F97CE745490008F8B504460025FFF72D
:101E5000D1F8064624B10020A064606C10B161E0A6
:101E600001255FE0204600F065F841F28830E0642B
:101E7000216BE0682D4A0843218A636902EB014225
:101E80006FF0FF0101EB03231A431043E269104393
:101E900022689368264D2B4018439060A08D2268DD
:101EA0000004106120680268636822F4F85201EBB4
:101EB00003210A430260E06C009033460022202197
:101EC000204602F060FD05002CD12068C168226A1E
:101ED00021F0FF01521E1143C16020680168A26811
:101EE00021F0400111430160D4E909010843216850
:101EF000D1F8082122F0A0421043C1F8080120685F
:101F0000016841F001010160A069022804D1206844
:101F1000816841F002018160E068B0F1806F03D018
:101F2000022060642846F8BD0120FAE70000FFFFA8
:101F3000F4F8E0F82DE9F043ADB00446142126A8EA
:101F4000FEF73CFB98216846FEF738FB654A20689F
:101F50001103654F0226DFF894910025644C4FF081
:101F60000308904269D168462495009100F08EF9EB
:101F700008B1FEF732FD3868401C3860012807D1EF
:101F8000E06C40F48010E064E06C00F480102B9072
:101F9000206D40F480702065206D00F480702B90DF
:101FA000E06C40F02000E064E06C00F020002B903A
:101FB000E06C40F00400E064E06C00F004002B9062
:101FC000E06C40F00100E064E06C444600F0010089
:101FD0002B904FF47070CDE92606CDE928540A27DE
:101FE00026A9C8462A974846FEF7D4FE4FF48060DB
:101FF000CDE92606CDE9285426A92A944046FEF7C5
:10200000C9FE1E20CDE92606CDE9285426A92A9727
:102010003848FEF7BFFE0420CDE92606CDE9285456
:1020200026A92A974FF09040FEF7B4FE0022052122
:102030004720FFF7C9FC47204EE02F4A90424DD180
:1020400068462495009100F021F908B1FEF7C5FC1F
:102050003868401C3860012807D1E06C40F48010DB
:10206000E064E06C00F480102B90206D40F4007070
:102070002065206D00F400702B90E06C40F0200093
:10208000E064E06C00F020002B90E06C40F0400039
:10209000E064E06C00F040002B9000F093F81F200B
:1020A000CDE92606CDE928580527444626A92A97D2
:1020B0004846FEF76FFE41F20360CDE92606CDE902
:1020C000285426A92A970D48FEF764FE0022052110
:1020D0004C20FFF779FC4C20FFF768FC2DB0BDE8E1
:1020E000F0830000001000A004000020001400484D
:1020F0000010024000080048001400A0001800482A
:1021000070477047704770472B492C4B0A68322143
:102110004A432B4940B1B0F5007F086829D020F42C
:10212000C06040F480602CE00868C0F341200228C1
:1021300004D051F8800F20F4807022E0D1F88000A4
:1021400020F48070C1F88000086820F4C06040F47A
:1021500000700860B2FBF3F0401C00E0401E4A69CA
:10216000520501D50028F9D1486940050AD5032058
:102170007047C0F34120022806D051F8800F40F488
:102180008070086000207047D1F8800040F48070B3
:10219000C1F88000086820F4C06040F40070086056
:1021A000B2FBF3F0401C00E0401E4A695205DBD54B
:1021B0000028F9D1D8E700001400002040420F00A9
:1021C000007000400248416841F40071416070476E
:1021D0000070004008480168C1F34121022906D07F
:1021E000D0F88000C00505D54FF4007070474FF45B
:1021F00080607047002070470070004030B51D4976
:102200004A68036822F00E021A434A601A490A68B3
:1022100022F480320A600C1F226822F4803222608D
:10222000154A0832136823F4803313600B1D1D68B0
:1022300025F480351D604568ED0303D5256845F418
:10224000803525604468A40303D50C6844F48034C9
:102250000C600179C90703D0196841F48031196015
:102260000079800703D5106840F4803010600020AA
:1022700030BD000000700040040401400248416885
:1022800041F0010141607047007000402DE9F84FB6
:10229000044600260088FB4D3746010504F1200B5B
:1022A0001ED5E06E40280AD003DC68B1202804D196
:1022B0000FE0602821D080281FD001260FE0E868B9
:1022C00040F48030E86018E00021201D02F080FB1F
:1022D00003E00021584602F00FFC06000DD03746FF
:1022E0002088C0042BD5206FB0F5007F16D00DDC00
:1022F000C8B1B0F5807F0FD11AE0D5F89C00E16E2F
:1023000020F0E0000843C5F89C00E9E7B0F5407F05
:1023100013D0B0F5806F10D001260FE0E86840F4CC
:102320008030E86009E00021201D02F051FB03E04D
:102330000021584602F0E0FB0646F6B13746206819
:10234000800360D5A86D4FF00008C00009D4A86DC7
:1023500040F08050A865A86D4FF0010800F0805053
:102360000090DFF824A3DAF8001041F48071CAF875
:102370000010FEF73FFE81460EE0D5F89C00216F6D
:1023800020F4E0600843C5F89C00D8E7FEF732FE71
:10239000A0EB090002282DD8DAF80000C005F5D519
:1023A0004EBBD5F8900010F4407015D0D4F89410BE
:1023B000814211D0D5F89000D5F8901020F44070EB
:1023C00041F48031C5F89010D5F8901021F4803197
:1023D000C5F89010C5F89000C0077DD0FEF70AFE42
:1023E000814641F2883AACE0FEF704FEA0EB090119
:1023F000514572D903263746B8F1000F03D0A86DB6
:1024000020F08050A8652078C00707D0D5F8880054
:10241000E16B20F003000843C5F8880020788007AE
:1024200007D5D5F88800216C20F00C000843C5F8CA
:1024300088002078400707D5D5F88800616C20F027
:1024400030000843C5F888002078000707D5D5F884
:102450008800A16C20F0C0000843C5F888002078EF
:10246000C00607D5D5F88800E16C20F44070084319
:10247000C5F888002078800607D5D5F88800216D3A
:1024800020F440600843C5F888002088800507D5FF
:10249000D5F88800616E20F440200843C5F8880014
:1024A0002088400507D5D5F88800A16E20F440109B
:1024B0000843C5F888002078400607D5D5F888007D
:1024C000616D20F440500843C5F88800207800066C
:1024D0000AD5D5F8880001E038E032E0A16D20F49B
:1024E00040400843C5F888002088C00507D5D5F8C6
:1024F0008800E16D20F440300843C5F8880020686A
:10250000C00207D5D5F89C00216E20F003000843D7
:10251000C5F89C0020884FF0006880044FF0806967
:1025200027D5D5F88800616F20F040600843C5F8D2
:102530008800606F404513D1E86840F48010E8607F
:1025400017E0D5F8900080077FF54EAFD5F89000E2
:10255000D4F8941020F440700843C5F890004BE77D
:10256000484506D10121201D02F032FA060000D0B4
:102570000746206800032ED5A06F4FF480418842A3
:10258000D5F89C0004D140F48040C5F89C000BE0D5
:1025900020F48040C5F89C00D5F88800A26F20F098
:1025A00040601043C5F88800A06F404503D1E8683B
:1025B00040F4801004E0884204D1E86840F48030A0
:1025C000E86008E0484506D10121201D02F000FA2C
:1025D000060000D007462068400318D5D5F88800CB
:1025E000E16F20F040600843C5F88800E06F404587
:1025F00004D1E86840F48010E86008E0484506D15E
:102600000121201D02F0E4F9060000D007462088D1
:10261000400414D5D5F88800D4F8801020F040503C
:102620000843C5F88800D4F88000B0F1805F06D177
:102630000221201D02F0CCF9060000D007462068D8
:10264000C00308D5D5F89C00D4F8841020F004000D
:102650000843C5F89C002068800208D5D5F89C0086
:10266000D4F8881020F018000843C5F89C002068B2
:10267000400227D5286820F080502860FEF7BAFC79
:1026800080460BE00010024000700040FEF7B2FCF4
:10269000A0EB0800022801D9032612E02868800078
:1026A000F4D476B9D5F89C00D4F88C1020F44030DE
:1026B0000843C5F89C000221584602F01DFA0600A6
:1026C00000D037462068C00110D5D5F89C0054F8DA
:1026D000901F20F440100843C5F89C002068B0F516
:1026E000001F03D1E86840F48010E860384600F02D
:1026F00000B818BCBDE8E08F704700002DE9F04736
:102700000E4605004FF000077ED0DFF87081D8F844
:10271000000000F00F00B0420CD2D8F8001021F0F9
:102720000F013143C8F80010D8F8000000F00F0086
:10273000B0427CD12878524C80070AD5A868A1689D
:1027400001F0F001884204D9A16821F0F0010143B1
:10275000A1602878C00749D06868DFF8289103286D
:1027600010D0022814D00028206814D0400500287A
:102770005DDA00F0DBF8484516D9A06810F0F00FDC
:102780000BD011E02068800151D502F049FAF2E740
:1027900020688003EBE78007E9E7A06820F0F000FD
:1027A00040F08000A0608027A068696820F00300E6
:1027B0000843A060FEF71EFC814641F2883A08E01B
:1027C000FEF718FCA0EB0901514502D90320BDE832
:1027D000F087A068696800F00C00B0EB810FEFD1C2
:1027E000802F03D1A06820F0F000A0602878800737
:1027F0000CD5A868A16801F0F001884206D2A16852
:1028000021F0F001014300E011E0A160D8F80010D0
:10281000404601F00F01B1420BD9016821F00F01D0
:1028200031430160006800F00F00B04201D0012088
:10283000CDE72878400705D5A068E96820F4E06076
:102840000843A0602878000706D5A068296920F40D
:10285000605040EAC100A06000F068F8A1680A4A30
:10286000C1F30311515C01F01F01C8400749086022
:1028700007480068BDE8F047FEF786BE002002402A
:102880000010024000B4C4043C7D00081400002085
:102890000C0000200248016841F4002101607047EB
:1028A000001002400F2202600C4A936803F00303F9
:1028B0004360936803F0F0038360936803F4E0637C
:1028C000C36092684FF4E06303EAD20202610448F5
:1028D000006800F00F000860704700000010024020
:1028E000002002400548064900688968054AC1F38E
:1028F0000221515C01F01F01C84070471400002004
:10290000001002407C7D000805480649006889687F
:10291000054AC1F3C221515C01F01F01C840704754
:1029200014000020001002407C7D000870B525498D
:10293000002318468A68CC6812F00C0204F00306E3
:10294000214C4FEA640509D00C2A05D0042A32D064
:10295000082A00D1284670BD012E10D10B681B0734
:1029600004D4D1F89430C3F3032302E00B68C3F31B
:102970000313164E56F82330DAB10C2AEBD1C8688F
:1029800000F00300022818D0032818D01846CA689F
:10299000CB68C2F30312C3F306234343521CB3FBB9
:1029A000F2F2C868C0F34160401C4000B2FBF0F096
:1029B00070BD184670BD204670BD2046E7E728462A
:1029C000E5E70000001002400024F4004C7D000800
:1029D00010B5044CE069C00503D5FFF78DFEA015C6
:1029E000206210BD001002402DE9F84304006FD0B2
:1029F000FA4DA86800F00C06E86800F0030720789C
:102A0000C00664D576B10C2E01D1012F0AD0A06981
:102A1000002828687AD040F001002860FEF7EAFA22
:102A200080465DE02868800702D5A0690028DED0D6
:102A3000216A2868000703D5286800F0F00004E048
:102A4000D5F89400F02202EA1010814216D9084607
:102A500002F01EF900283BD1286840F008002860E9
:102A60002868216A20F0F000084328606868E1695E
:102A700020F47F4040EA0120686016E0286840F0BA
:102A8000080028602868216A20F0F00008432860C8
:102A90006868E16920F47F4040EA0120686026B957
:102AA000206A02F0F5F80028D5D1FFF73FFFA968AA
:102AB000CB4AC1F30311515C01F01F01C840C94961
:102AC0000860C9480068FEF75FFD00287ED12EE04F
:102AD000CAE000BFFEF78EFAA0EB0800022876D805
:102AE00028688007F6D5286840F008002860286824
:102AF000216A20F0F000084328606868E16920F44A
:102B00007F4040EA0120686011E0FFE720F001000B
:102B10002860FEF76FFA804606E000BFFEF76AFA0B
:102B2000A0EB08000228DAD828688007F6D42078BD
:102B3000C00740D0082E18D00C2E01D1032F14D07E
:102B40006068B0F5803F17D0B0F5A02F286817D087
:102B500020F480302860286820F480202860606895
:102B6000E0B1FEF747FA804614E02868800322D5DA
:102B70006068002878D01EE0286840F48030EDE7D7
:102B800040F480202860F7E7FEF734FAA0EB080055
:102B90006428A4D828688003F6D50CE0FEF72AFA4A
:102BA000804605E0FEF726FAA0EB0800642896D8D8
:102BB00028688003F6D4207880073BD5042E11D0F6
:102BC0000C2E01D1022F0DD0E06801E0AEE1FFE054
:102BD000002828681ED040F480702860FEF70AFAAA
:102BE00007460CE0286840050CD5E0680028C1D0F5
:102BF00008E000BFFEF7FEF9C01B022893D8286842
:102C00004005F7D56868217C20F0FE4040EA01606D
:102C100068600FE020F480702860FEF7EBF907464B
:102C200005E000BFFEF7E6F9C01B0228B1D828680E
:102C30004005F7D42078000729D560690028D5F829
:102C4000940012D040F00100C5F89400FEF7D2F9CC
:102C5000074604E0FEF7CEF9C01B022899D8D5F844
:102C600094008007F6D512E02BE120F00100C5F8B2
:102C70009400FEF7BFF9074605E000BFFEF7BAF97A
:102C8000C01B022885D8D5F894008007F6D4207898
:102C9000400766D5A86D0027C00008D4A86D40F095
:102CA0008050A865A86D012700F0805000904F4823
:102CB0000168C90512D40168814641F48071016040
:102CC000FEF798F9804605E0FEF794F9A0EB0800BE
:102CD00002287DD8D9F80000C005F5D5A0680128E4
:102CE00016D00528D5F8900017D020F00100C5F8BF
:102CF0009000D5F8900020F0040000BFC5F89000C7
:102D0000A06841F28839C0B1FEF774F980460FE03F
:102D1000D5F8900040F00100F0E740F00400C5F85D
:102D20009000F5E7FEF766F9A0EB080149454FD89A
:102D3000D5F890008007F5D50EE0FEF75BF98046E8
:102D400006E000BFFEF756F9A0EB080149453FD861
:102D5000D5F890008007F5D41FB1A86D20F0805001
:102D6000A8652078800628D5606A0028D5F89800E4
:102D700012D040F00100C5F89800FEF73BF9074675
:102D800005E000BFFEF736F9C01B022820D8D5F8B1
:102D900098008007F6D510E020F00100C5F89800F3
:102DA000FEF728F9074604E0FEF724F9C01B0228C5
:102DB0000ED8D5F898008007F6D4A06AF0B30228A0
:102DC00016D00C2E7DD0286820F08070286000E09E
:102DD000ABE0FEF70FF90446AAE000000010024045
:102DE0003C7D0008140000200C0000200070004012
:102DF000E868E26A00F00301914228D1216B00F0FB
:102E0000F00209011039914221D1626B00F4FE41B8
:102E1000B1EB022F1BD194F8382000F07841B1EBD0
:102E2000C26F14D1A18F00F4C00249084905A1F571
:102E3000001191420BD194F8401000E06EE0490877
:102E4000490600F0C060A1F1007181424FD00C2E04
:102E500077D02868400174D42868C00071D42868ED
:102E600020F080702860FEF7C5F8064605E000BF38
:102E7000FEF7C0F8801B022857D828688001F7D4D5
:102E8000F4E90B016FF00F0202EB01110843218AF4
:102E90005204490802EB4151A26841EA0221084369
:102EA000217D4FF07E42490802EB41610843217BBE
:102EB00040EAC160E968244A11400843E860286894
:102EC00000E03EE040F080702860E86840F08070EC
:102ED000E860FEF78FF8044605E000BFFEF78AF8C9
:102EE000001B022821D828688001F7D527E0286830
:102EF000800124D4286840F080702860E86840F0A1
:102F00008070E860FEF776F8044604E0FEF772F899
:102F1000001B022809D828688001F7D50FE000BF00
:102F2000FEF768F8001B022802D90320BDE8F883E9
:102F300028688001F4D4E86804490840E86000206B
:102F4000F4E70120F2E700000C809D01FCFFEEFE9B
:102F5000704701F03FBF70B5044600688569066898
:102F60007220B0431CD1E843810707D5010605D57F
:102F7000410603D5810601D5C00611D4A16C3220CB
:102F8000884304D0A16C1220884305D008E029466C
:102F9000204602F06FF803E02946204601F082FF48
:102FA0007420B0431CD1E843410707D5010605D57D
:102FB000410603D5810601D5C00611D4A16C42207B
:102FC000884304D0A16C2220884305D008E029461C
:102FD000204602F04FF803E02946204601F062FF48
:102FE000F043010703D5810601D5C0060FD4E8439D
:102FF000010703D5810601D5C00608D4A06C0007DF
:1030000005D529462046BDE8704002F033B870BDB2
:1030100010B501680A6842F480020A6002684FF441
:103020000051D161802101F0ABFE002010BD70473E
:1030300070B5040003D0A06C002510B106E001209B
:1030400070BD84F84450204600F06AF80220A06465
:103050002068016821F0010101606068216820F0AA
:10306000706008612068416921F400414161206875
:10307000416921F0004141612168206B486120686D
:10308000816821F400418160E06830B12169012943
:1030900007D040F40440216888602069022803D0EA
:1030A00006E040F40040F6E721684FF40060486015
:1030B00020684168174A11434160D4E9050108437B
:1030C000E16940EA01202168C860D4E908010843A9
:1030D000D4E90A1211430843A16808432168086033
:1030E000A06AB0F5000F09D1E06A10B1B0F5001F79
:1030F00004D12068016841F48031016020680168D2
:1031000041F001010160E56401202064A064002019
:1031100070BD0000008000027047704770470000DB
:1031200030B5ADB00446142126A8FDF747FA982122
:103130006846FDF743FA2049206888423AD1801555
:103140000025009017956846FFF7A0F808B1FDF735
:1031500044FC1A4CE06C40F04000E064E06C00F08D
:1031600040002B90FFF72EF84FF4E07026901220CD
:10317000CDE927050320299004202A9026A910488C
:10318000FDF708FEA06D40F40000A065A06D0022D0
:1031900000F400002B9005214820FEF715FC482084
:1031A000FEF704FC002205214920FEF70DFC492012
:1031B000FEF7FCFB2DB030BD005C0040001002406B
:1031C000001800487047704770477047704700000C
:1031D000F0B590F83C20012A39D0012480F83C4019
:1031E000022280F83D20026853689568194E1A4FF4
:1031F000B24201D0BA4204D123F4700C4B6843EAC6
:103200000C0323F0700C0B6843EA0C035360026854
:10321000B24210D0B2F1804F0DD0104B9A420AD07A
:103220000F4B9A4207D00F4B9A4204D0BA4202D0B9
:103230000D4B9A4204D1896825F0800319439160AF
:1032400080F83D40002180F83C100846F0BD022087
:10325000F0BD0000002C014000340140000400409B
:1032600000080040000C00400040014010B5040080
:1032700003D094F83D0010B107E0012010BD0020FC
:1032800084F83C00204600F023F8022084F83D003A
:10329000211D206802F090F8012084F8480084F88D
:1032A0003E0084F83F0084F8400084F8410084F830
:1032B000420084F8430084F8440084F8450084F810
:1032C000460084F8470084F83D00002010BD00004F
:1032D00008B501681448B1F1804F14D0134A9142E7
:1032E00020D1816D41F002018165806D002200F0E6
:1032F0000200009005211D20FEF766FB1D20BDE8A1
:103300000840FEF753BB816D41F001018165806D7E
:10331000002200F00100009005211C20FEF754FB64
:103320001C20ECE708BD0000001002400004004033
:1033300090F83D10012901D001207047022180F84A
:103340003D100168CA6842F00102CA600068114974
:10335000884211D0B0F1804F0ED00F4988420BD077
:103360000E49884208D00E49884205D00D4988424E
:1033700002D00D49884207D181680C4A11400629C4
:1033800006D0B1F5803F03D0016841F00101016032
:1033900000207047002C014000040040000800405D
:1033A000000C0040003401400040014007000100D3
:1033B00070B5044690F83C000025012817D001267E
:1033C00084F83C60022084F83D00226890682F4B0E
:1033D000184020F47F4090600868502838D00DDCF9
:1033E00020284FD005DC90B3102811D14AE00220EC
:1033F00070BD302846D040280AD13BE060282FD04D
:1034000070280DD0B0F5805F03D0B0F5005F12D00A
:10341000012584F83D60002084F83C00284670BDFA
:10342000CB68D1E90121206802F02EF8206881687C
:1034300041F0770109E0CB68D1E90121206802F071
:1034400023F82068816841F480418160E1E719E058
:10345000CA684968206802F029F85021206806E00F
:10346000CA684968206802F032F86021206802F0DA
:1034700015F8CEE7CA684968206802F017F84021BD
:103480002068F4E7226801461046F0E788FFFEFF57
:1034900070472DE9F04104460068C66805694FF0A1
:1034A0000007A90713D5B10711D5F91E0161012045
:1034B0002077206880698007204602D0FFF7E8FF68
:1034C00004E000F08BF8204600F089F827776807C1
:1034D00016D5700714D521686FF00400086102202A
:1034E00020772068806910F4407F204602D0FFF7E3
:1034F000CFFF04E000F072F8204600F070F8277764
:10350000280715D5300713D521686FF0080008612A
:10351000042020772068C0698007204602D0FFF78A
:10352000B7FF04E000F05AF8204600F058F827777B
:10353000E80616D5F00614D521686FF01000086172
:10354000082020772068C06910F4407F204602D010
:10355000FFF79EFF04E000F041F8204600F03FF83E
:103560002777E80708D0F00706D021686FF0010040
:103570000861204600F034F8280601D4A80408D5D4
:10358000300606D521686FF4025008612046FFF727
:103590001CFEE80508D5300606D521686FF480705A
:1035A00008612046FFF710FE680608D5700606D5AC
:1035B00021686FF040000861204600F01BF8A80663
:1035C0000AD5B00608D521686FF0200008612046B2
:1035D000BDE8F041FFF7FABDBDE8F08170477047E4
:1035E00000680349884201D1FDF7B6BF704700006B
:1035F000002C0140704790F88410012918D0012157
:1036000080F884102421C0F8881001680A680B68CB
:1036100023F001030B6022F0005100224266036890
:1036200019602021C0F8881080F884201046704767
:103630000220704770B5044690F8840001281DD020
:10364000012084F884002420C4F8880020680568DC
:10365000026822F0010202602068826822F0606243
:103660000A438260204601F045FF20680560202063
:10367000C4F88800002084F8840070BD022070BD6A
:1036800070B5044690F8840001281DD0012084F80C
:1036900084002420C4F8880020680568026822F0AD
:1036A000010202602068826822F060420A43826060
:1036B000204601F01FFF206805602020C4F8880024
:1036C000002084F8840070BD022070BD10B5040095
:1036D00003D0D4F8880010B107E0012010BD00200D
:1036E00084F88400204600F027F82420C4F88800DD
:1036F0002068016821F001010160A06A10B1204634
:1037000001F01AFF204601F0FBFF0128E6D02068F7
:10371000416821F4904141602068816821F02A01CC
:1037200081602068016841F0010101602046BDE828
:10373000104001F065BF000010B5ACB00446142184
:1037400026A8FCF73BFF98216846FCF737FF18498D
:103750002068884229D1022401200F9400906846F5
:10376000FEF794FD08B1FDF738F91248016E41F4F7
:1037700080410166016E01F480412B91C16C41F0E2
:103780000101C164C06C26A900F001002B904FF428
:10379000C060CDE92604002028900320299007204E
:1037A0002A904FF09040FDF7F5FA2CB010BD0000C4
:1037B000003801400010024010B504000FD000F0A6
:1037C00011F8E068216840F08000086061682069B5
:1037D0000843A168084321684860002010BD01200B
:1037E00010BD000008B500680649884208D10648A7
:1037F000816D41F400618165806D00F4006000908E
:1038000008BD0000002C004000100240FEE7000050
:103810000148FDF74BBC0000A00100200148FDF766
:1038200079BC0000A00100200148FFF792BB000016
:10383000F40100200148FFF78EBB0000F4010020D6
:10384000806A0021826B02B19163C26B02B1916305
:1038500000F0ECBB10B50022CC074FF0280306D0D7
:1038600090F84140422233EA040400D0F2228C074F
:1038700007D590F8414042F04402A34301D042F002
:10388000B0020B0401D542F0B802102904D020295F
:1038900005D0402906D007E042F0900204E042F053
:1038A000200201E042F0400200680168914301609B
:1038B00010BD01688A69D243920701D400228A624E
:1038C00000688169C943C90703D0816941F00101DA
:1038D000816170472DE9F041044690F841002821AC
:1038E000814320684FF000054FF0080304D0C36106
:1038F00084F84050BDE8F0818169C1F300478169D7
:10390000FE2202EA11468168C1F30902C168D4F8B7
:103910000CE001F0FE014FF4004CBEF1020F17D194
:103920004FF0060E06F006060EEAD21E76450ED1C0
:10393000A16C491CA164A16C0229DBD1A564C361FF
:1039400084F8405039462046FDF7AFFBD2E70E46DB
:1039500061462046FFF77EFF84F840503246F1E78B
:1039600070B5044690F84100002584F84250404A62
:10397000E2626585626C0A436264282833D0292894
:1039800031D02A282FD048F203012046FFF762FFEA
:103990002046FFF78EFF94F84100602813D02021C5
:1039A00084F8411020688269D24392060BD4826960
:1039B000D243D20605D41022C261606C40F00400EC
:1039C00060642068C1616563206B2A4EA16B19B1E8
:1039D000112812D0212810D0E16BE9B3122824D08D
:1039E000222822D03EE003212046FFF733FF282083
:1039F00084F8410020486063E6E7206801684904D4
:103A000003D5016821F480410160A06BFDF74CF9FA
:103A1000012827D0A06B866384F84050A06BFDF787
:103A20000BF9002823D0A06B18E020680168090476
:103A300003D5016821F400410160E06BFDF734F922
:103A400001280FD0E06B866384F84050E06BFDF7EF
:103A5000F3F800280BD000E004E0E06B816BBDE8D8
:103A6000704008472046BDE8704000F0DFBA70BDE6
:103A70000000FFFF41380008E53E000870B504462D
:103A80001648E06200252563202084F8410084F870
:103A90004250C8436563400711D42068406A616A98
:103AA0000870606A401C6062208D40B1401E208515
:103AB000608D401E6085606C40F00400606448F2D8
:103AC00003012046FFF7C6FE21681020C86184F874
:103AD00040502046FDF786FB70BD00000000FFFF50
:103AE0002DE9F04702680446D2F80080C56A0E4608
:103AF00090F841002027D7614FF00009212808D015
:103B0000292806D022280BD02A2809D028280ED010
:103B100014E048F201012046FFF79CFE21200CE052
:103B200048F202012046FFF795FE222005E048F208
:103B300003012046FFF78EFE484620632068416857
:103B400041F40041416020684168524A114041609F
:103B50002046FFF7AEFE6FEA0801480406D420684D
:103B6000026822F480420260A06B07E0080409D4D6
:103B70002068026822F400420260E06B10B1006825
:103B800040686085F04340070FD4206826F00406A3
:103B9000406A626A1070606A401C6062208D20B1C9
:103BA000401E2085608D401E6085608D18B1606C60
:103BB00040F004006064F043DFF8DC80C00632D4DB
:103BC000C80630D4618D102051B12168C861606C85
:103BD00040F00400606415B3B5F1807F1FD022E08F
:103BE00094F84110282902D1B5F1007F04D094F84F
:103BF0004110292905D00FE031462046FFF73EFF4E
:103C000011E0454508D02168C8612046FFF751FE04
:103C1000204600F043F806E02168C86103E0616CCB
:103C20002046FFF79DFE4D4684F84290C4F834903C
:103C3000606C68B1616C2046FFF792FE94F8410019
:103C4000282815D131462046BDE8F047FFF716BFBA
:103C5000E06A4646B0420DD0204600F01FF8E6620A
:103C600084F84170256384F840502046FDF7BAFA85
:103C7000BDE8F08794F8410084F84170222825635C
:103C800084F84050204602D0FDF765FCF0E7FDF7D0
:103C900061FCEDE700E800FE0000FFFF70B50446A0
:103CA00000680168002584F84250C9434A0403D4DF
:103CB000016821F4804104E0090403D4016821F47F
:103CC0000041016094F841102820292911D094F86E
:103CD00041102A290CD184F84100222020630221BE
:103CE0002046FFF7B7FD84F840502046FDF732FC30
:103CF00070BD84F841002120206301212046FFF798
:103D0000A9FD84F840502046FDF725FC70BD000059
:103D10002DE9F0470446006889460026816935464A
:103D20001746C9064FF0200841D51021C1612FE088
:103D3000B9F1FF3F2CD0FDF75DF9C11B494502D811
:103D4000B9F1000F24D12068416894F8422001F4B1
:103D500080418369DB431B0415D4B1F5804F12D039
:103D6000202A10D0416841F480414160FDF742F9BA
:103D7000074608E0FDF73EF9C01B192803D945F0B6
:103D80002005012604E020688069C0438006F1D444
:103D900020688069C043800602D5002EC8D003E0A9
:103DA00016B92168C1F81C8045F004050126216878
:103DB0008869C20505D54FF4807245F00105CA61D6
:103DC0000126410509D522684FF4806145F00805B8
:103DD000D1610126800502D40AE0800507D521685B
:103DE0004FF4007045F00205C861012600E086B17D
:103DF0002046FFF75EFD54F8240B4168064A114047
:103E00004160206A2843206284F81D800020A0774A
:103E100020773046BDE8F08700E800FE2DE9F84342
:103E200004461646DDE9089714489846DAB2009031
:103E30000023204600F0E2F83A464946204600F0CA
:103E400072F9B8B9F5B2B8F1010F08D02168300A9B
:103E500088623A464946204600F065F950B9206824
:103E600085624B46002240212046009700F0F3F87F
:103E7000002800D00120BDE8F88300000020008069
:103E80002DE9F8430446164615489846DDE908979B
:103E9000DAB2C3020090204600F0B0F83A46494634
:103EA000204600F040F9B8B9F5B2B8F1010F08D0DA
:103EB0002168300A88623A464946204600F033F9C4
:103EC00050B9206885624B46002280212046009729
:103ED00000F0C1F8002800D00120BDE8F883000000
:103EE000002000802DE9F0410446C06A94F840307B
:103EF000012B0DD0012384F84030CB439D066FEA9F
:103F0000020208D4950606D42046FFF7E9FD6FE0CB
:103F10000220BDE8F081384DDF064FF080762DD4C9
:103F2000D7062BD4638D10226BB12168CA61616CF6
:103F300041F00401616408B1B04259D1616C20467E
:103F4000FFF70EFD54E094F84130282B02D1B0F178
:103F5000007F04D094F84110292904D00BE02046BA
:103F6000FFF78CFD44E0A84205D02068C2612046DE
:103F7000FFF79FFC39E02068C26139E05F0715D484
:103F8000570713D4618D61B12168496A626A117063
:103F9000616A491C6162218D491E2185618D491E1E
:103FA0006185618D21BBA8421FD121E01D0705D489
:103FB000150703D42046FFF78DFC19E0990717D4A5
:103FC000910715D4618D69B1606A216800788862B3
:103FD000606A401C6062608D401E6085208D401EBE
:103FE000208505E0B04200D010B92046FFF756FE0C
:103FF000002084F840008CE70000FFFF10B5C1F3FB
:10400000090141EA02410268029C194321435068B8
:1040100021F000414FF4806303EA5453024C2343E0
:1040200098430843506010BDFF63FF0310B590F83C
:1040300041200021602A05D0016380F84010FDF77F
:1040400071F810BD202280F84120016380F84010F3
:10405000FDF72AF810BD2DE9F0411D4617460E4622
:104060000446DDF8188027E0424629462046FFF73F
:104070004FFE10B10120BDE8F081681C1CD0FCF798
:10408000B9FFA0EB0800A84200D8ADB9206880694C
:1040900036EA00000ED00020B8420DD154F8440F8B
:1040A00040F0200044F80409202060700020A07037
:1040B0002070DFE70120EFE72068806936EA000022
:1040C00004D00020B842CFD00020D4E70120F9E787
:1040D00070B516460D4604461EE032462946204677
:1040E000FFF716FE08B1012070BDFCF783FF801BAF
:1040F000A84200D885B920688069C04380060BD5E6
:1041000054F8440F40F0200044F804092020607067
:104110000020A0702070E6E720688069C043800618
:10412000DBD4002070BD70B516460D46044620E075
:10413000324629462046FFF7EBFD08B1012070BD4D
:10414000681C16D0FCF756FF801BA84200D885B922
:1041500020688069C04380070BD554F8440F40F0B5
:10416000200044F80409202060700020A070207016
:10417000E4E720688069C0438007D9D4002070BD7F
:104180000148FDF771BA0000440200200148FDF724
:104190006BBA000044020020F0B503688C88DD682B
:1041A000C5F30B452C442504882404EBC2141E5986
:1041B00006F0F0261E5103680F68DE68C6F30B4652
:1041C000761C3E442E431E5103688C89DD68C5F37E
:1041D0000A052C4425048C2404EBC2141E5906F055
:1041E000F0261E5103688F68DE68C6F30A06761C47
:1041F0003E442E431E519423046803EBC213E5583A
:1042000025F00705E55005680C69EC5091F8313050
:104210000C7E1E0291F8323091F830501B04354369
:1042200043EA04631D439C24036804EBC2141D513C
:104230009823046803EBC213E55825F0FF05E55009
:1042400005684C69EC50A023046803EBC213E558E1
:1042500040F20776B543E550D1E907452C430568A0
:10426000EC50AC25046805EBC2154B6A63510B6931
:104270008BB3012B32D0042B32D0022B30D0032B46
:104280002ED0072B2CD00123B024056804EBC214D8
:104290002E5906F0E0262E51D1E90065AD1B0E8D9A
:1042A0005D435E43ED1C45EA064305682B51B4238C
:1042B000046803EBC213E5586FF30A05E550046880
:1042C000C96AE1500068842101EBC211425842F0F2
:1042D00001024250F0BDFFE70423D5E70323D3E7F3
:1042E0000223D1E70A4810B5084901600021017195
:1042F00041714161816101210162FCF7A1FB00284C
:1043000003D0BDE81040FCF768BB10BD0030024090
:10431000F0000020104810B50E49016000214160F6
:104320008160C1608161C161016441648164C16473
:1043300001654165FCF72CFC08B1FCF74EFB01213F
:104340000548FCF7CBFB002803D0BDE81040FCF784
:1043500044BB10BD00B002401401002010B5044A57
:104360000021044802F0C0F80349086010BD0000B5
:10437000F07C0008E5520008000000200C4810B551
:104380000A490160002141608160C16001614161B1
:104390008161012101771D210162FCF7ABFC00283E
:1043A00003D0BDE81040FCF718BB10BD00C00240B0
:1043B000740100202DE9F04186B014216846FCF715
:1043C000FDF8384CE06C40F02000E064E06C00F058
:1043D00020000590E06C40F08000E064E06C00F0AC
:1043E00080000590E06C40F00400E064E06C00F0B8
:1043F00004000590E06C40F00100E064E06C00F027
:1044000001000590E06C40F04000E064E06C00F0DA
:1044100040000590E06C40F01000E064E06C00F0BB
:1044200010000590E06C40F00800E064E06C00F0E3
:1044300008000590FDF7C6FEE06C40F00200E06465
:10444000E06C194F00F002004FF400540590002278
:1044500021463846FCF7C9FDFE144FF09048002273
:1044600031464046FCF7C1FD0125CDE90045002459
:104470000294694638460394FCF78CFC0096CDE91B
:104480000154694640460394FCF784FC8020009068
:104490000320CDE9010469460448FCF77BFC06B023
:1044A000BDE8F08100100240000C00480004004804
:1044B000134810B5114901601249416000210122E1
:1044C000C0E90212016141618161C1610162FCF7D1
:1044D0002BFE08B1FCF781FA00210948FCF790FD9A
:1044E00008B1FCF77AFA00210548FCF7B4FD002872
:1044F00003D0BDE81040FCF770BA10BD0054004076
:10450000A001002097699000134810B5114901607F
:104510001249416000210222C0E902120122C0E9D1
:1045200004218161C161016241628162C16248F21C
:1045300049110163FEF77CFD08B1FCF74EFA06480D
:10454000FEF766FD002803D0BDE81040FCF745BA31
:1045500010BD0000005C0040F4010020976990004D
:1045600030B58DB034216846FCF728F82648254937
:104570000024C0E9001484600721C460C0E904413C
:10458000032181610E210525C0E9071540F28E2126
:10459000416240F2E51181624FF42571C16240F23F
:1045A000E711016380F8344080F8354080F83640E8
:1045B000FDF7BFF808B1FCF710FA4FF44870CDE9E9
:1045C00000404FF41670CDE90240FF204FF48061A7
:1045D000CDE90641CDE904408DF83000CDE908541D
:1045E0008DF831400A940B948DF8324000226946D0
:1045F0000548FDF70FF8002801D0FCF7EEF90DB0E3
:1046000030BD0000006801404402002010B586B0B3
:1046100014216846FBF7D2FF174816490124C0E968
:1046200000144021816000F10C030021202283E866
:1046300016008161C0E9071441628162C1620821EC
:104640000163FDF701FC08B1FCF7C7F94FF0011059
:10465000CDE9024009480490009441F2883269464D
:104660000548FDF7E3F9002801D0FCF7B6F906B0DC
:1046700010BD0000001000A0EC02002001000001AD
:1046800000B585B014216846FBF798FF1648154918
:104690000122C0E900124021816000212023C0E9ED
:1046A0000313C0E90521C0E9071241628162C162BA
:1046B00008210163FDF7C8FB08B1FCF78EF9022061
:1046C00000900290094803900948049041F2883212
:1046D00069460548FDF7AAF9002801D0FCF77DF9E5
:1046E00005B000BD001400A03C0300200200010042
:1046F0000200000110B588B000241648009401940F
:1047000002940394049405944FF080410694C0E908
:104710000014611EC0E9024104618461FEF7A6FD38
:1047200008B1FCF75AF94FF48050009069460948E7
:10473000FEF73EFE08B1FCF750F9049404A90548C1
:104740000694FEF745FD002801D0FCF746F908B0B5
:1047500010BD00008C03002010B588B0002417485D
:1047600000940194029403940494059412490694CD
:10477000C0E900144FF6FF71C0E902410461846191
:10478000FEF774FD08B1FCF728F94FF48050009053
:1047900069460A48FEF70CFE08B1FCF71EF90494BE
:1047A00004A906480694FEF713FD002801D0FCF783
:1047B00014F908B010BD000000040040D803002028
:1047C000184810B5164901604FF4E13141600021ED
:1047D00081600C22C160C0E904128161C161016283
:1047E00041628162FEF772FF08B1FCF7F6F8002122
:1047F0000C48FEF745FF08B1FCF7EFF80021094827
:10480000FEF718FF08B1FCF7E8F80648FEF7F3FEDC
:10481000002803D0BDE81040FCF7DFB810BD000051
:1048200000380140240400200A4810B508490160FE
:1048300000214022C0E90112C0E90321FEF7BCFFBC
:10484000002803D0BDE81040FCF7C7B810BD000039
:10485000002C0040B8040020FEE7FEF7B9F8FEE7A0
:104860000148FDF743BA0000EC0200200148FDF7C3
:104870003DBA00003C030020F0B50024234658B1A7
:10488000022809D841B100220A604A608A60CA60E1
:104890000A61022802D002E001244CE0274B284D97
:1048A000002000BF05EB8002D2F8042CD60707D009
:1048B00002F0020603F00207BE4201D1461C0E6060
:1048C000D60607D502F0200603F02007BE4201D12C
:1048D000461C4E60D60507D502F4007603F4007737
:1048E000BE4201D1461C8E60D6030FD502F480264D
:1048F00003F48027BE4209D1960300F1010602D4D9
:1049000046F4803601E046F08076CE60D6010FD5C1
:1049100002F0806603F08067BE4209D1920100F187
:10492000010202D442F4803201E042F080720A6156
:10493000401C0228B6D32046F0BD00002202040429
:104940000010065010B5806A0021C163426C02213C
:10495000B2F5807F03D04164FDF7C5F910BD026850
:10496000136A9B060BD5516201680A6842F4003253
:104970000A600068016841F00201016010BD4164F5
:10498000FDF7AFF910BD2DE9F041984616460F46E8
:104990000446069D08E0681C06D0FCF72BFBA0EB44
:1049A0000800A8420AD84DB12068006A384000D0FB
:1049B0000120B042EFD10020BDE8F0814FF400703B
:1049C0006064A06C40F00100A0640120F4E70000E6
:1049D0002DE9F041434C05468846E06800268107F2
:1049E000286806D0E16801F0030181420FD170B15F
:1049F0001AE0012804D0022805D0032807D108E0D6
:104A00002168890701E021684905002907DB0126A3
:104A100064E02168890302D421684903F5E7E1686D
:104A200021F003010143E160206820F080602060F4
:104A3000FCF7E0FA074604E0FCF7DCFAC01B0228AA
:104A400043D820680001F7D46FF00F00B8F1000FD1
:104A50001BD0B8F1010F24D0297D4908420502EB93
:104A60004161AA6841EA02216A6800EB0210014331
:104A700020691D4A104001432161206840F0806098
:104A80002060FCF7B7FA074621E0A9682A7B0902F3
:104A900041EAC2616A6800EB021001432069134ACF
:104AA000E8E7298A124A490802EB4151AA6841EA1B
:104AB00002216A6800EB0210014320690D4AD9E720
:104AC000FCF798FAC01B022801D9032606E02068EB
:104AD0000001F5D52069A969084320613046BDE889
:104AE000F0810000001002400F80FFF90F80FF07E7
:104AF0000000E0FF0F809FFF2DE9F041434C054689
:104B00008846E06800268107286806D0E16801F041
:104B1000030181420FD170B11AE0012804D00228AC
:104B200005D0032807D108E02168890701E0216842
:104B30004905002907DB012664E02168890302D4C6
:104B400021684903F5E7E16821F003010143E160D1
:104B5000206820F080502060FCF74CFA074604E003
:104B6000FCF748FAC01B022843D820688000F7D41D
:104B70006FF00F00B8F1000F1BD0B8F1010F24D077
:104B8000297D4908420502EB4161AA6841EA0221F8
:104B90006A6800EB0210014360691D4A104001433E
:104BA0006161206840F080502060FCF723FA0746DE
:104BB00021E0A9682A7B090241EAC2616A6800EB28
:104BC000021001436069134AE8E7298A124A49083A
:104BD00002EB4151AA6841EA02216A6800EB021027
:104BE000014360690D4AD9E7FCF704FAC01B0228AB
:104BF00001D9032606E020688000F5D56069A9691F
:104C0000084360613046BDE8F081000000100240BA
:104C10000F80FFF90F80FF070000E0FF0F809FFF6C
:104C20001748C16801F0030101291AD0022914D0E4
:104C3000032914D00021C268C368C2F30312C3F36E
:104C400006234B43521CB3FBF2F1C068C0F3416032
:104C5000401C4000B1FBF0F070470A49EBE70A49FD
:104C6000E9E70168090704D4D0F89410C1F30321DF
:104C700002E00168C1F30311044A52F82110DAE797
:104C8000001002400024F40000127A004C7D00085D
:104C9000F8B51A4D06460024A86DC00002D5FDF7F0
:104CA00099FA0DE0A86D40F08050A865A86D00F05D
:104CB00080500090FDF78EFAA96D21F08051A96512
:104CC000B0F5007F03D0802E06D3022407E0802EAB
:104CD00005D9A02EF9D801E0702E00D10124084892
:104CE000016821F00F0121430160006800F00F000E
:104CF000A04201D00120F8BD0020F8BD0010024004
:104D00000020024010B5836C0022012B02D10C065A
:104D100000D58022F22400688C430FD1046842F051
:104D2000420264024FEA037404D4002C06DB42F012
:104D3000800201E0002C01DB42F03002D4248C43DD
:104D40000FD1046842F0440264024FEA037304D4B2
:104D5000002B06DB42F0800201E0002B01DB42F079
:104D60003002C1F3C201072906D1016842F03802BE
:104D7000490201D442F0800201689143016010BDF4
:104D800000220B0600D58022C1F3C203072B01D1FC
:104D900042F0B802F2238B4301D142F0F202D42355
:104DA0008B4301D142F0F4020068016811430160B5
:104DB000704701688A69D243920701D400228A624F
:104DC00000688169C943C90703D0816941F00101C5
:104DD0008161704710B50268044691691068CB057F
:104DE00008D5030606D5E36C43F00103E3644FF4F2
:104DF0008073D3614A0509D5020607D5E26C42F0FB
:104E00000802E26423684FF48062DA618A0509D5FA
:104E1000020607D5E26C42F00202E26423684FF416
:104E20000072DA61CA0409D5020607D5E26C42F0C5
:104E30002002E26423684FF48052DA618A0409D5C3
:104E4000020607D5E26C42F04002E26423684FF4A8
:104E50000052DA61090509D5000607D5E06C40F07B
:104E60008000E06421684FF40060C861E06C10B11C
:104E70002046FFF79EFFE06C002811D004280FD0D9
:104E800040060AD4A06C3221814302D042218143E2
:104E900003D1012020640820A0642046FEF7C7F853
:104EA00010BD00002DE9F843044690F844000128A5
:104EB00017D00125CF4384F84450F8064FF0000680
:104EC00012D421681020C861E06C40F00400E06456
:104ED0002046FFF76EFF84F844602046FEF7A7F8EF
:104EE000C1E00220BDE8F883B80646D42046FFF7AB
:104EF00071FFA06CDFF878914FF02008122803D0E2
:104F0000A06C22281BD0AEE0F2212046FFF7FAFE6B
:104F10002168C1F81C802068416801EA09014160EC
:104F20002068016821F0010101602564A56484F80E
:104F300044602068016841F00101016083E0780766
:104F40000DD42068406A616B0870606B401C606320
:104F5000208F20B1401E2087608F401E6087D421A3
:104F60002046FFF7CFFE2168C1F81C802068416809
:104F700001EA0901416025646FE0780704D42068E4
:104F8000406A616B087005E0B80707D4606B216860
:104F900000788862606B401C606329E0380638D472
:104FA000608F08B1208F10B1608F40B35BE0206844
:104FB0004068C0F30901608FFF280CD90096E06BB0
:104FC000FF2200F0806040F08073204600F074F90A
:104FD000FF20208747E0608F20870096E36B94F8DE
:104FE0003820204600F068F92068406840013AD532
:104FF000208F401E2087608F401E608733E0208F07
:1050000068B130E0A06C122814D0A06C22281ED009
:1050100029E0780627D4608F28BB606B20B1206818
:1050200040688001EED51EE02068416841F480416F
:10503000416018E0F2212046FFF764FEA06C206476
:10504000A56484F844602046FEF768F80BE0D4219C
:105050002046FFF757FEA06C2064A56484F84460E6
:105060002046FEF75AF884F8446000203AE7000032
:1050700000E800FEF8B5044690F84400012828D066
:105080000127CE4384F84470F0064FF0000528D481
:10509000618F102000292168C8611CD0A06C206499
:1050A000A06C20F03200A064A06C20F04200A0644C
:1050B000F6212046FFF726FEE06C40F00400E06495
:1050C0002046FFF776FE84F844502046FDF7AFFFF8
:1050D000B3E00220F8BD2046FFF76BFE84F8445091
:1050E000ABE0300710D4206881698269C1F30041C8
:1050F0000368C2F3464223F00803036084F8445077
:105100002046FDF725FF98E0700701D5300672D4E0
:10511000A16C4220884304D0A16C322088433FD048
:105120008BE02068406A616B0870606B401C6063B4
:10513000208F401E2087608F401E6087608F01286F
:1051400012D0608FE0B10095E06B012200F080602A
:1051500040F080730021204600F0AEF820684168DE
:1051600021F40041416068E0E06B20F08070E06372
:105170000095E36B01220021204600F09DF85CE0E1
:10518000D4212046FFF7BEFDA06C2064A06C20F067
:105190004200A06484F844502046FEF713F84CE027
:1051A000608F30B3208F20BB608FFF280DD9009512
:1051B000E06BFF2200F0806040F080730021204609
:1051C00000F07AF8FF20208737E0608F2087009575
:1051D000E36B94F838200021204600F06DF8206839
:1051E0004068400129D5208F401E2087608F401ED7
:1051F000608722E0FFE7B0071FD4608F60B1606B6B
:10520000216800788862606B401C6063608F401E7C
:105210006087208F401E2087608F70B9F221204662
:10522000FFF770FDA06C2064A06C20F03200A06439
:1052300084F844502046FDF7C6FFB00635D4A06C74
:10524000000732D520688169C94349070CD4406AF8
:10525000616B0870606B401C6063208F20B1401E42
:105260002087608F401E6087F6212046FFF74AFDA9
:1052700038212046FFF746FD2068416841F400418F
:105280004160206841680B4A11404160216820203C
:10529000C86121680820C861E563A06C2064A76428
:1052A00084F844502046FDF737FF84F8445000202E
:1052B000F8BD000000E800FEF0B50568059C6868D0
:1052C0004FF48066064FC1F3090106EA545641EADD
:1052D00002413E431943B043214308436860F0BD97
:1052E000FF63FF07012001F063F8FBE710B54FF003
:1052F000E020006902F040FB012803D0BDE8104027
:1053000002F01CB810BD10B596B044216846FBF7FA
:1053100055F9142111A8FBF751F94FF40070FCF76F
:10532000F3FE08B172B6FEE703244FF48030CDE9F6
:1053300000400012039040200490022001210A90B6
:10534000CDE90B411B21CDE90D100F9004201090E9
:105350006846FDF749FB08B172B6FEE70F20CDE9BC
:10536000110480201390002014901590012111A8A1
:10537000FDF7C4F908B172B6FEE7FDF78BFA16B077
:1053800010BD00000248016841F4700101607047DF
:1053900088ED00E00148FEF77CB80000CC04002056
:1053A0000148FEF776B800008C0300200148FEF7A4
:1053B00070B80000D80300202DE9F04702682A4B9E
:1053C0002A4D2B4E2B4F2C4C4FF0804A984209D03F
:1053D000504507D0A84205D0B04203D0B84201D012
:1053E000A04204D122F0700C4A6842EA0C02DFF8B5
:1053F0008CC0DFF88C80DFF88C9098420FD050453D
:105400000DD0A8420BD0B04209D0B84207D0A0427C
:1054100005D0604503D0404501D0484503D122F472
:105420004075CA682A434D6922F080022A4302600F
:105430008A68C2620A688262984207D0A04205D098
:10544000604503D0404501D0484501D10969016359
:10545000012141610169C90703D0016921F00101FE
:105460000161BDE8F0870000002C0140000400400D
:1054700000080040000C00400034014000400140A2
:10548000004401400048014010B5846842EA03220C
:1054900024F47F440A432243826010BD826822F0D4
:1054A00070020A4342F007018160704710B5036A39
:1054B000046A24F001040462846924F0F00444EADC
:1054C000021423F00A020A438461026210BD10B57F
:1054D000036A046A24F010040462846923F0A003C0
:1054E00024F4704444EA023243EA01118261016209
:1054F00010BD000030B5416EB9B102689168926884
:10550000C1F342610B4B520F9C5CE50003F10804B0
:10551000A25CB5FBF2F2A0F86A205A5C615CD20092
:10552000B2FBF1F1A0F8681030BD0121A0F86A10BB
:10553000F8E700002C7D000890F82810090706D530
:1055400001684A68836B22F400421A434A6090F86B
:105550002810C90706D001684A68C36A22F40032DD
:105560001A434A6090F82810890706D501684A68EE
:10557000036B22F480321A434A6090F828104907DE
:1055800006D501684A68436B22F480221A434A60B8
:1055900090F82810C90606D501688A68C36B22F402
:1055A00080521A438A6090F82810890606D501684F
:1055B0008A68036C22F400521A438A6090F828101B
:1055C000490611D501684A68436C22F480121A43D7
:1055D0004A60416CB1F5801F06D101684A68836C4E
:1055E00022F4C0021A434A6090F82810090606D532
:1055F00001684A68C06C22F4002202434A60704786
:105600002DE9F84300260446C0F89060FBF7F2FC51
:105610008046206800684FF0200500076FF07E4745
:1056200013D54346002229042046009700F0B4F920
:1056300058B1216851E8000F20F0800041E80002D5
:10564000002AF6D1C4F8885021E02068006840079D
:1056500022D5434600224FF480012046009700F0F7
:105660009BF9C8B1216851E8000F20F4907041E81F
:105670000002002AF6D12068083050E8001F21F00F
:10568000010140E80012002AF5D1C4F88C5084F8DA
:1056900084600320BDE8F883C4F88850C4F88C50B7
:1056A00044F86C6F666026760020F3E710B5026858
:1056B00052E8001F21F4907142E80013002BF6D14C
:1056C0000E4B0268083252E8001F194042E80014ED
:1056D000002CF6D1C16E012908D1016851E8002FD4
:1056E00022F0100241E80023002BF6D12021C0F85F
:1056F0008C100021C166416710BD0000FEFFFFEF66
:105700002DE9F0410446016880682269E36910438D
:10571000626900251A431043DFF84CC20A68934BB4
:105720001A4002430A6020684168E26821F440514F
:10573000114341602168A069614501D0226A10438C
:105740008A688B4B1A4002438A602068C16A626A89
:1057500021F00F011143C1628649236886488B42BC
:105760000DD1D0F8880010F0030006D0012867D0D2
:10577000022854D0032851D164E001204FE07F4932
:105780008B420BD1D0F8880010F00C0047D00428D1
:1057900045D0082852D00C2840D153E078498B429C
:1057A0000BD1D0F8880010F0300038D0102847D046
:1057B000202843D0302831D144E072498B420BD1AC
:1057C000D0F8880010F0C00029D0402838D08028B8
:1057D00034D0C02822D135E06B498B420ED1D0F8AD
:1057E000880010F440701AD0B0F5807F28D0B0F552
:1057F000007F23D0B0F5407F10D123E063450DD169
:10580000D0F8880010F4406009D0B0F5806F17D050
:10581000B0F5006F12D0B0F5406F13D010205B4A86
:105820005B4F00264FF40041634539D160B1022837
:105830000DD004280DD0082831D10EE00220EEE76B
:105840000420ECE70820EAE7FDF74CF803E01146F6
:1058500003E0FDF76BF801007BD0606A37F8102099
:105860006768B1FBF2F007EB4703834269D8B0EBFE
:10587000073F66D8002308461946FAF787FD090254
:1058800041EA106102027808101871413A4600237B
:10589000FAF77CFD3F4AA0F54071914257D950E09C
:1058A000E3694FF6EF788B422BD1092849D2DFE824
:1058B00000F005080D48254848480E00FDF712F88D
:1058C00001E0FDF721F8010001D142E01146606AD4
:1058D00037F81000B1FBF0F04100606801EB5001B7
:1058E000B1FBF0F1A1F1100040452AD84FF6F0725B
:1058F00001EA0200C1F34201084328E0FDF716F86F
:10590000E1E709281DD2DFE800F005080D1C1E1C88
:105910001C1C0E00FCF7E6FF01E0FCF7F5FF0100A0
:1059200001D116E01146606A37F81000B1FBF0F1C2
:10593000606801EB5001B1FBF0F0A0F110014145AE
:1059400004D9012505E0FCF7F1FFE8E780B2216802
:10595000C8600120A4F86A0024F8680F2846E660B1
:105960002661BDE8F081000000800040F369FFCFB0
:10597000FFF4FF11003801400010024000440040D5
:1059800000480040004C0040005000400024F4005B
:10599000147D0008FFFC0F002DE9F04799461746DB
:1059A0000D4604464FF00008089E33E0701C31D0CD
:1059B000FBF720FBA0EB0900B04218D8BEB120686D
:1059C0000168490726D5802D24D0402D22D0C169F9
:1059D000C94309070DD4082505622046FFF766FE76
:1059E000C4F8905084F884800120BDE8F08703203B
:1059F000FBE7C069C04300050CD421684FF4006088
:105A000008622046FFF752FE2020C4F8900084F878
:105A10008480ECE72068C06935EA000004D00020EB
:105A2000B842C3D00020E0E70120F9E7FEE700001C
:105A300000B516488DB00078C00724D1134800F097
:105A4000ECFB00B300203F21CDE909100B90104979
:105A5000104A0C9005900690CDE907210422CDE96B
:105A60000202019001210A20049103460A46009097
:105A700009490A4800F084FA094A0A49FAF708FD78
:105A80000248AFF300800DB0044800BDB000002014
:105A9000BC840008C884000848840008702C0020DA
:105AA00000000008CF5F000800B516488DB00078F0
:105AB000C00724D1134800F0B0FB00B300203F2101
:105AC000CDE909100B901049104A0C9005900690F2
:105AD000CDE907210422CDE9020201901420012121
